{
  "abi": [
    {
      "anonymous": false,
      "inputs": [
        {
          "indexed": true,
          "internalType": "address",
          "name": "nftArtist",
          "type": "address"
        },
        {
          "indexed": true,
          "internalType": "address",
          "name": "contractAddress",
          "type": "address"
        },
        {
          "indexed": false,
          "internalType": "string",
          "name": "title",
          "type": "string"
        },
        {
          "indexed": false,
          "internalType": "uint256",
          "name": "goal",
          "type": "uint256"
        },
        {
          "indexed": false,
          "internalType": "string",
          "name": "initialDate",
          "type": "string"
        },
        {
          "indexed": false,
          "internalType": "string",
          "name": "dueDate",
          "type": "string"
        },
        {
          "indexed": false,
          "internalType": "uint256",
          "name": "duration",
          "type": "uint256"
        },
        {
          "indexed": false,
          "internalType": "uint256",
          "name": "steps",
          "type": "uint256"
        },
        {
          "indexed": false,
          "internalType": "string",
          "name": "ipfsImage",
          "type": "string"
        }
      ],
      "name": "newNFTContractCreated",
      "type": "event"
    },
    {
      "anonymous": false,
      "inputs": [
        {
          "indexed": false,
          "internalType": "address",
          "name": "owner",
          "type": "address"
        },
        {
          "indexed": false,
          "internalType": "uint256",
          "name": "id",
          "type": "uint256"
        },
        {
          "indexed": false,
          "internalType": "string",
          "name": "tokenUri",
          "type": "string"
        },
        {
          "indexed": false,
          "internalType": "address",
          "name": "nftContract",
          "type": "address"
        }
      ],
      "name": "newNFTMintedAndApproved",
      "type": "event"
    },
    {
      "anonymous": false,
      "inputs": [
        {
          "indexed": false,
          "internalType": "string",
          "name": "description",
          "type": "string"
        },
        {
          "indexed": false,
          "internalType": "string",
          "name": "initialDate",
          "type": "string"
        },
        {
          "indexed": false,
          "internalType": "string",
          "name": "dueDate",
          "type": "string"
        },
        {
          "indexed": false,
          "internalType": "address",
          "name": "contractAddress",
          "type": "address"
        }
      ],
      "name": "newStepAdded",
      "type": "event"
    },
    {
      "inputs": [
        {
          "internalType": "address",
          "name": "nftContract",
          "type": "address"
        },
        {
          "internalType": "address",
          "name": "owner",
          "type": "address"
        },
        {
          "internalType": "string",
          "name": "_tokenURI",
          "type": "string"
        },
        {
          "internalType": "address",
          "name": "nftMarketPlace",
          "type": "address"
        }
      ],
      "name": "createCollectibleAndApproveMarket",
      "outputs": [],
      "stateMutability": "nonpayable",
      "type": "function"
    },
    {
      "inputs": [
        {
          "internalType": "string",
          "name": "_nftName",
          "type": "string"
        },
        {
          "internalType": "string",
          "name": "_tokenName",
          "type": "string"
        },
        {
          "internalType": "uint256",
          "name": "_goal",
          "type": "uint256"
        },
        {
          "internalType": "string[]",
          "name": "_stepsInitialDate",
          "type": "string[]"
        },
        {
          "internalType": "string[]",
          "name": "_stepsDueDate",
          "type": "string[]"
        },
        {
          "internalType": "string",
          "name": "_title",
          "type": "string"
        },
        {
          "internalType": "string",
          "name": "_initialDate",
          "type": "string"
        },
        {
          "internalType": "string",
          "name": "_dueDate",
          "type": "string"
        },
        {
          "internalType": "uint256",
          "name": "_duration",
          "type": "uint256"
        },
        {
          "internalType": "uint256",
          "name": "_stepDivision",
          "type": "uint256"
        },
        {
          "internalType": "string",
          "name": "_ipfsImage",
          "type": "string"
        },
        {
          "internalType": "string[]",
          "name": "_descriptionSteps",
          "type": "string[]"
        }
      ],
      "name": "createNFTContract",
      "outputs": [],
      "stateMutability": "nonpayable",
      "type": "function"
    },
    {
      "inputs": [
        {
          "internalType": "uint256",
          "name": "_index",
          "type": "uint256"
        }
      ],
      "name": "getNFTContract",
      "outputs": [
        {
          "internalType": "address",
          "name": "",
          "type": "address"
        }
      ],
      "stateMutability": "view",
      "type": "function"
    },
    {
      "inputs": [
        {
          "internalType": "uint256",
          "name": "",
          "type": "uint256"
        }
      ],
      "name": "nftContracts",
      "outputs": [
        {
          "internalType": "contract DonatyNFT",
          "name": "",
          "type": "address"
        }
      ],
      "stateMutability": "view",
      "type": "function"
    }
  ],
  "bytecode": "6080604052600060015534801561001557600080fd5b50613540806100256000396000f3fe60806040523480156200001157600080fd5b5060043610620000525760003560e01c80630bb4d82a14620000575780633562f1cf146200008a57806362bcff4c14620000a15780637ba406fb14620000ba575b600080fd5b6200006e6200006836600462000435565b620000d1565b6040516001600160a01b03909116815260200160405180910390f35b6200006e6200009b36600462000435565b620000fc565b620000b8620000b2366004620005b8565b6200012e565b005b620000b8620000cb366004620007b3565b6200026a565b60008181548110620000e257600080fd5b6000918252602090912001546001600160a01b0316905081565b60008082815481106200011357620001136200082b565b6000918252602090912001546001600160a01b031692915050565b60008c8c604051620001409062000427565b6200014d92919062000891565b604051809103906000f0801580156200016a573d6000803e3d6000fd5b5060008054600180820183558280527f290decd9548b62a8d60345a988386fc84ba6bc95484008f6362f93160ef3e56390910180546001600160a01b0319166001600160a01b0385161790559054919250620001c691620008d9565b6001600160a01b03821660009081526002602052604090205560018054620001ee91620008f3565b600181905550806001600160a01b0316336001600160a01b03167ff25eb13b53bf4b1dd50cb8e95e5493d3c6cc32fc688adac3252519ed4ed2b3fc8a8e8b8b8b8b8b6040516200024597969594939291906200090e565b60405180910390a36200025b828b8b846200036b565b50505050505050505050505050565b6001600160a01b03841660009081526002602052604081205481549091908190839081106200029d576200029d6200082b565b60009182526020909120015460405163718d66d560e11b81526001600160a01b039091169063e31acdaa90620002dc9088908890889060040162000983565b6020604051808303816000875af1158015620002fc573d6000803e3d6000fd5b505050506040513d601f19601f82011682018060405250810190620003229190620009ba565b90507f74bc22e2331d4aaea9ce96a083d1192ce0b3486b56fff9825fadd7efa2618036858286896040516200035b9493929190620009d4565b60405180910390a1505050505050565b60005b845181101562000420577f9d392e526d38b45593f12a32266b7c5023c24998be36cd5ff6d7341fe7a923e5858281518110620003ae57620003ae6200082b565b6020026020010151858381518110620003cb57620003cb6200082b565b6020026020010151858481518110620003e857620003e86200082b565b60200260200101518560405162000403949392919062000a12565b60405180910390a180620004178162000a6b565b9150506200036e565b5050505050565b612a838062000a8883390190565b6000602082840312156200044857600080fd5b5035919050565b634e487b7160e01b600052604160045260246000fd5b604051601f8201601f191681016001600160401b03811182821017156200049057620004906200044f565b604052919050565b600082601f830112620004aa57600080fd5b81356001600160401b03811115620004c657620004c66200044f565b620004db601f8201601f191660200162000465565b818152846020838601011115620004f157600080fd5b816020850160208301376000918101602001919091529392505050565b600082601f8301126200052057600080fd5b813560206001600160401b03808311156200053f576200053f6200044f565b8260051b6200055083820162000465565b93845285810183019383810190888611156200056b57600080fd5b84880192505b85831015620005ac578235848111156200058b5760008081fd5b6200059b8a87838c010162000498565b835250918401919084019062000571565b98975050505050505050565b6000806000806000806000806000806000806101808d8f031215620005dc57600080fd5b6001600160401b038d351115620005f257600080fd5b620006018e8e358f0162000498565b9b506001600160401b0360208e013511156200061c57600080fd5b6200062e8e60208f01358f0162000498565b9a5060408d013599506001600160401b0360608e013511156200065057600080fd5b620006628e60608f01358f016200050e565b98506001600160401b0360808e013511156200067d57600080fd5b6200068f8e60808f01358f016200050e565b97506001600160401b0360a08e01351115620006aa57600080fd5b620006bc8e60a08f01358f0162000498565b96506001600160401b0360c08e01351115620006d757600080fd5b620006e98e60c08f01358f0162000498565b95506001600160401b0360e08e013511156200070457600080fd5b620007168e60e08f01358f0162000498565b94506101008d013593506101208d013592506001600160401b036101408e013511156200074257600080fd5b620007558e6101408f01358f0162000498565b91506001600160401b036101608e013511156200077157600080fd5b620007848e6101608f01358f016200050e565b90509295989b509295989b509295989b565b80356001600160a01b0381168114620007ae57600080fd5b919050565b60008060008060808587031215620007ca57600080fd5b620007d58562000796565b9350620007e56020860162000796565b925060408501356001600160401b038111156200080157600080fd5b6200080f8782880162000498565b925050620008206060860162000796565b905092959194509250565b634e487b7160e01b600052603260045260246000fd5b6000815180845260005b8181101562000869576020818501810151868301820152016200084b565b818111156200087c576000602083870101525b50601f01601f19169290920160200192915050565b604081526000620008a6604083018562000841565b8281036020840152620008ba818562000841565b95945050505050565b634e487b7160e01b600052601160045260246000fd5b600082821015620008ee57620008ee620008c3565b500390565b60008219821115620009095762000909620008c3565b500190565b60e0815260006200092360e083018a62000841565b88602084015282810360408401526200093d818962000841565b9050828103606084015262000953818862000841565b90508560808401528460a084015282810360c084015262000975818562000841565b9a9950505050505050505050565b600060018060a01b03808616835260606020840152620009a7606084018662000841565b9150808416604084015250949350505050565b600060208284031215620009cd57600080fd5b5051919050565b600060018060a01b03808716835285602084015260806040840152620009fe608084018662000841565b915080841660608401525095945050505050565b60808152600062000a27608083018762000841565b828103602084015262000a3b818762000841565b9050828103604084015262000a51818662000841565b91505060018060a01b038316606083015295945050505050565b60006001820162000a805762000a80620008c3565b506001019056fe6101406040523480156200001257600080fd5b5060405162002a8338038062002a83833981016040819052620000359162000232565b6040805180820190915260018152603160f81b60208201528290818360006200005f83826200032b565b5060016200006e82826200032b565b5050825160209384012082519284019290922060e08390526101008190524660a0818152604080517f8b73c3c69bb8fe3d512ecc4cf759cc79239f7b179b0ffacaa9a75d522b39400f818901819052818301979097526060810194909452608080850193909352308483018190528151808603909301835260c09485019091528151919096012090529290925261012052506200010b3362000113565b5050620003f7565b600b80546001600160a01b038381166001600160a01b0319831681179093556040519116919082907f8be0079c531659141344cd1fd0a4f28419497f9722a3daafe3b4186f6b6457e090600090a35050565b634e487b7160e01b600052604160045260246000fd5b600082601f8301126200018d57600080fd5b81516001600160401b0380821115620001aa57620001aa62000165565b604051601f8301601f19908116603f01168101908282118183101715620001d557620001d562000165565b81604052838152602092508683858801011115620001f257600080fd5b600091505b83821015620002165785820183015181830184015290820190620001f7565b83821115620002285760008385830101525b9695505050505050565b600080604083850312156200024657600080fd5b82516001600160401b03808211156200025e57600080fd5b6200026c868387016200017b565b935060208501519150808211156200028357600080fd5b5062000292858286016200017b565b9150509250929050565b600181811c90821680620002b157607f821691505b602082108103620002d257634e487b7160e01b600052602260045260246000fd5b50919050565b601f8211156200032657600081815260208120601f850160051c81016020861015620003015750805b601f850160051c820191505b8181101562000322578281556001016200030d565b5050505b505050565b81516001600160401b0381111562000347576200034762000165565b6200035f816200035884546200029c565b84620002d8565b602080601f8311600181146200039757600084156200037e5750858301515b600019600386901b1c1916600185901b17855562000322565b600085815260208120601f198616915b82811015620003c857888601518255948401946001909101908401620003a7565b5085821015620003e75787850151600019600388901b60f8161c191681555b5050505050600190811b01905550565b60805160a05160c05160e051610100516101205161263c620004476000396000610e5401526000610ea301526000610e7e01526000610dd701526000610e0101526000610e2b015261263c6000f3fe608060405234801561001057600080fd5b506004361061018e5760003560e01c8063715018a6116100de578063a22cb46511610097578063c87b56dd11610071578063c87b56dd1461036a578063e31acdaa1461037d578063e985e9c514610390578063f2fde38b146103cc57600080fd5b8063a22cb46514610331578063b88d4fde14610344578063c3cda5201461035757600080fd5b8063715018a6146102d75780637ecebe00146102df5780638da5cb5b146102f25780638e539e8c1461030357806395d89b41146103165780639ab24eb01461031e57600080fd5b80633a46b1a81161014b5780635b193d07116101255780635b193d071461028b5780635c19a95c1461029e5780636352211e146102b157806370a08231146102c457600080fd5b80633a46b1a81461023957806342842e0e1461024c578063587cde1e1461025f57600080fd5b806301ffc9a71461019357806306fdde03146101bb578063081812fc146101d0578063095ea7b3146101fb57806323b872dd146102105780633644e51514610223575b600080fd5b6101a66101a1366004611ec2565b6103df565b60405190151581526020015b60405180910390f35b6101c3610431565b6040516101b29190611f37565b6101e36101de366004611f4a565b6104c3565b6040516001600160a01b0390911681526020016101b2565b61020e610209366004611f7f565b6104ea565b005b61020e61021e366004611fa9565b610604565b61022b610635565b6040519081526020016101b2565b61022b610247366004611f7f565b610644565b61020e61025a366004611fa9565b61066d565b6101e361026d366004611fe5565b6001600160a01b039081166000908152600660205260409020541690565b61022b6102993660046120ac565b610688565b61020e6102ac366004611fe5565b6106fa565b6101e36102bf366004611f4a565b610709565b61022b6102d2366004611fe5565b610769565b61020e6107ef565b61022b6102ed366004611fe5565b610803565b600b546001600160a01b03166101e3565b61022b610311366004611f4a565b610821565b6101c361087d565b61022b61032c366004611fe5565b61088c565b61020e61033f3660046120fa565b6108ad565b61020e610352366004612136565b6108b8565b61020e6103653660046121b2565b6108f0565b6101c3610378366004611f4a565b610a1d565b61022b61038b366004612212565b610a28565b6101a661039e366004612270565b6001600160a01b03918216600090815260056020908152604080832093909416825291909152205460ff1690565b61020e6103da366004611fe5565b610a6a565b60006001600160e01b031982166380ac58cd60e01b148061041057506001600160e01b03198216635b5e139f60e01b145b8061042b57506301ffc9a760e01b6001600160e01b03198316145b92915050565b606060008054610440906122a3565b80601f016020809104026020016040519081016040528092919081815260200182805461046c906122a3565b80156104b95780601f1061048e576101008083540402835291602001916104b9565b820191906000526020600020905b81548152906001019060200180831161049c57829003601f168201915b5050505050905090565b60006104ce82610ae3565b506000908152600460205260409020546001600160a01b031690565b60006104f582610709565b9050806001600160a01b0316836001600160a01b0316036105675760405162461bcd60e51b815260206004820152602160248201527f4552433732313a20617070726f76616c20746f2063757272656e74206f776e656044820152603960f91b60648201526084015b60405180910390fd5b336001600160a01b03821614806105835750610583813361039e565b6105f55760405162461bcd60e51b815260206004820152603e60248201527f4552433732313a20617070726f76652063616c6c6572206973206e6f7420746f60448201527f6b656e206f776e6572206e6f7220617070726f76656420666f7220616c6c0000606482015260840161055e565b6105ff8383610b42565b505050565b61060e3382610bb0565b61062a5760405162461bcd60e51b815260040161055e906122d7565b6105ff838383610c2e565b600061063f610dca565b905090565b6001600160a01b03821660009081526007602052604081206106669083610ef1565b9392505050565b6105ff838383604051806020016040528060008152506108b8565b600080610694600c5490565b90506106a08482611000565b6106aa8184611142565b6106b8600c80546001019055565b7f6996f2e898e7ae9923f3f8fdedf110592d3e2cafcb842205ee0b10768cca418d8482856040516106eb93929190612325565b60405180910390a19392505050565b3361070581836111d5565b5050565b6000818152600260205260408120546001600160a01b03168061042b5760405162461bcd60e51b8152602060048201526018602482015277115490cdcc8c4e881a5b9d985b1a59081d1bdad95b88125160421b604482015260640161055e565b60006001600160a01b0382166107d35760405162461bcd60e51b815260206004820152602960248201527f4552433732313a2061646472657373207a65726f206973206e6f7420612076616044820152683634b21037bbb732b960b91b606482015260840161055e565b506001600160a01b031660009081526003602052604090205490565b6107f7611247565b61080160006112a1565b565b6001600160a01b03811660009081526009602052604081205461042b565b60004382106108725760405162461bcd60e51b815260206004820152601a60248201527f566f7465733a20626c6f636b206e6f7420796574206d696e6564000000000000604482015260640161055e565b61042b600883610ef1565b606060018054610440906122a3565b6001600160a01b038116600090815260076020526040812061042b906112f3565b61070533838361134f565b6108c23383610bb0565b6108de5760405162461bcd60e51b815260040161055e906122d7565b6108ea8484848461141d565b50505050565b834211156109405760405162461bcd60e51b815260206004820152601860248201527f566f7465733a207369676e617475726520657870697265640000000000000000604482015260640161055e565b604080517fe48329057bfd03d55e49b547132e39cffd9c1820ad7b9d4c5307691425d15adf60208201526001600160a01b0388169181019190915260608101869052608081018590526000906109ba906109b29060a00160405160208183030381529060405280519060200120611450565b85858561149e565b90506109c5816114c6565b8614610a0a5760405162461bcd60e51b8152602060048201526014602482015273566f7465733a20696e76616c6964206e6f6e636560601b604482015260640161055e565b610a1481886111d5565b50505050505050565b606061042b826114ee565b600080610a34600c5490565b9050610a408582611000565b610a4a8185611142565b610a58600c80546001019055565b610a628382610b42565b949350505050565b610a72611247565b6001600160a01b038116610ad75760405162461bcd60e51b815260206004820152602660248201527f4f776e61626c653a206e6577206f776e657220697320746865207a65726f206160448201526564647265737360d01b606482015260840161055e565b610ae0816112a1565b50565b6000818152600260205260409020546001600160a01b0316610ae05760405162461bcd60e51b8152602060048201526018602482015277115490cdcc8c4e881a5b9d985b1a59081d1bdad95b88125160421b604482015260640161055e565b600081815260046020526040902080546001600160a01b0319166001600160a01b0384169081179091558190610b7782610709565b6001600160a01b03167f8c5be1e5ebec7d5bd14f71427d1e84f3dd0314c0f7b2291e5b200ac8c7c3b92560405160405180910390a45050565b600080610bbc83610709565b9050806001600160a01b0316846001600160a01b03161480610c0357506001600160a01b0380821660009081526005602090815260408083209388168352929052205460ff165b80610a625750836001600160a01b0316610c1c846104c3565b6001600160a01b031614949350505050565b826001600160a01b0316610c4182610709565b6001600160a01b031614610ca55760405162461bcd60e51b815260206004820152602560248201527f4552433732313a207472616e736665722066726f6d20696e636f72726563742060448201526437bbb732b960d91b606482015260840161055e565b6001600160a01b038216610d075760405162461bcd60e51b8152602060048201526024808201527f4552433732313a207472616e7366657220746f20746865207a65726f206164646044820152637265737360e01b606482015260840161055e565b610d12600082610b42565b6001600160a01b0383166000908152600360205260408120805460019290610d3b90849061236b565b90915550506001600160a01b0382166000908152600360205260408120805460019290610d69908490612382565b909155505060008181526002602052604080822080546001600160a01b0319166001600160a01b0386811691821790925591518493918716917fddf252ad1be2c89b69c2b068fc378daa952ba7f163c4a11628f55a4df523b3ef91a4505050565b6000306001600160a01b037f000000000000000000000000000000000000000000000000000000000000000016148015610e2357507f000000000000000000000000000000000000000000000000000000000000000046145b15610e4d57507f000000000000000000000000000000000000000000000000000000000000000090565b50604080517f00000000000000000000000000000000000000000000000000000000000000006020808301919091527f0000000000000000000000000000000000000000000000000000000000000000828401527f000000000000000000000000000000000000000000000000000000000000000060608301524660808301523060a0808401919091528351808403909101815260c0909201909252805191012090565b6000438210610f425760405162461bcd60e51b815260206004820181905260248201527f436865636b706f696e74733a20626c6f636b206e6f7420796574206d696e6564604482015260640161055e565b825460005b81811015610fa7576000610f5b82846115f6565b905084866000018281548110610f7357610f7361239a565b60009182526020909120015463ffffffff161115610f9357809250610fa1565b610f9e816001612382565b91505b50610f47565b8115610feb5784610fb960018461236b565b81548110610fc957610fc961239a565b60009182526020909120015464010000000090046001600160e01b0316610fee565b60005b6001600160e01b031695945050505050565b6001600160a01b0382166110565760405162461bcd60e51b815260206004820181905260248201527f4552433732313a206d696e7420746f20746865207a65726f2061646472657373604482015260640161055e565b6000818152600260205260409020546001600160a01b0316156110bb5760405162461bcd60e51b815260206004820152601c60248201527f4552433732313a20746f6b656e20616c7265616479206d696e74656400000000604482015260640161055e565b6001600160a01b03821660009081526003602052604081208054600192906110e4908490612382565b909155505060008181526002602052604080822080546001600160a01b0319166001600160a01b03861690811790915590518392907fddf252ad1be2c89b69c2b068fc378daa952ba7f163c4a11628f55a4df523b3ef908290a45050565b6000828152600260205260409020546001600160a01b03166111bd5760405162461bcd60e51b815260206004820152602e60248201527f45524337323155524953746f726167653a2055524920736574206f66206e6f6e60448201526d32bc34b9ba32b73a103a37b5b2b760911b606482015260840161055e565b6000828152600a602052604090206105ff82826123fe565b6001600160a01b0382811660008181526006602052604080822080548686166001600160a01b0319821681179092559151919094169392849290917f3134e8a2e6d97e929a7e54011ea5485d7d196dd5f0ba4d4ef95803e8e3fc257f9190a46105ff818361124286611611565b61161c565b600b546001600160a01b031633146108015760405162461bcd60e51b815260206004820181905260248201527f4f776e61626c653a2063616c6c6572206973206e6f7420746865206f776e6572604482015260640161055e565b600b80546001600160a01b038381166001600160a01b0319831681179093556040519116919082907f8be0079c531659141344cd1fd0a4f28419497f9722a3daafe3b4186f6b6457e090600090a35050565b8054600090801561133c578261130a60018361236b565b8154811061131a5761131a61239a565b60009182526020909120015464010000000090046001600160e01b031661133f565b60005b6001600160e01b03169392505050565b816001600160a01b0316836001600160a01b0316036113b05760405162461bcd60e51b815260206004820152601960248201527f4552433732313a20617070726f766520746f2063616c6c657200000000000000604482015260640161055e565b6001600160a01b03838116600081815260056020908152604080832094871680845294825291829020805460ff191686151590811790915591519182527f17307eab39ab6107e8899845ad3d59bd9653f200f220920489ca2b5937696c31910160405180910390a3505050565b611428848484610c2e565b61143484848484611759565b6108ea5760405162461bcd60e51b815260040161055e906124be565b600061042b61145d610dca565b8360405161190160f01b6020820152602281018390526042810182905260009060620160405160208183030381529060405280519060200120905092915050565b60008060006114af87878787611857565b915091506114bc81611944565b5095945050505050565b6001600160a01b03811660009081526009602052604090208054600181018255905b50919050565b60606114f982610ae3565b6000828152600a602052604081208054611512906122a3565b80601f016020809104026020016040519081016040528092919081815260200182805461153e906122a3565b801561158b5780601f106115605761010080835404028352916020019161158b565b820191906000526020600020905b81548152906001019060200180831161156e57829003601f168201915b5050505050905060006115a960408051602081019091526000815290565b905080516000036115bb575092915050565b8151156115ed5780826040516020016115d5929190612510565b60405160208183030381529060405292505050919050565b610a6284611afa565b60006116056002848418612555565b61066690848416612382565b600061042b82610769565b816001600160a01b0316836001600160a01b03161415801561163e5750600081115b156105ff576001600160a01b038316156116cc576001600160a01b0383166000908152600760205260408120819061167990611b6d85611b79565b91509150846001600160a01b03167fdec2bacdd2f05b59de34da9b523dff8be42e5e38e818c82fdb0bae774387a72483836040516116c1929190918252602082015260400190565b60405180910390a250505b6001600160a01b038216156105ff576001600160a01b0382166000908152600760205260408120819061170290611ba785611b79565b91509150836001600160a01b03167fdec2bacdd2f05b59de34da9b523dff8be42e5e38e818c82fdb0bae774387a724838360405161174a929190918252602082015260400190565b60405180910390a25050505050565b60006001600160a01b0384163b1561184f57604051630a85bd0160e11b81526001600160a01b0385169063150b7a029061179d903390899088908890600401612569565b6020604051808303816000875af19250505080156117d8575060408051601f3d908101601f191682019092526117d5918101906125a6565b60015b611835573d808015611806576040519150601f19603f3d011682016040523d82523d6000602084013e61180b565b606091505b50805160000361182d5760405162461bcd60e51b815260040161055e906124be565b805181602001fd5b6001600160e01b031916630a85bd0160e11b149050610a62565b506001610a62565b6000807f7fffffffffffffffffffffffffffffff5d576e7357a4501ddfe92f46681b20a083111561188e575060009050600361193b565b8460ff16601b141580156118a657508460ff16601c14155b156118b7575060009050600461193b565b6040805160008082526020820180845289905260ff881692820192909252606081018690526080810185905260019060a0016020604051602081039080840390855afa15801561190b573d6000803e3d6000fd5b5050604051601f1901519150506001600160a01b0381166119345760006001925092505061193b565b9150600090505b94509492505050565b6000816004811115611958576119586125c3565b036119605750565b6001816004811115611974576119746125c3565b036119c15760405162461bcd60e51b815260206004820152601860248201527f45434453413a20696e76616c6964207369676e61747572650000000000000000604482015260640161055e565b60028160048111156119d5576119d56125c3565b03611a225760405162461bcd60e51b815260206004820152601f60248201527f45434453413a20696e76616c6964207369676e6174757265206c656e67746800604482015260640161055e565b6003816004811115611a3657611a366125c3565b03611a8e5760405162461bcd60e51b815260206004820152602260248201527f45434453413a20696e76616c6964207369676e6174757265202773272076616c604482015261756560f01b606482015260840161055e565b6004816004811115611aa257611aa26125c3565b03610ae05760405162461bcd60e51b815260206004820152602260248201527f45434453413a20696e76616c6964207369676e6174757265202776272076616c604482015261756560f01b606482015260840161055e565b6060611b0582610ae3565b6000611b1c60408051602081019091526000815290565b90506000815111611b3c5760405180602001604052806000815250610666565b80611b4684611bb3565b604051602001611b57929190612510565b6040516020818303038152906040529392505050565b6000610666828461236b565b600080611b9b85611b96611b8c886112f3565b868863ffffffff16565b611cb4565b91509150935093915050565b60006106668284612382565b606081600003611bda5750506040805180820190915260018152600360fc1b602082015290565b8160005b8115611c045780611bee816125d9565b9150611bfd9050600a83612555565b9150611bde565b60008167ffffffffffffffff811115611c1f57611c1f612000565b6040519080825280601f01601f191660200182016040528015611c49576020820181803683370190505b5090505b8415610a6257611c5e60018361236b565b9150611c6b600a866125f2565b611c76906030612382565b60f81b818381518110611c8b57611c8b61239a565b60200101906001600160f81b031916908160001a905350611cad600a86612555565b9450611c4d565b8154600090819081611cc5866112f3565b9050600082118015611d0357504386611cdf60018561236b565b81548110611cef57611cef61239a565b60009182526020909120015463ffffffff16145b15611d6357611d1185611dda565b86611d1d60018561236b565b81548110611d2d57611d2d61239a565b9060005260206000200160000160046101000a8154816001600160e01b0302191690836001600160e01b03160217905550611dd1565b856000016040518060400160405280611d7b43611e47565b63ffffffff168152602001611d8f88611dda565b6001600160e01b0390811690915282546001810184556000938452602093849020835194909301519091166401000000000263ffffffff909316929092179101555b95939450505050565b60006001600160e01b03821115611e435760405162461bcd60e51b815260206004820152602760248201527f53616665436173743a2076616c756520646f65736e27742066697420696e20326044820152663234206269747360c81b606482015260840161055e565b5090565b600063ffffffff821115611e435760405162461bcd60e51b815260206004820152602660248201527f53616665436173743a2076616c756520646f65736e27742066697420696e203360448201526532206269747360d01b606482015260840161055e565b6001600160e01b031981168114610ae057600080fd5b600060208284031215611ed457600080fd5b813561066681611eac565b60005b83811015611efa578181015183820152602001611ee2565b838111156108ea5750506000910152565b60008151808452611f23816020860160208601611edf565b601f01601f19169290920160200192915050565b6020815260006106666020830184611f0b565b600060208284031215611f5c57600080fd5b5035919050565b80356001600160a01b0381168114611f7a57600080fd5b919050565b60008060408385031215611f9257600080fd5b611f9b83611f63565b946020939093013593505050565b600080600060608486031215611fbe57600080fd5b611fc784611f63565b9250611fd560208501611f63565b9150604084013590509250925092565b600060208284031215611ff757600080fd5b61066682611f63565b634e487b7160e01b600052604160045260246000fd5b600067ffffffffffffffff8084111561203157612031612000565b604051601f8501601f19908116603f0116810190828211818310171561205957612059612000565b8160405280935085815286868601111561207257600080fd5b858560208301376000602087830101525050509392505050565b600082601f83011261209d57600080fd5b61066683833560208501612016565b600080604083850312156120bf57600080fd5b6120c883611f63565b9150602083013567ffffffffffffffff8111156120e457600080fd5b6120f08582860161208c565b9150509250929050565b6000806040838503121561210d57600080fd5b61211683611f63565b91506020830135801515811461212b57600080fd5b809150509250929050565b6000806000806080858703121561214c57600080fd5b61215585611f63565b935061216360208601611f63565b925060408501359150606085013567ffffffffffffffff81111561218657600080fd5b8501601f8101871361219757600080fd5b6121a687823560208401612016565b91505092959194509250565b60008060008060008060c087890312156121cb57600080fd5b6121d487611f63565b95506020870135945060408701359350606087013560ff811681146121f857600080fd5b9598949750929560808101359460a0909101359350915050565b60008060006060848603121561222757600080fd5b61223084611f63565b9250602084013567ffffffffffffffff81111561224c57600080fd5b6122588682870161208c565b92505061226760408501611f63565b90509250925092565b6000806040838503121561228357600080fd5b61228c83611f63565b915061229a60208401611f63565b90509250929050565b600181811c908216806122b757607f821691505b6020821081036114e857634e487b7160e01b600052602260045260246000fd5b6020808252602e908201527f4552433732313a2063616c6c6572206973206e6f7420746f6b656e206f776e6560408201526d1c881b9bdc88185c1c1c9bdd995960921b606082015260800190565b60018060a01b038416815282602082015260606040820152600061234c6060830184611f0b565b95945050505050565b634e487b7160e01b600052601160045260246000fd5b60008282101561237d5761237d612355565b500390565b6000821982111561239557612395612355565b500190565b634e487b7160e01b600052603260045260246000fd5b601f8211156105ff57600081815260208120601f850160051c810160208610156123d75750805b601f850160051c820191505b818110156123f6578281556001016123e3565b505050505050565b815167ffffffffffffffff81111561241857612418612000565b61242c8161242684546122a3565b846123b0565b602080601f83116001811461246157600084156124495750858301515b600019600386901b1c1916600185901b1785556123f6565b600085815260208120601f198616915b8281101561249057888601518255948401946001909101908401612471565b50858210156124ae5787850151600019600388901b60f8161c191681555b5050505050600190811b01905550565b60208082526032908201527f4552433732313a207472616e7366657220746f206e6f6e20455243373231526560408201527131b2b4bb32b91034b6b83632b6b2b73a32b960711b606082015260800190565b60008351612522818460208801611edf565b835190830190612536818360208801611edf565b01949350505050565b634e487b7160e01b600052601260045260246000fd5b6000826125645761256461253f565b500490565b6001600160a01b038581168252841660208201526040810183905260806060820181905260009061259c90830184611f0b565b9695505050505050565b6000602082840312156125b857600080fd5b815161066681611eac565b634e487b7160e01b600052602160045260246000fd5b6000600182016125eb576125eb612355565b5060010190565b6000826126015761260161253f565b50069056fea2646970667358221220c113ee162b3ff3aeabeb63857702218439b95ab8a47ae577c33f33675a75bcde64736f6c634300080f0033a26469706673582212206fde8e50195728de3f168bb7605f8a4e95398d45f2be4ef6654ad6d927d0292064736f6c634300080f0033",
  "bytecodeSha1": "df7e6ef0207b8daa3d866f08d2ca3add82f5ef6a",
  "compiler": {
    "evm_version": "istanbul",
    "optimizer": {
      "enabled": true,
      "runs": 200
    },
    "version": "0.8.15+commit.e14f2714"
  },
  "contractName": "DonatyNFTFactory",
  "language": "Solidity",
  "natspec": {
    "kind": "dev",
    "methods": {},
    "version": 1
  },
  "opcodes": "PUSH1 0x80 PUSH1 0x40 MSTORE CALLVALUE DUP1 ISZERO PUSH3 0x11 JUMPI PUSH1 0x0 DUP1 REVERT JUMPDEST POP PUSH1 0x4 CALLDATASIZE LT PUSH3 0x52 JUMPI PUSH1 0x0 CALLDATALOAD PUSH1 0xE0 SHR DUP1 PUSH4 0xBB4D82A EQ PUSH3 0x57 JUMPI DUP1 PUSH4 0x3562F1CF EQ PUSH3 0x8A JUMPI DUP1 PUSH4 0x62BCFF4C EQ PUSH3 0xA1 JUMPI DUP1 PUSH4 0x7BA406FB EQ PUSH3 0xBA JUMPI JUMPDEST PUSH1 0x0 DUP1 REVERT JUMPDEST PUSH3 0x6E PUSH3 0x68 CALLDATASIZE PUSH1 0x4 PUSH3 0x435 JUMP JUMPDEST PUSH3 0xD1 JUMP JUMPDEST PUSH1 0x40 MLOAD PUSH1 0x1 PUSH1 0x1 PUSH1 0xA0 SHL SUB SWAP1 SWAP2 AND DUP2 MSTORE PUSH1 0x20 ADD PUSH1 0x40 MLOAD DUP1 SWAP2 SUB SWAP1 RETURN JUMPDEST PUSH3 0x6E PUSH3 0x9B CALLDATASIZE PUSH1 0x4 PUSH3 0x435 JUMP JUMPDEST PUSH3 0xFC JUMP JUMPDEST PUSH3 0xB8 PUSH3 0xB2 CALLDATASIZE PUSH1 0x4 PUSH3 0x5B8 JUMP JUMPDEST PUSH3 0x12E JUMP JUMPDEST STOP JUMPDEST PUSH3 0xB8 PUSH3 0xCB CALLDATASIZE PUSH1 0x4 PUSH3 0x7B3 JUMP JUMPDEST PUSH3 0x26A JUMP JUMPDEST PUSH1 0x0 DUP2 DUP2 SLOAD DUP2 LT PUSH3 0xE2 JUMPI PUSH1 0x0 DUP1 REVERT JUMPDEST PUSH1 0x0 SWAP2 DUP3 MSTORE PUSH1 0x20 SWAP1 SWAP2 KECCAK256 ADD SLOAD PUSH1 0x1 PUSH1 0x1 PUSH1 0xA0 SHL SUB AND SWAP1 POP DUP2 JUMP JUMPDEST PUSH1 0x0 DUP1 DUP3 DUP2 SLOAD DUP2 LT PUSH3 0x113 JUMPI PUSH3 0x113 PUSH3 0x82B JUMP JUMPDEST PUSH1 0x0 SWAP2 DUP3 MSTORE PUSH1 0x20 SWAP1 SWAP2 KECCAK256 ADD SLOAD PUSH1 0x1 PUSH1 0x1 PUSH1 0xA0 SHL SUB AND SWAP3 SWAP2 POP POP JUMP JUMPDEST PUSH1 0x0 DUP13 DUP13 PUSH1 0x40 MLOAD PUSH3 0x140 SWAP1 PUSH3 0x427 JUMP JUMPDEST PUSH3 0x14D SWAP3 SWAP2 SWAP1 PUSH3 0x891 JUMP JUMPDEST PUSH1 0x40 MLOAD DUP1 SWAP2 SUB SWAP1 PUSH1 0x0 CREATE DUP1 ISZERO DUP1 ISZERO PUSH3 0x16A JUMPI RETURNDATASIZE PUSH1 0x0 DUP1 RETURNDATACOPY RETURNDATASIZE PUSH1 0x0 REVERT JUMPDEST POP PUSH1 0x0 DUP1 SLOAD PUSH1 0x1 DUP1 DUP3 ADD DUP4 SSTORE DUP3 DUP1 MSTORE PUSH32 0x290DECD9548B62A8D60345A988386FC84BA6BC95484008F6362F93160EF3E563 SWAP1 SWAP2 ADD DUP1 SLOAD PUSH1 0x1 PUSH1 0x1 PUSH1 0xA0 SHL SUB NOT AND PUSH1 0x1 PUSH1 0x1 PUSH1 0xA0 SHL SUB DUP6 AND OR SWAP1 SSTORE SWAP1 SLOAD SWAP2 SWAP3 POP PUSH3 0x1C6 SWAP2 PUSH3 0x8D9 JUMP JUMPDEST PUSH1 0x1 PUSH1 0x1 PUSH1 0xA0 SHL SUB DUP3 AND PUSH1 0x0 SWAP1 DUP2 MSTORE PUSH1 0x2 PUSH1 0x20 MSTORE PUSH1 0x40 SWAP1 KECCAK256 SSTORE PUSH1 0x1 DUP1 SLOAD PUSH3 0x1EE SWAP2 PUSH3 0x8F3 JUMP JUMPDEST PUSH1 0x1 DUP2 SWAP1 SSTORE POP DUP1 PUSH1 0x1 PUSH1 0x1 PUSH1 0xA0 SHL SUB AND CALLER PUSH1 0x1 PUSH1 0x1 PUSH1 0xA0 SHL SUB AND PUSH32 0xF25EB13B53BF4B1DD50CB8E95E5493D3C6CC32FC688ADAC3252519ED4ED2B3FC DUP11 DUP15 DUP12 DUP12 DUP12 DUP12 DUP12 PUSH1 0x40 MLOAD PUSH3 0x245 SWAP8 SWAP7 SWAP6 SWAP5 SWAP4 SWAP3 SWAP2 SWAP1 PUSH3 0x90E JUMP JUMPDEST PUSH1 0x40 MLOAD DUP1 SWAP2 SUB SWAP1 LOG3 PUSH3 0x25B DUP3 DUP12 DUP12 DUP5 PUSH3 0x36B JUMP JUMPDEST POP POP POP POP POP POP POP POP POP POP POP POP POP JUMP JUMPDEST PUSH1 0x1 PUSH1 0x1 PUSH1 0xA0 SHL SUB DUP5 AND PUSH1 0x0 SWAP1 DUP2 MSTORE PUSH1 0x2 PUSH1 0x20 MSTORE PUSH1 0x40 DUP2 KECCAK256 SLOAD DUP2 SLOAD SWAP1 SWAP2 SWAP1 DUP2 SWAP1 DUP4 SWAP1 DUP2 LT PUSH3 0x29D JUMPI PUSH3 0x29D PUSH3 0x82B JUMP JUMPDEST PUSH1 0x0 SWAP2 DUP3 MSTORE PUSH1 0x20 SWAP1 SWAP2 KECCAK256 ADD SLOAD PUSH1 0x40 MLOAD PUSH4 0x718D66D5 PUSH1 0xE1 SHL DUP2 MSTORE PUSH1 0x1 PUSH1 0x1 PUSH1 0xA0 SHL SUB SWAP1 SWAP2 AND SWAP1 PUSH4 0xE31ACDAA SWAP1 PUSH3 0x2DC SWAP1 DUP9 SWAP1 DUP9 SWAP1 DUP9 SWAP1 PUSH1 0x4 ADD PUSH3 0x983 JUMP JUMPDEST PUSH1 0x20 PUSH1 0x40 MLOAD DUP1 DUP4 SUB DUP2 PUSH1 0x0 DUP8 GAS CALL ISZERO DUP1 ISZERO PUSH3 0x2FC JUMPI RETURNDATASIZE PUSH1 0x0 DUP1 RETURNDATACOPY RETURNDATASIZE PUSH1 0x0 REVERT JUMPDEST POP POP POP POP PUSH1 0x40 MLOAD RETURNDATASIZE PUSH1 0x1F NOT PUSH1 0x1F DUP3 ADD AND DUP3 ADD DUP1 PUSH1 0x40 MSTORE POP DUP2 ADD SWAP1 PUSH3 0x322 SWAP2 SWAP1 PUSH3 0x9BA JUMP JUMPDEST SWAP1 POP PUSH32 0x74BC22E2331D4AAEA9CE96A083D1192CE0B3486B56FFF9825FADD7EFA2618036 DUP6 DUP3 DUP7 DUP10 PUSH1 0x40 MLOAD PUSH3 0x35B SWAP5 SWAP4 SWAP3 SWAP2 SWAP1 PUSH3 0x9D4 JUMP JUMPDEST PUSH1 0x40 MLOAD DUP1 SWAP2 SUB SWAP1 LOG1 POP POP POP POP POP POP JUMP JUMPDEST PUSH1 0x0 JUMPDEST DUP5 MLOAD DUP2 LT ISZERO PUSH3 0x420 JUMPI PUSH32 0x9D392E526D38B45593F12A32266B7C5023C24998BE36CD5FF6D7341FE7A923E5 DUP6 DUP3 DUP2 MLOAD DUP2 LT PUSH3 0x3AE JUMPI PUSH3 0x3AE PUSH3 0x82B JUMP JUMPDEST PUSH1 0x20 MUL PUSH1 0x20 ADD ADD MLOAD DUP6 DUP4 DUP2 MLOAD DUP2 LT PUSH3 0x3CB JUMPI PUSH3 0x3CB PUSH3 0x82B JUMP JUMPDEST PUSH1 0x20 MUL PUSH1 0x20 ADD ADD MLOAD DUP6 DUP5 DUP2 MLOAD DUP2 LT PUSH3 0x3E8 JUMPI PUSH3 0x3E8 PUSH3 0x82B JUMP JUMPDEST PUSH1 0x20 MUL PUSH1 0x20 ADD ADD MLOAD DUP6 PUSH1 0x40 MLOAD PUSH3 0x403 SWAP5 SWAP4 SWAP3 SWAP2 SWAP1 PUSH3 0xA12 JUMP JUMPDEST PUSH1 0x40 MLOAD DUP1 SWAP2 SUB SWAP1 LOG1 DUP1 PUSH3 0x417 DUP2 PUSH3 0xA6B JUMP JUMPDEST SWAP2 POP POP PUSH3 0x36E JUMP JUMPDEST POP POP POP POP POP JUMP JUMPDEST PUSH2 0x2A83 DUP1 PUSH3 0xA88 DUP4 CODECOPY ADD SWAP1 JUMP JUMPDEST PUSH1 0x0 PUSH1 0x20 DUP3 DUP5 SUB SLT ISZERO PUSH3 0x448 JUMPI PUSH1 0x0 DUP1 REVERT JUMPDEST POP CALLDATALOAD SWAP2 SWAP1 POP JUMP JUMPDEST PUSH4 0x4E487B71 PUSH1 0xE0 SHL PUSH1 0x0 MSTORE PUSH1 0x41 PUSH1 0x4 MSTORE PUSH1 0x24 PUSH1 0x0 REVERT JUMPDEST PUSH1 0x40 MLOAD PUSH1 0x1F DUP3 ADD PUSH1 0x1F NOT AND DUP2 ADD PUSH1 0x1 PUSH1 0x1 PUSH1 0x40 SHL SUB DUP2 GT DUP3 DUP3 LT OR ISZERO PUSH3 0x490 JUMPI PUSH3 0x490 PUSH3 0x44F JUMP JUMPDEST PUSH1 0x40 MSTORE SWAP2 SWAP1 POP JUMP JUMPDEST PUSH1 0x0 DUP3 PUSH1 0x1F DUP4 ADD SLT PUSH3 0x4AA JUMPI PUSH1 0x0 DUP1 REVERT JUMPDEST DUP2 CALLDATALOAD PUSH1 0x1 PUSH1 0x1 PUSH1 0x40 SHL SUB DUP2 GT ISZERO PUSH3 0x4C6 JUMPI PUSH3 0x4C6 PUSH3 0x44F JUMP JUMPDEST PUSH3 0x4DB PUSH1 0x1F DUP3 ADD PUSH1 0x1F NOT AND PUSH1 0x20 ADD PUSH3 0x465 JUMP JUMPDEST DUP2 DUP2 MSTORE DUP5 PUSH1 0x20 DUP4 DUP7 ADD ADD GT ISZERO PUSH3 0x4F1 JUMPI PUSH1 0x0 DUP1 REVERT JUMPDEST DUP2 PUSH1 0x20 DUP6 ADD PUSH1 0x20 DUP4 ADD CALLDATACOPY PUSH1 0x0 SWAP2 DUP2 ADD PUSH1 0x20 ADD SWAP2 SWAP1 SWAP2 MSTORE SWAP4 SWAP3 POP POP POP JUMP JUMPDEST PUSH1 0x0 DUP3 PUSH1 0x1F DUP4 ADD SLT PUSH3 0x520 JUMPI PUSH1 0x0 DUP1 REVERT JUMPDEST DUP2 CALLDATALOAD PUSH1 0x20 PUSH1 0x1 PUSH1 0x1 PUSH1 0x40 SHL SUB DUP1 DUP4 GT ISZERO PUSH3 0x53F JUMPI PUSH3 0x53F PUSH3 0x44F JUMP JUMPDEST DUP3 PUSH1 0x5 SHL PUSH3 0x550 DUP4 DUP3 ADD PUSH3 0x465 JUMP JUMPDEST SWAP4 DUP5 MSTORE DUP6 DUP2 ADD DUP4 ADD SWAP4 DUP4 DUP2 ADD SWAP1 DUP9 DUP7 GT ISZERO PUSH3 0x56B JUMPI PUSH1 0x0 DUP1 REVERT JUMPDEST DUP5 DUP9 ADD SWAP3 POP JUMPDEST DUP6 DUP4 LT ISZERO PUSH3 0x5AC JUMPI DUP3 CALLDATALOAD DUP5 DUP2 GT ISZERO PUSH3 0x58B JUMPI PUSH1 0x0 DUP1 DUP2 REVERT JUMPDEST PUSH3 0x59B DUP11 DUP8 DUP4 DUP13 ADD ADD PUSH3 0x498 JUMP JUMPDEST DUP4 MSTORE POP SWAP2 DUP5 ADD SWAP2 SWAP1 DUP5 ADD SWAP1 PUSH3 0x571 JUMP JUMPDEST SWAP9 SWAP8 POP POP POP POP POP POP POP POP JUMP JUMPDEST PUSH1 0x0 DUP1 PUSH1 0x0 DUP1 PUSH1 0x0 DUP1 PUSH1 0x0 DUP1 PUSH1 0x0 DUP1 PUSH1 0x0 DUP1 PUSH2 0x180 DUP14 DUP16 SUB SLT ISZERO PUSH3 0x5DC JUMPI PUSH1 0x0 DUP1 REVERT JUMPDEST PUSH1 0x1 PUSH1 0x1 PUSH1 0x40 SHL SUB DUP14 CALLDATALOAD GT ISZERO PUSH3 0x5F2 JUMPI PUSH1 0x0 DUP1 REVERT JUMPDEST PUSH3 0x601 DUP15 DUP15 CALLDATALOAD DUP16 ADD PUSH3 0x498 JUMP JUMPDEST SWAP12 POP PUSH1 0x1 PUSH1 0x1 PUSH1 0x40 SHL SUB PUSH1 0x20 DUP15 ADD CALLDATALOAD GT ISZERO PUSH3 0x61C JUMPI PUSH1 0x0 DUP1 REVERT JUMPDEST PUSH3 0x62E DUP15 PUSH1 0x20 DUP16 ADD CALLDATALOAD DUP16 ADD PUSH3 0x498 JUMP JUMPDEST SWAP11 POP PUSH1 0x40 DUP14 ADD CALLDATALOAD SWAP10 POP PUSH1 0x1 PUSH1 0x1 PUSH1 0x40 SHL SUB PUSH1 0x60 DUP15 ADD CALLDATALOAD GT ISZERO PUSH3 0x650 JUMPI PUSH1 0x0 DUP1 REVERT JUMPDEST PUSH3 0x662 DUP15 PUSH1 0x60 DUP16 ADD CALLDATALOAD DUP16 ADD PUSH3 0x50E JUMP JUMPDEST SWAP9 POP PUSH1 0x1 PUSH1 0x1 PUSH1 0x40 SHL SUB PUSH1 0x80 DUP15 ADD CALLDATALOAD GT ISZERO PUSH3 0x67D JUMPI PUSH1 0x0 DUP1 REVERT JUMPDEST PUSH3 0x68F DUP15 PUSH1 0x80 DUP16 ADD CALLDATALOAD DUP16 ADD PUSH3 0x50E JUMP JUMPDEST SWAP8 POP PUSH1 0x1 PUSH1 0x1 PUSH1 0x40 SHL SUB PUSH1 0xA0 DUP15 ADD CALLDATALOAD GT ISZERO PUSH3 0x6AA JUMPI PUSH1 0x0 DUP1 REVERT JUMPDEST PUSH3 0x6BC DUP15 PUSH1 0xA0 DUP16 ADD CALLDATALOAD DUP16 ADD PUSH3 0x498 JUMP JUMPDEST SWAP7 POP PUSH1 0x1 PUSH1 0x1 PUSH1 0x40 SHL SUB PUSH1 0xC0 DUP15 ADD CALLDATALOAD GT ISZERO PUSH3 0x6D7 JUMPI PUSH1 0x0 DUP1 REVERT JUMPDEST PUSH3 0x6E9 DUP15 PUSH1 0xC0 DUP16 ADD CALLDATALOAD DUP16 ADD PUSH3 0x498 JUMP JUMPDEST SWAP6 POP PUSH1 0x1 PUSH1 0x1 PUSH1 0x40 SHL SUB PUSH1 0xE0 DUP15 ADD CALLDATALOAD GT ISZERO PUSH3 0x704 JUMPI PUSH1 0x0 DUP1 REVERT JUMPDEST PUSH3 0x716 DUP15 PUSH1 0xE0 DUP16 ADD CALLDATALOAD DUP16 ADD PUSH3 0x498 JUMP JUMPDEST SWAP5 POP PUSH2 0x100 DUP14 ADD CALLDATALOAD SWAP4 POP PUSH2 0x120 DUP14 ADD CALLDATALOAD SWAP3 POP PUSH1 0x1 PUSH1 0x1 PUSH1 0x40 SHL SUB PUSH2 0x140 DUP15 ADD CALLDATALOAD GT ISZERO PUSH3 0x742 JUMPI PUSH1 0x0 DUP1 REVERT JUMPDEST PUSH3 0x755 DUP15 PUSH2 0x140 DUP16 ADD CALLDATALOAD DUP16 ADD PUSH3 0x498 JUMP JUMPDEST SWAP2 POP PUSH1 0x1 PUSH1 0x1 PUSH1 0x40 SHL SUB PUSH2 0x160 DUP15 ADD CALLDATALOAD GT ISZERO PUSH3 0x771 JUMPI PUSH1 0x0 DUP1 REVERT JUMPDEST PUSH3 0x784 DUP15 PUSH2 0x160 DUP16 ADD CALLDATALOAD DUP16 ADD PUSH3 0x50E JUMP JUMPDEST SWAP1 POP SWAP3 SWAP6 SWAP9 SWAP12 POP SWAP3 SWAP6 SWAP9 SWAP12 POP SWAP3 SWAP6 SWAP9 SWAP12 JUMP JUMPDEST DUP1 CALLDATALOAD PUSH1 0x1 PUSH1 0x1 PUSH1 0xA0 SHL SUB DUP2 AND DUP2 EQ PUSH3 0x7AE JUMPI PUSH1 0x0 DUP1 REVERT JUMPDEST SWAP2 SWAP1 POP JUMP JUMPDEST PUSH1 0x0 DUP1 PUSH1 0x0 DUP1 PUSH1 0x80 DUP6 DUP8 SUB SLT ISZERO PUSH3 0x7CA JUMPI PUSH1 0x0 DUP1 REVERT JUMPDEST PUSH3 0x7D5 DUP6 PUSH3 0x796 JUMP JUMPDEST SWAP4 POP PUSH3 0x7E5 PUSH1 0x20 DUP7 ADD PUSH3 0x796 JUMP JUMPDEST SWAP3 POP PUSH1 0x40 DUP6 ADD CALLDATALOAD PUSH1 0x1 PUSH1 0x1 PUSH1 0x40 SHL SUB DUP2 GT ISZERO PUSH3 0x801 JUMPI PUSH1 0x0 DUP1 REVERT JUMPDEST PUSH3 0x80F DUP8 DUP3 DUP9 ADD PUSH3 0x498 JUMP JUMPDEST SWAP3 POP POP PUSH3 0x820 PUSH1 0x60 DUP7 ADD PUSH3 0x796 JUMP JUMPDEST SWAP1 POP SWAP3 SWAP6 SWAP2 SWAP5 POP SWAP3 POP JUMP JUMPDEST PUSH4 0x4E487B71 PUSH1 0xE0 SHL PUSH1 0x0 MSTORE PUSH1 0x32 PUSH1 0x4 MSTORE PUSH1 0x24 PUSH1 0x0 REVERT JUMPDEST PUSH1 0x0 DUP2 MLOAD DUP1 DUP5 MSTORE PUSH1 0x0 JUMPDEST DUP2 DUP2 LT ISZERO PUSH3 0x869 JUMPI PUSH1 0x20 DUP2 DUP6 ADD DUP2 ADD MLOAD DUP7 DUP4 ADD DUP3 ADD MSTORE ADD PUSH3 0x84B JUMP JUMPDEST DUP2 DUP2 GT ISZERO PUSH3 0x87C JUMPI PUSH1 0x0 PUSH1 0x20 DUP4 DUP8 ADD ADD MSTORE JUMPDEST POP PUSH1 0x1F ADD PUSH1 0x1F NOT AND SWAP3 SWAP1 SWAP3 ADD PUSH1 0x20 ADD SWAP3 SWAP2 POP POP JUMP JUMPDEST PUSH1 0x40 DUP2 MSTORE PUSH1 0x0 PUSH3 0x8A6 PUSH1 0x40 DUP4 ADD DUP6 PUSH3 0x841 JUMP JUMPDEST DUP3 DUP2 SUB PUSH1 0x20 DUP5 ADD MSTORE PUSH3 0x8BA DUP2 DUP6 PUSH3 0x841 JUMP JUMPDEST SWAP6 SWAP5 POP POP POP POP POP JUMP JUMPDEST PUSH4 0x4E487B71 PUSH1 0xE0 SHL PUSH1 0x0 MSTORE PUSH1 0x11 PUSH1 0x4 MSTORE PUSH1 0x24 PUSH1 0x0 REVERT JUMPDEST PUSH1 0x0 DUP3 DUP3 LT ISZERO PUSH3 0x8EE JUMPI PUSH3 0x8EE PUSH3 0x8C3 JUMP JUMPDEST POP SUB SWAP1 JUMP JUMPDEST PUSH1 0x0 DUP3 NOT DUP3 GT ISZERO PUSH3 0x909 JUMPI PUSH3 0x909 PUSH3 0x8C3 JUMP JUMPDEST POP ADD SWAP1 JUMP JUMPDEST PUSH1 0xE0 DUP2 MSTORE PUSH1 0x0 PUSH3 0x923 PUSH1 0xE0 DUP4 ADD DUP11 PUSH3 0x841 JUMP JUMPDEST DUP9 PUSH1 0x20 DUP5 ADD MSTORE DUP3 DUP2 SUB PUSH1 0x40 DUP5 ADD MSTORE PUSH3 0x93D DUP2 DUP10 PUSH3 0x841 JUMP JUMPDEST SWAP1 POP DUP3 DUP2 SUB PUSH1 0x60 DUP5 ADD MSTORE PUSH3 0x953 DUP2 DUP9 PUSH3 0x841 JUMP JUMPDEST SWAP1 POP DUP6 PUSH1 0x80 DUP5 ADD MSTORE DUP5 PUSH1 0xA0 DUP5 ADD MSTORE DUP3 DUP2 SUB PUSH1 0xC0 DUP5 ADD MSTORE PUSH3 0x975 DUP2 DUP6 PUSH3 0x841 JUMP JUMPDEST SWAP11 SWAP10 POP POP POP POP POP POP POP POP POP POP JUMP JUMPDEST PUSH1 0x0 PUSH1 0x1 DUP1 PUSH1 0xA0 SHL SUB DUP1 DUP7 AND DUP4 MSTORE PUSH1 0x60 PUSH1 0x20 DUP5 ADD MSTORE PUSH3 0x9A7 PUSH1 0x60 DUP5 ADD DUP7 PUSH3 0x841 JUMP JUMPDEST SWAP2 POP DUP1 DUP5 AND PUSH1 0x40 DUP5 ADD MSTORE POP SWAP5 SWAP4 POP POP POP POP JUMP JUMPDEST PUSH1 0x0 PUSH1 0x20 DUP3 DUP5 SUB SLT ISZERO PUSH3 0x9CD JUMPI PUSH1 0x0 DUP1 REVERT JUMPDEST POP MLOAD SWAP2 SWAP1 POP JUMP JUMPDEST PUSH1 0x0 PUSH1 0x1 DUP1 PUSH1 0xA0 SHL SUB DUP1 DUP8 AND DUP4 MSTORE DUP6 PUSH1 0x20 DUP5 ADD MSTORE PUSH1 0x80 PUSH1 0x40 DUP5 ADD MSTORE PUSH3 0x9FE PUSH1 0x80 DUP5 ADD DUP7 PUSH3 0x841 JUMP JUMPDEST SWAP2 POP DUP1 DUP5 AND PUSH1 0x60 DUP5 ADD MSTORE POP SWAP6 SWAP5 POP POP POP POP POP JUMP JUMPDEST PUSH1 0x80 DUP2 MSTORE PUSH1 0x0 PUSH3 0xA27 PUSH1 0x80 DUP4 ADD DUP8 PUSH3 0x841 JUMP JUMPDEST DUP3 DUP2 SUB PUSH1 0x20 DUP5 ADD MSTORE PUSH3 0xA3B DUP2 DUP8 PUSH3 0x841 JUMP JUMPDEST SWAP1 POP DUP3 DUP2 SUB PUSH1 0x40 DUP5 ADD MSTORE PUSH3 0xA51 DUP2 DUP7 PUSH3 0x841 JUMP JUMPDEST SWAP2 POP POP PUSH1 0x1 DUP1 PUSH1 0xA0 SHL SUB DUP4 AND PUSH1 0x60 DUP4 ADD MSTORE SWAP6 SWAP5 POP POP POP POP POP JUMP JUMPDEST PUSH1 0x0 PUSH1 0x1 DUP3 ADD PUSH3 0xA80 JUMPI PUSH3 0xA80 PUSH3 0x8C3 JUMP JUMPDEST POP PUSH1 0x1 ADD SWAP1 JUMP INVALID PUSH2 0x140 PUSH1 0x40 MSTORE CALLVALUE DUP1 ISZERO PUSH3 0x12 JUMPI PUSH1 0x0 DUP1 REVERT JUMPDEST POP PUSH1 0x40 MLOAD PUSH3 0x2A83 CODESIZE SUB DUP1 PUSH3 0x2A83 DUP4 CODECOPY DUP2 ADD PUSH1 0x40 DUP2 SWAP1 MSTORE PUSH3 0x35 SWAP2 PUSH3 0x232 JUMP JUMPDEST PUSH1 0x40 DUP1 MLOAD DUP1 DUP3 ADD SWAP1 SWAP2 MSTORE PUSH1 0x1 DUP2 MSTORE PUSH1 0x31 PUSH1 0xF8 SHL PUSH1 0x20 DUP3 ADD MSTORE DUP3 SWAP1 DUP2 DUP4 PUSH1 0x0 PUSH3 0x5F DUP4 DUP3 PUSH3 0x32B JUMP JUMPDEST POP PUSH1 0x1 PUSH3 0x6E DUP3 DUP3 PUSH3 0x32B JUMP JUMPDEST POP POP DUP3 MLOAD PUSH1 0x20 SWAP4 DUP5 ADD KECCAK256 DUP3 MLOAD SWAP3 DUP5 ADD SWAP3 SWAP1 SWAP3 KECCAK256 PUSH1 0xE0 DUP4 SWAP1 MSTORE PUSH2 0x100 DUP2 SWAP1 MSTORE CHAINID PUSH1 0xA0 DUP2 DUP2 MSTORE PUSH1 0x40 DUP1 MLOAD PUSH32 0x8B73C3C69BB8FE3D512ECC4CF759CC79239F7B179B0FFACAA9A75D522B39400F DUP2 DUP10 ADD DUP2 SWAP1 MSTORE DUP2 DUP4 ADD SWAP8 SWAP1 SWAP8 MSTORE PUSH1 0x60 DUP2 ADD SWAP5 SWAP1 SWAP5 MSTORE PUSH1 0x80 DUP1 DUP6 ADD SWAP4 SWAP1 SWAP4 MSTORE ADDRESS DUP5 DUP4 ADD DUP2 SWAP1 MSTORE DUP2 MLOAD DUP1 DUP7 SUB SWAP1 SWAP4 ADD DUP4 MSTORE PUSH1 0xC0 SWAP5 DUP6 ADD SWAP1 SWAP2 MSTORE DUP2 MLOAD SWAP2 SWAP1 SWAP7 ADD KECCAK256 SWAP1 MSTORE SWAP3 SWAP1 SWAP3 MSTORE PUSH2 0x120 MSTORE POP PUSH3 0x10B CALLER PUSH3 0x113 JUMP JUMPDEST POP POP PUSH3 0x3F7 JUMP JUMPDEST PUSH1 0xB DUP1 SLOAD PUSH1 0x1 PUSH1 0x1 PUSH1 0xA0 SHL SUB DUP4 DUP2 AND PUSH1 0x1 PUSH1 0x1 PUSH1 0xA0 SHL SUB NOT DUP4 AND DUP2 OR SWAP1 SWAP4 SSTORE PUSH1 0x40 MLOAD SWAP2 AND SWAP2 SWAP1 DUP3 SWAP1 PUSH32 0x8BE0079C531659141344CD1FD0A4F28419497F9722A3DAAFE3B4186F6B6457E0 SWAP1 PUSH1 0x0 SWAP1 LOG3 POP POP JUMP JUMPDEST PUSH4 0x4E487B71 PUSH1 0xE0 SHL PUSH1 0x0 MSTORE PUSH1 0x41 PUSH1 0x4 MSTORE PUSH1 0x24 PUSH1 0x0 REVERT JUMPDEST PUSH1 0x0 DUP3 PUSH1 0x1F DUP4 ADD SLT PUSH3 0x18D JUMPI PUSH1 0x0 DUP1 REVERT JUMPDEST DUP2 MLOAD PUSH1 0x1 PUSH1 0x1 PUSH1 0x40 SHL SUB DUP1 DUP3 GT ISZERO PUSH3 0x1AA JUMPI PUSH3 0x1AA PUSH3 0x165 JUMP JUMPDEST PUSH1 0x40 MLOAD PUSH1 0x1F DUP4 ADD PUSH1 0x1F NOT SWAP1 DUP2 AND PUSH1 0x3F ADD AND DUP2 ADD SWAP1 DUP3 DUP3 GT DUP2 DUP4 LT OR ISZERO PUSH3 0x1D5 JUMPI PUSH3 0x1D5 PUSH3 0x165 JUMP JUMPDEST DUP2 PUSH1 0x40 MSTORE DUP4 DUP2 MSTORE PUSH1 0x20 SWAP3 POP DUP7 DUP4 DUP6 DUP9 ADD ADD GT ISZERO PUSH3 0x1F2 JUMPI PUSH1 0x0 DUP1 REVERT JUMPDEST PUSH1 0x0 SWAP2 POP JUMPDEST DUP4 DUP3 LT ISZERO PUSH3 0x216 JUMPI DUP6 DUP3 ADD DUP4 ADD MLOAD DUP2 DUP4 ADD DUP5 ADD MSTORE SWAP1 DUP3 ADD SWAP1 PUSH3 0x1F7 JUMP JUMPDEST DUP4 DUP3 GT ISZERO PUSH3 0x228 JUMPI PUSH1 0x0 DUP4 DUP6 DUP4 ADD ADD MSTORE JUMPDEST SWAP7 SWAP6 POP POP POP POP POP POP JUMP JUMPDEST PUSH1 0x0 DUP1 PUSH1 0x40 DUP4 DUP6 SUB SLT ISZERO PUSH3 0x246 JUMPI PUSH1 0x0 DUP1 REVERT JUMPDEST DUP3 MLOAD PUSH1 0x1 PUSH1 0x1 PUSH1 0x40 SHL SUB DUP1 DUP3 GT ISZERO PUSH3 0x25E JUMPI PUSH1 0x0 DUP1 REVERT JUMPDEST PUSH3 0x26C DUP7 DUP4 DUP8 ADD PUSH3 0x17B JUMP JUMPDEST SWAP4 POP PUSH1 0x20 DUP6 ADD MLOAD SWAP2 POP DUP1 DUP3 GT ISZERO PUSH3 0x283 JUMPI PUSH1 0x0 DUP1 REVERT JUMPDEST POP PUSH3 0x292 DUP6 DUP3 DUP7 ADD PUSH3 0x17B JUMP JUMPDEST SWAP2 POP POP SWAP3 POP SWAP3 SWAP1 POP JUMP JUMPDEST PUSH1 0x1 DUP2 DUP2 SHR SWAP1 DUP3 AND DUP1 PUSH3 0x2B1 JUMPI PUSH1 0x7F DUP3 AND SWAP2 POP JUMPDEST PUSH1 0x20 DUP3 LT DUP2 SUB PUSH3 0x2D2 JUMPI PUSH4 0x4E487B71 PUSH1 0xE0 SHL PUSH1 0x0 MSTORE PUSH1 0x22 PUSH1 0x4 MSTORE PUSH1 0x24 PUSH1 0x0 REVERT JUMPDEST POP SWAP2 SWAP1 POP JUMP JUMPDEST PUSH1 0x1F DUP3 GT ISZERO PUSH3 0x326 JUMPI PUSH1 0x0 DUP2 DUP2 MSTORE PUSH1 0x20 DUP2 KECCAK256 PUSH1 0x1F DUP6 ADD PUSH1 0x5 SHR DUP2 ADD PUSH1 0x20 DUP7 LT ISZERO PUSH3 0x301 JUMPI POP DUP1 JUMPDEST PUSH1 0x1F DUP6 ADD PUSH1 0x5 SHR DUP3 ADD SWAP2 POP JUMPDEST DUP2 DUP2 LT ISZERO PUSH3 0x322 JUMPI DUP3 DUP2 SSTORE PUSH1 0x1 ADD PUSH3 0x30D JUMP JUMPDEST POP POP POP JUMPDEST POP POP POP JUMP JUMPDEST DUP2 MLOAD PUSH1 0x1 PUSH1 0x1 PUSH1 0x40 SHL SUB DUP2 GT ISZERO PUSH3 0x347 JUMPI PUSH3 0x347 PUSH3 0x165 JUMP JUMPDEST PUSH3 0x35F DUP2 PUSH3 0x358 DUP5 SLOAD PUSH3 0x29C JUMP JUMPDEST DUP5 PUSH3 0x2D8 JUMP JUMPDEST PUSH1 0x20 DUP1 PUSH1 0x1F DUP4 GT PUSH1 0x1 DUP2 EQ PUSH3 0x397 JUMPI PUSH1 0x0 DUP5 ISZERO PUSH3 0x37E JUMPI POP DUP6 DUP4 ADD MLOAD JUMPDEST PUSH1 0x0 NOT PUSH1 0x3 DUP7 SWAP1 SHL SHR NOT AND PUSH1 0x1 DUP6 SWAP1 SHL OR DUP6 SSTORE PUSH3 0x322 JUMP JUMPDEST PUSH1 0x0 DUP6 DUP2 MSTORE PUSH1 0x20 DUP2 KECCAK256 PUSH1 0x1F NOT DUP7 AND SWAP2 JUMPDEST DUP3 DUP2 LT ISZERO PUSH3 0x3C8 JUMPI DUP9 DUP7 ADD MLOAD DUP3 SSTORE SWAP5 DUP5 ADD SWAP5 PUSH1 0x1 SWAP1 SWAP2 ADD SWAP1 DUP5 ADD PUSH3 0x3A7 JUMP JUMPDEST POP DUP6 DUP3 LT ISZERO PUSH3 0x3E7 JUMPI DUP8 DUP6 ADD MLOAD PUSH1 0x0 NOT PUSH1 0x3 DUP9 SWAP1 SHL PUSH1 0xF8 AND SHR NOT AND DUP2 SSTORE JUMPDEST POP POP POP POP POP PUSH1 0x1 SWAP1 DUP2 SHL ADD SWAP1 SSTORE POP JUMP JUMPDEST PUSH1 0x80 MLOAD PUSH1 0xA0 MLOAD PUSH1 0xC0 MLOAD PUSH1 0xE0 MLOAD PUSH2 0x100 MLOAD PUSH2 0x120 MLOAD PUSH2 0x263C PUSH3 0x447 PUSH1 0x0 CODECOPY PUSH1 0x0 PUSH2 0xE54 ADD MSTORE PUSH1 0x0 PUSH2 0xEA3 ADD MSTORE PUSH1 0x0 PUSH2 0xE7E ADD MSTORE PUSH1 0x0 PUSH2 0xDD7 ADD MSTORE PUSH1 0x0 PUSH2 0xE01 ADD MSTORE PUSH1 0x0 PUSH2 0xE2B ADD MSTORE PUSH2 0x263C PUSH1 0x0 RETURN INVALID PUSH1 0x80 PUSH1 0x40 MSTORE CALLVALUE DUP1 ISZERO PUSH2 0x10 JUMPI PUSH1 0x0 DUP1 REVERT JUMPDEST POP PUSH1 0x4 CALLDATASIZE LT PUSH2 0x18E JUMPI PUSH1 0x0 CALLDATALOAD PUSH1 0xE0 SHR DUP1 PUSH4 0x715018A6 GT PUSH2 0xDE JUMPI DUP1 PUSH4 0xA22CB465 GT PUSH2 0x97 JUMPI DUP1 PUSH4 0xC87B56DD GT PUSH2 0x71 JUMPI DUP1 PUSH4 0xC87B56DD EQ PUSH2 0x36A JUMPI DUP1 PUSH4 0xE31ACDAA EQ PUSH2 0x37D JUMPI DUP1 PUSH4 0xE985E9C5 EQ PUSH2 0x390 JUMPI DUP1 PUSH4 0xF2FDE38B EQ PUSH2 0x3CC JUMPI PUSH1 0x0 DUP1 REVERT JUMPDEST DUP1 PUSH4 0xA22CB465 EQ PUSH2 0x331 JUMPI DUP1 PUSH4 0xB88D4FDE EQ PUSH2 0x344 JUMPI DUP1 PUSH4 0xC3CDA520 EQ PUSH2 0x357 JUMPI PUSH1 0x0 DUP1 REVERT JUMPDEST DUP1 PUSH4 0x715018A6 EQ PUSH2 0x2D7 JUMPI DUP1 PUSH4 0x7ECEBE00 EQ PUSH2 0x2DF JUMPI DUP1 PUSH4 0x8DA5CB5B EQ PUSH2 0x2F2 JUMPI DUP1 PUSH4 0x8E539E8C EQ PUSH2 0x303 JUMPI DUP1 PUSH4 0x95D89B41 EQ PUSH2 0x316 JUMPI DUP1 PUSH4 0x9AB24EB0 EQ PUSH2 0x31E JUMPI PUSH1 0x0 DUP1 REVERT JUMPDEST DUP1 PUSH4 0x3A46B1A8 GT PUSH2 0x14B JUMPI DUP1 PUSH4 0x5B193D07 GT PUSH2 0x125 JUMPI DUP1 PUSH4 0x5B193D07 EQ PUSH2 0x28B JUMPI DUP1 PUSH4 0x5C19A95C EQ PUSH2 0x29E JUMPI DUP1 PUSH4 0x6352211E EQ PUSH2 0x2B1 JUMPI DUP1 PUSH4 0x70A08231 EQ PUSH2 0x2C4 JUMPI PUSH1 0x0 DUP1 REVERT JUMPDEST DUP1 PUSH4 0x3A46B1A8 EQ PUSH2 0x239 JUMPI DUP1 PUSH4 0x42842E0E EQ PUSH2 0x24C JUMPI DUP1 PUSH4 0x587CDE1E EQ PUSH2 0x25F JUMPI PUSH1 0x0 DUP1 REVERT JUMPDEST DUP1 PUSH4 0x1FFC9A7 EQ PUSH2 0x193 JUMPI DUP1 PUSH4 0x6FDDE03 EQ PUSH2 0x1BB JUMPI DUP1 PUSH4 0x81812FC EQ PUSH2 0x1D0 JUMPI DUP1 PUSH4 0x95EA7B3 EQ PUSH2 0x1FB JUMPI DUP1 PUSH4 0x23B872DD EQ PUSH2 0x210 JUMPI DUP1 PUSH4 0x3644E515 EQ PUSH2 0x223 JUMPI JUMPDEST PUSH1 0x0 DUP1 REVERT JUMPDEST PUSH2 0x1A6 PUSH2 0x1A1 CALLDATASIZE PUSH1 0x4 PUSH2 0x1EC2 JUMP JUMPDEST PUSH2 0x3DF JUMP JUMPDEST PUSH1 0x40 MLOAD SWAP1 ISZERO ISZERO DUP2 MSTORE PUSH1 0x20 ADD JUMPDEST PUSH1 0x40 MLOAD DUP1 SWAP2 SUB SWAP1 RETURN JUMPDEST PUSH2 0x1C3 PUSH2 0x431 JUMP JUMPDEST PUSH1 0x40 MLOAD PUSH2 0x1B2 SWAP2 SWAP1 PUSH2 0x1F37 JUMP JUMPDEST PUSH2 0x1E3 PUSH2 0x1DE CALLDATASIZE PUSH1 0x4 PUSH2 0x1F4A JUMP JUMPDEST PUSH2 0x4C3 JUMP JUMPDEST PUSH1 0x40 MLOAD PUSH1 0x1 PUSH1 0x1 PUSH1 0xA0 SHL SUB SWAP1 SWAP2 AND DUP2 MSTORE PUSH1 0x20 ADD PUSH2 0x1B2 JUMP JUMPDEST PUSH2 0x20E PUSH2 0x209 CALLDATASIZE PUSH1 0x4 PUSH2 0x1F7F JUMP JUMPDEST PUSH2 0x4EA JUMP JUMPDEST STOP JUMPDEST PUSH2 0x20E PUSH2 0x21E CALLDATASIZE PUSH1 0x4 PUSH2 0x1FA9 JUMP JUMPDEST PUSH2 0x604 JUMP JUMPDEST PUSH2 0x22B PUSH2 0x635 JUMP JUMPDEST PUSH1 0x40 MLOAD SWAP1 DUP2 MSTORE PUSH1 0x20 ADD PUSH2 0x1B2 JUMP JUMPDEST PUSH2 0x22B PUSH2 0x247 CALLDATASIZE PUSH1 0x4 PUSH2 0x1F7F JUMP JUMPDEST PUSH2 0x644 JUMP JUMPDEST PUSH2 0x20E PUSH2 0x25A CALLDATASIZE PUSH1 0x4 PUSH2 0x1FA9 JUMP JUMPDEST PUSH2 0x66D JUMP JUMPDEST PUSH2 0x1E3 PUSH2 0x26D CALLDATASIZE PUSH1 0x4 PUSH2 0x1FE5 JUMP JUMPDEST PUSH1 0x1 PUSH1 0x1 PUSH1 0xA0 SHL SUB SWAP1 DUP2 AND PUSH1 0x0 SWAP1 DUP2 MSTORE PUSH1 0x6 PUSH1 0x20 MSTORE PUSH1 0x40 SWAP1 KECCAK256 SLOAD AND SWAP1 JUMP JUMPDEST PUSH2 0x22B PUSH2 0x299 CALLDATASIZE PUSH1 0x4 PUSH2 0x20AC JUMP JUMPDEST PUSH2 0x688 JUMP JUMPDEST PUSH2 0x20E PUSH2 0x2AC CALLDATASIZE PUSH1 0x4 PUSH2 0x1FE5 JUMP JUMPDEST PUSH2 0x6FA JUMP JUMPDEST PUSH2 0x1E3 PUSH2 0x2BF CALLDATASIZE PUSH1 0x4 PUSH2 0x1F4A JUMP JUMPDEST PUSH2 0x709 JUMP JUMPDEST PUSH2 0x22B PUSH2 0x2D2 CALLDATASIZE PUSH1 0x4 PUSH2 0x1FE5 JUMP JUMPDEST PUSH2 0x769 JUMP JUMPDEST PUSH2 0x20E PUSH2 0x7EF JUMP JUMPDEST PUSH2 0x22B PUSH2 0x2ED CALLDATASIZE PUSH1 0x4 PUSH2 0x1FE5 JUMP JUMPDEST PUSH2 0x803 JUMP JUMPDEST PUSH1 0xB SLOAD PUSH1 0x1 PUSH1 0x1 PUSH1 0xA0 SHL SUB AND PUSH2 0x1E3 JUMP JUMPDEST PUSH2 0x22B PUSH2 0x311 CALLDATASIZE PUSH1 0x4 PUSH2 0x1F4A JUMP JUMPDEST PUSH2 0x821 JUMP JUMPDEST PUSH2 0x1C3 PUSH2 0x87D JUMP JUMPDEST PUSH2 0x22B PUSH2 0x32C CALLDATASIZE PUSH1 0x4 PUSH2 0x1FE5 JUMP JUMPDEST PUSH2 0x88C JUMP JUMPDEST PUSH2 0x20E PUSH2 0x33F CALLDATASIZE PUSH1 0x4 PUSH2 0x20FA JUMP JUMPDEST PUSH2 0x8AD JUMP JUMPDEST PUSH2 0x20E PUSH2 0x352 CALLDATASIZE PUSH1 0x4 PUSH2 0x2136 JUMP JUMPDEST PUSH2 0x8B8 JUMP JUMPDEST PUSH2 0x20E PUSH2 0x365 CALLDATASIZE PUSH1 0x4 PUSH2 0x21B2 JUMP JUMPDEST PUSH2 0x8F0 JUMP JUMPDEST PUSH2 0x1C3 PUSH2 0x378 CALLDATASIZE PUSH1 0x4 PUSH2 0x1F4A JUMP JUMPDEST PUSH2 0xA1D JUMP JUMPDEST PUSH2 0x22B PUSH2 0x38B CALLDATASIZE PUSH1 0x4 PUSH2 0x2212 JUMP JUMPDEST PUSH2 0xA28 JUMP JUMPDEST PUSH2 0x1A6 PUSH2 0x39E CALLDATASIZE PUSH1 0x4 PUSH2 0x2270 JUMP JUMPDEST PUSH1 0x1 PUSH1 0x1 PUSH1 0xA0 SHL SUB SWAP2 DUP3 AND PUSH1 0x0 SWAP1 DUP2 MSTORE PUSH1 0x5 PUSH1 0x20 SWAP1 DUP2 MSTORE PUSH1 0x40 DUP1 DUP4 KECCAK256 SWAP4 SWAP1 SWAP5 AND DUP3 MSTORE SWAP2 SWAP1 SWAP2 MSTORE KECCAK256 SLOAD PUSH1 0xFF AND SWAP1 JUMP JUMPDEST PUSH2 0x20E PUSH2 0x3DA CALLDATASIZE PUSH1 0x4 PUSH2 0x1FE5 JUMP JUMPDEST PUSH2 0xA6A JUMP JUMPDEST PUSH1 0x0 PUSH1 0x1 PUSH1 0x1 PUSH1 0xE0 SHL SUB NOT DUP3 AND PUSH4 0x80AC58CD PUSH1 0xE0 SHL EQ DUP1 PUSH2 0x410 JUMPI POP PUSH1 0x1 PUSH1 0x1 PUSH1 0xE0 SHL SUB NOT DUP3 AND PUSH4 0x5B5E139F PUSH1 0xE0 SHL EQ JUMPDEST DUP1 PUSH2 0x42B JUMPI POP PUSH4 0x1FFC9A7 PUSH1 0xE0 SHL PUSH1 0x1 PUSH1 0x1 PUSH1 0xE0 SHL SUB NOT DUP4 AND EQ JUMPDEST SWAP3 SWAP2 POP POP JUMP JUMPDEST PUSH1 0x60 PUSH1 0x0 DUP1 SLOAD PUSH2 0x440 SWAP1 PUSH2 0x22A3 JUMP JUMPDEST DUP1 PUSH1 0x1F ADD PUSH1 0x20 DUP1 SWAP2 DIV MUL PUSH1 0x20 ADD PUSH1 0x40 MLOAD SWAP1 DUP2 ADD PUSH1 0x40 MSTORE DUP1 SWAP3 SWAP2 SWAP1 DUP2 DUP2 MSTORE PUSH1 0x20 ADD DUP3 DUP1 SLOAD PUSH2 0x46C SWAP1 PUSH2 0x22A3 JUMP JUMPDEST DUP1 ISZERO PUSH2 0x4B9 JUMPI DUP1 PUSH1 0x1F LT PUSH2 0x48E JUMPI PUSH2 0x100 DUP1 DUP4 SLOAD DIV MUL DUP4 MSTORE SWAP2 PUSH1 0x20 ADD SWAP2 PUSH2 0x4B9 JUMP JUMPDEST DUP3 ADD SWAP2 SWAP1 PUSH1 0x0 MSTORE PUSH1 0x20 PUSH1 0x0 KECCAK256 SWAP1 JUMPDEST DUP2 SLOAD DUP2 MSTORE SWAP1 PUSH1 0x1 ADD SWAP1 PUSH1 0x20 ADD DUP1 DUP4 GT PUSH2 0x49C JUMPI DUP3 SWAP1 SUB PUSH1 0x1F AND DUP3 ADD SWAP2 JUMPDEST POP POP POP POP POP SWAP1 POP SWAP1 JUMP JUMPDEST PUSH1 0x0 PUSH2 0x4CE DUP3 PUSH2 0xAE3 JUMP JUMPDEST POP PUSH1 0x0 SWAP1 DUP2 MSTORE PUSH1 0x4 PUSH1 0x20 MSTORE PUSH1 0x40 SWAP1 KECCAK256 SLOAD PUSH1 0x1 PUSH1 0x1 PUSH1 0xA0 SHL SUB AND SWAP1 JUMP JUMPDEST PUSH1 0x0 PUSH2 0x4F5 DUP3 PUSH2 0x709 JUMP JUMPDEST SWAP1 POP DUP1 PUSH1 0x1 PUSH1 0x1 PUSH1 0xA0 SHL SUB AND DUP4 PUSH1 0x1 PUSH1 0x1 PUSH1 0xA0 SHL SUB AND SUB PUSH2 0x567 JUMPI PUSH1 0x40 MLOAD PUSH3 0x461BCD PUSH1 0xE5 SHL DUP2 MSTORE PUSH1 0x20 PUSH1 0x4 DUP3 ADD MSTORE PUSH1 0x21 PUSH1 0x24 DUP3 ADD MSTORE PUSH32 0x4552433732313A20617070726F76616C20746F2063757272656E74206F776E65 PUSH1 0x44 DUP3 ADD MSTORE PUSH1 0x39 PUSH1 0xF9 SHL PUSH1 0x64 DUP3 ADD MSTORE PUSH1 0x84 ADD JUMPDEST PUSH1 0x40 MLOAD DUP1 SWAP2 SUB SWAP1 REVERT JUMPDEST CALLER PUSH1 0x1 PUSH1 0x1 PUSH1 0xA0 SHL SUB DUP3 AND EQ DUP1 PUSH2 0x583 JUMPI POP PUSH2 0x583 DUP2 CALLER PUSH2 0x39E JUMP JUMPDEST PUSH2 0x5F5 JUMPI PUSH1 0x40 MLOAD PUSH3 0x461BCD PUSH1 0xE5 SHL DUP2 MSTORE PUSH1 0x20 PUSH1 0x4 DUP3 ADD MSTORE PUSH1 0x3E PUSH1 0x24 DUP3 ADD MSTORE PUSH32 0x4552433732313A20617070726F76652063616C6C6572206973206E6F7420746F PUSH1 0x44 DUP3 ADD MSTORE PUSH32 0x6B656E206F776E6572206E6F7220617070726F76656420666F7220616C6C0000 PUSH1 0x64 DUP3 ADD MSTORE PUSH1 0x84 ADD PUSH2 0x55E JUMP JUMPDEST PUSH2 0x5FF DUP4 DUP4 PUSH2 0xB42 JUMP JUMPDEST POP POP POP JUMP JUMPDEST PUSH2 0x60E CALLER DUP3 PUSH2 0xBB0 JUMP JUMPDEST PUSH2 0x62A JUMPI PUSH1 0x40 MLOAD PUSH3 0x461BCD PUSH1 0xE5 SHL DUP2 MSTORE PUSH1 0x4 ADD PUSH2 0x55E SWAP1 PUSH2 0x22D7 JUMP JUMPDEST PUSH2 0x5FF DUP4 DUP4 DUP4 PUSH2 0xC2E JUMP JUMPDEST PUSH1 0x0 PUSH2 0x63F PUSH2 0xDCA JUMP JUMPDEST SWAP1 POP SWAP1 JUMP JUMPDEST PUSH1 0x1 PUSH1 0x1 PUSH1 0xA0 SHL SUB DUP3 AND PUSH1 0x0 SWAP1 DUP2 MSTORE PUSH1 0x7 PUSH1 0x20 MSTORE PUSH1 0x40 DUP2 KECCAK256 PUSH2 0x666 SWAP1 DUP4 PUSH2 0xEF1 JUMP JUMPDEST SWAP4 SWAP3 POP POP POP JUMP JUMPDEST PUSH2 0x5FF DUP4 DUP4 DUP4 PUSH1 0x40 MLOAD DUP1 PUSH1 0x20 ADD PUSH1 0x40 MSTORE DUP1 PUSH1 0x0 DUP2 MSTORE POP PUSH2 0x8B8 JUMP JUMPDEST PUSH1 0x0 DUP1 PUSH2 0x694 PUSH1 0xC SLOAD SWAP1 JUMP JUMPDEST SWAP1 POP PUSH2 0x6A0 DUP5 DUP3 PUSH2 0x1000 JUMP JUMPDEST PUSH2 0x6AA DUP2 DUP5 PUSH2 0x1142 JUMP JUMPDEST PUSH2 0x6B8 PUSH1 0xC DUP1 SLOAD PUSH1 0x1 ADD SWAP1 SSTORE JUMP JUMPDEST PUSH32 0x6996F2E898E7AE9923F3F8FDEDF110592D3E2CAFCB842205EE0B10768CCA418D DUP5 DUP3 DUP6 PUSH1 0x40 MLOAD PUSH2 0x6EB SWAP4 SWAP3 SWAP2 SWAP1 PUSH2 0x2325 JUMP JUMPDEST PUSH1 0x40 MLOAD DUP1 SWAP2 SUB SWAP1 LOG1 SWAP4 SWAP3 POP POP POP JUMP JUMPDEST CALLER PUSH2 0x705 DUP2 DUP4 PUSH2 0x11D5 JUMP JUMPDEST POP POP JUMP JUMPDEST PUSH1 0x0 DUP2 DUP2 MSTORE PUSH1 0x2 PUSH1 0x20 MSTORE PUSH1 0x40 DUP2 KECCAK256 SLOAD PUSH1 0x1 PUSH1 0x1 PUSH1 0xA0 SHL SUB AND DUP1 PUSH2 0x42B JUMPI PUSH1 0x40 MLOAD PUSH3 0x461BCD PUSH1 0xE5 SHL DUP2 MSTORE PUSH1 0x20 PUSH1 0x4 DUP3 ADD MSTORE PUSH1 0x18 PUSH1 0x24 DUP3 ADD MSTORE PUSH24 0x115490CDCC8C4E881A5B9D985B1A59081D1BDAD95B881251 PUSH1 0x42 SHL PUSH1 0x44 DUP3 ADD MSTORE PUSH1 0x64 ADD PUSH2 0x55E JUMP JUMPDEST PUSH1 0x0 PUSH1 0x1 PUSH1 0x1 PUSH1 0xA0 SHL SUB DUP3 AND PUSH2 0x7D3 JUMPI PUSH1 0x40 MLOAD PUSH3 0x461BCD PUSH1 0xE5 SHL DUP2 MSTORE PUSH1 0x20 PUSH1 0x4 DUP3 ADD MSTORE PUSH1 0x29 PUSH1 0x24 DUP3 ADD MSTORE PUSH32 0x4552433732313A2061646472657373207A65726F206973206E6F742061207661 PUSH1 0x44 DUP3 ADD MSTORE PUSH9 0x3634B21037BBB732B9 PUSH1 0xB9 SHL PUSH1 0x64 DUP3 ADD MSTORE PUSH1 0x84 ADD PUSH2 0x55E JUMP JUMPDEST POP PUSH1 0x1 PUSH1 0x1 PUSH1 0xA0 SHL SUB AND PUSH1 0x0 SWAP1 DUP2 MSTORE PUSH1 0x3 PUSH1 0x20 MSTORE PUSH1 0x40 SWAP1 KECCAK256 SLOAD SWAP1 JUMP JUMPDEST PUSH2 0x7F7 PUSH2 0x1247 JUMP JUMPDEST PUSH2 0x801 PUSH1 0x0 PUSH2 0x12A1 JUMP JUMPDEST JUMP JUMPDEST PUSH1 0x1 PUSH1 0x1 PUSH1 0xA0 SHL SUB DUP2 AND PUSH1 0x0 SWAP1 DUP2 MSTORE PUSH1 0x9 PUSH1 0x20 MSTORE PUSH1 0x40 DUP2 KECCAK256 SLOAD PUSH2 0x42B JUMP JUMPDEST PUSH1 0x0 NUMBER DUP3 LT PUSH2 0x872 JUMPI PUSH1 0x40 MLOAD PUSH3 0x461BCD PUSH1 0xE5 SHL DUP2 MSTORE PUSH1 0x20 PUSH1 0x4 DUP3 ADD MSTORE PUSH1 0x1A PUSH1 0x24 DUP3 ADD MSTORE PUSH32 0x566F7465733A20626C6F636B206E6F7420796574206D696E6564000000000000 PUSH1 0x44 DUP3 ADD MSTORE PUSH1 0x64 ADD PUSH2 0x55E JUMP JUMPDEST PUSH2 0x42B PUSH1 0x8 DUP4 PUSH2 0xEF1 JUMP JUMPDEST PUSH1 0x60 PUSH1 0x1 DUP1 SLOAD PUSH2 0x440 SWAP1 PUSH2 0x22A3 JUMP JUMPDEST PUSH1 0x1 PUSH1 0x1 PUSH1 0xA0 SHL SUB DUP2 AND PUSH1 0x0 SWAP1 DUP2 MSTORE PUSH1 0x7 PUSH1 0x20 MSTORE PUSH1 0x40 DUP2 KECCAK256 PUSH2 0x42B SWAP1 PUSH2 0x12F3 JUMP JUMPDEST PUSH2 0x705 CALLER DUP4 DUP4 PUSH2 0x134F JUMP JUMPDEST PUSH2 0x8C2 CALLER DUP4 PUSH2 0xBB0 JUMP JUMPDEST PUSH2 0x8DE JUMPI PUSH1 0x40 MLOAD PUSH3 0x461BCD PUSH1 0xE5 SHL DUP2 MSTORE PUSH1 0x4 ADD PUSH2 0x55E SWAP1 PUSH2 0x22D7 JUMP JUMPDEST PUSH2 0x8EA DUP5 DUP5 DUP5 DUP5 PUSH2 0x141D JUMP JUMPDEST POP POP POP POP JUMP JUMPDEST DUP4 TIMESTAMP GT ISZERO PUSH2 0x940 JUMPI PUSH1 0x40 MLOAD PUSH3 0x461BCD PUSH1 0xE5 SHL DUP2 MSTORE PUSH1 0x20 PUSH1 0x4 DUP3 ADD MSTORE PUSH1 0x18 PUSH1 0x24 DUP3 ADD MSTORE PUSH32 0x566F7465733A207369676E617475726520657870697265640000000000000000 PUSH1 0x44 DUP3 ADD MSTORE PUSH1 0x64 ADD PUSH2 0x55E JUMP JUMPDEST PUSH1 0x40 DUP1 MLOAD PUSH32 0xE48329057BFD03D55E49B547132E39CFFD9C1820AD7B9D4C5307691425D15ADF PUSH1 0x20 DUP3 ADD MSTORE PUSH1 0x1 PUSH1 0x1 PUSH1 0xA0 SHL SUB DUP9 AND SWAP2 DUP2 ADD SWAP2 SWAP1 SWAP2 MSTORE PUSH1 0x60 DUP2 ADD DUP7 SWAP1 MSTORE PUSH1 0x80 DUP2 ADD DUP6 SWAP1 MSTORE PUSH1 0x0 SWAP1 PUSH2 0x9BA SWAP1 PUSH2 0x9B2 SWAP1 PUSH1 0xA0 ADD PUSH1 0x40 MLOAD PUSH1 0x20 DUP2 DUP4 SUB SUB DUP2 MSTORE SWAP1 PUSH1 0x40 MSTORE DUP1 MLOAD SWAP1 PUSH1 0x20 ADD KECCAK256 PUSH2 0x1450 JUMP JUMPDEST DUP6 DUP6 DUP6 PUSH2 0x149E JUMP JUMPDEST SWAP1 POP PUSH2 0x9C5 DUP2 PUSH2 0x14C6 JUMP JUMPDEST DUP7 EQ PUSH2 0xA0A JUMPI PUSH1 0x40 MLOAD PUSH3 0x461BCD PUSH1 0xE5 SHL DUP2 MSTORE PUSH1 0x20 PUSH1 0x4 DUP3 ADD MSTORE PUSH1 0x14 PUSH1 0x24 DUP3 ADD MSTORE PUSH20 0x566F7465733A20696E76616C6964206E6F6E6365 PUSH1 0x60 SHL PUSH1 0x44 DUP3 ADD MSTORE PUSH1 0x64 ADD PUSH2 0x55E JUMP JUMPDEST PUSH2 0xA14 DUP2 DUP9 PUSH2 0x11D5 JUMP JUMPDEST POP POP POP POP POP POP POP JUMP JUMPDEST PUSH1 0x60 PUSH2 0x42B DUP3 PUSH2 0x14EE JUMP JUMPDEST PUSH1 0x0 DUP1 PUSH2 0xA34 PUSH1 0xC SLOAD SWAP1 JUMP JUMPDEST SWAP1 POP PUSH2 0xA40 DUP6 DUP3 PUSH2 0x1000 JUMP JUMPDEST PUSH2 0xA4A DUP2 DUP6 PUSH2 0x1142 JUMP JUMPDEST PUSH2 0xA58 PUSH1 0xC DUP1 SLOAD PUSH1 0x1 ADD SWAP1 SSTORE JUMP JUMPDEST PUSH2 0xA62 DUP4 DUP3 PUSH2 0xB42 JUMP JUMPDEST SWAP5 SWAP4 POP POP POP POP JUMP JUMPDEST PUSH2 0xA72 PUSH2 0x1247 JUMP JUMPDEST PUSH1 0x1 PUSH1 0x1 PUSH1 0xA0 SHL SUB DUP2 AND PUSH2 0xAD7 JUMPI PUSH1 0x40 MLOAD PUSH3 0x461BCD PUSH1 0xE5 SHL DUP2 MSTORE PUSH1 0x20 PUSH1 0x4 DUP3 ADD MSTORE PUSH1 0x26 PUSH1 0x24 DUP3 ADD MSTORE PUSH32 0x4F776E61626C653A206E6577206F776E657220697320746865207A65726F2061 PUSH1 0x44 DUP3 ADD MSTORE PUSH6 0x646472657373 PUSH1 0xD0 SHL PUSH1 0x64 DUP3 ADD MSTORE PUSH1 0x84 ADD PUSH2 0x55E JUMP JUMPDEST PUSH2 0xAE0 DUP2 PUSH2 0x12A1 JUMP JUMPDEST POP JUMP JUMPDEST PUSH1 0x0 DUP2 DUP2 MSTORE PUSH1 0x2 PUSH1 0x20 MSTORE PUSH1 0x40 SWAP1 KECCAK256 SLOAD PUSH1 0x1 PUSH1 0x1 PUSH1 0xA0 SHL SUB AND PUSH2 0xAE0 JUMPI PUSH1 0x40 MLOAD PUSH3 0x461BCD PUSH1 0xE5 SHL DUP2 MSTORE PUSH1 0x20 PUSH1 0x4 DUP3 ADD MSTORE PUSH1 0x18 PUSH1 0x24 DUP3 ADD MSTORE PUSH24 0x115490CDCC8C4E881A5B9D985B1A59081D1BDAD95B881251 PUSH1 0x42 SHL PUSH1 0x44 DUP3 ADD MSTORE PUSH1 0x64 ADD PUSH2 0x55E JUMP JUMPDEST PUSH1 0x0 DUP2 DUP2 MSTORE PUSH1 0x4 PUSH1 0x20 MSTORE PUSH1 0x40 SWAP1 KECCAK256 DUP1 SLOAD PUSH1 0x1 PUSH1 0x1 PUSH1 0xA0 SHL SUB NOT AND PUSH1 0x1 PUSH1 0x1 PUSH1 0xA0 SHL SUB DUP5 AND SWAP1 DUP2 OR SWAP1 SWAP2 SSTORE DUP2 SWAP1 PUSH2 0xB77 DUP3 PUSH2 0x709 JUMP JUMPDEST PUSH1 0x1 PUSH1 0x1 PUSH1 0xA0 SHL SUB AND PUSH32 0x8C5BE1E5EBEC7D5BD14F71427D1E84F3DD0314C0F7B2291E5B200AC8C7C3B925 PUSH1 0x40 MLOAD PUSH1 0x40 MLOAD DUP1 SWAP2 SUB SWAP1 LOG4 POP POP JUMP JUMPDEST PUSH1 0x0 DUP1 PUSH2 0xBBC DUP4 PUSH2 0x709 JUMP JUMPDEST SWAP1 POP DUP1 PUSH1 0x1 PUSH1 0x1 PUSH1 0xA0 SHL SUB AND DUP5 PUSH1 0x1 PUSH1 0x1 PUSH1 0xA0 SHL SUB AND EQ DUP1 PUSH2 0xC03 JUMPI POP PUSH1 0x1 PUSH1 0x1 PUSH1 0xA0 SHL SUB DUP1 DUP3 AND PUSH1 0x0 SWAP1 DUP2 MSTORE PUSH1 0x5 PUSH1 0x20 SWAP1 DUP2 MSTORE PUSH1 0x40 DUP1 DUP4 KECCAK256 SWAP4 DUP9 AND DUP4 MSTORE SWAP3 SWAP1 MSTORE KECCAK256 SLOAD PUSH1 0xFF AND JUMPDEST DUP1 PUSH2 0xA62 JUMPI POP DUP4 PUSH1 0x1 PUSH1 0x1 PUSH1 0xA0 SHL SUB AND PUSH2 0xC1C DUP5 PUSH2 0x4C3 JUMP JUMPDEST PUSH1 0x1 PUSH1 0x1 PUSH1 0xA0 SHL SUB AND EQ SWAP5 SWAP4 POP POP POP POP JUMP JUMPDEST DUP3 PUSH1 0x1 PUSH1 0x1 PUSH1 0xA0 SHL SUB AND PUSH2 0xC41 DUP3 PUSH2 0x709 JUMP JUMPDEST PUSH1 0x1 PUSH1 0x1 PUSH1 0xA0 SHL SUB AND EQ PUSH2 0xCA5 JUMPI PUSH1 0x40 MLOAD PUSH3 0x461BCD PUSH1 0xE5 SHL DUP2 MSTORE PUSH1 0x20 PUSH1 0x4 DUP3 ADD MSTORE PUSH1 0x25 PUSH1 0x24 DUP3 ADD MSTORE PUSH32 0x4552433732313A207472616E736665722066726F6D20696E636F727265637420 PUSH1 0x44 DUP3 ADD MSTORE PUSH5 0x37BBB732B9 PUSH1 0xD9 SHL PUSH1 0x64 DUP3 ADD MSTORE PUSH1 0x84 ADD PUSH2 0x55E JUMP JUMPDEST PUSH1 0x1 PUSH1 0x1 PUSH1 0xA0 SHL SUB DUP3 AND PUSH2 0xD07 JUMPI PUSH1 0x40 MLOAD PUSH3 0x461BCD PUSH1 0xE5 SHL DUP2 MSTORE PUSH1 0x20 PUSH1 0x4 DUP3 ADD MSTORE PUSH1 0x24 DUP1 DUP3 ADD MSTORE PUSH32 0x4552433732313A207472616E7366657220746F20746865207A65726F20616464 PUSH1 0x44 DUP3 ADD MSTORE PUSH4 0x72657373 PUSH1 0xE0 SHL PUSH1 0x64 DUP3 ADD MSTORE PUSH1 0x84 ADD PUSH2 0x55E JUMP JUMPDEST PUSH2 0xD12 PUSH1 0x0 DUP3 PUSH2 0xB42 JUMP JUMPDEST PUSH1 0x1 PUSH1 0x1 PUSH1 0xA0 SHL SUB DUP4 AND PUSH1 0x0 SWAP1 DUP2 MSTORE PUSH1 0x3 PUSH1 0x20 MSTORE PUSH1 0x40 DUP2 KECCAK256 DUP1 SLOAD PUSH1 0x1 SWAP3 SWAP1 PUSH2 0xD3B SWAP1 DUP5 SWAP1 PUSH2 0x236B JUMP JUMPDEST SWAP1 SWAP2 SSTORE POP POP PUSH1 0x1 PUSH1 0x1 PUSH1 0xA0 SHL SUB DUP3 AND PUSH1 0x0 SWAP1 DUP2 MSTORE PUSH1 0x3 PUSH1 0x20 MSTORE PUSH1 0x40 DUP2 KECCAK256 DUP1 SLOAD PUSH1 0x1 SWAP3 SWAP1 PUSH2 0xD69 SWAP1 DUP5 SWAP1 PUSH2 0x2382 JUMP JUMPDEST SWAP1 SWAP2 SSTORE POP POP PUSH1 0x0 DUP2 DUP2 MSTORE PUSH1 0x2 PUSH1 0x20 MSTORE PUSH1 0x40 DUP1 DUP3 KECCAK256 DUP1 SLOAD PUSH1 0x1 PUSH1 0x1 PUSH1 0xA0 SHL SUB NOT AND PUSH1 0x1 PUSH1 0x1 PUSH1 0xA0 SHL SUB DUP7 DUP2 AND SWAP2 DUP3 OR SWAP1 SWAP3 SSTORE SWAP2 MLOAD DUP5 SWAP4 SWAP2 DUP8 AND SWAP2 PUSH32 0xDDF252AD1BE2C89B69C2B068FC378DAA952BA7F163C4A11628F55A4DF523B3EF SWAP2 LOG4 POP POP POP JUMP JUMPDEST PUSH1 0x0 ADDRESS PUSH1 0x1 PUSH1 0x1 PUSH1 0xA0 SHL SUB PUSH32 0x0 AND EQ DUP1 ISZERO PUSH2 0xE23 JUMPI POP PUSH32 0x0 CHAINID EQ JUMPDEST ISZERO PUSH2 0xE4D JUMPI POP PUSH32 0x0 SWAP1 JUMP JUMPDEST POP PUSH1 0x40 DUP1 MLOAD PUSH32 0x0 PUSH1 0x20 DUP1 DUP4 ADD SWAP2 SWAP1 SWAP2 MSTORE PUSH32 0x0 DUP3 DUP5 ADD MSTORE PUSH32 0x0 PUSH1 0x60 DUP4 ADD MSTORE CHAINID PUSH1 0x80 DUP4 ADD MSTORE ADDRESS PUSH1 0xA0 DUP1 DUP5 ADD SWAP2 SWAP1 SWAP2 MSTORE DUP4 MLOAD DUP1 DUP5 SUB SWAP1 SWAP2 ADD DUP2 MSTORE PUSH1 0xC0 SWAP1 SWAP3 ADD SWAP1 SWAP3 MSTORE DUP1 MLOAD SWAP2 ADD KECCAK256 SWAP1 JUMP JUMPDEST PUSH1 0x0 NUMBER DUP3 LT PUSH2 0xF42 JUMPI PUSH1 0x40 MLOAD PUSH3 0x461BCD PUSH1 0xE5 SHL DUP2 MSTORE PUSH1 0x20 PUSH1 0x4 DUP3 ADD DUP2 SWAP1 MSTORE PUSH1 0x24 DUP3 ADD MSTORE PUSH32 0x436865636B706F696E74733A20626C6F636B206E6F7420796574206D696E6564 PUSH1 0x44 DUP3 ADD MSTORE PUSH1 0x64 ADD PUSH2 0x55E JUMP JUMPDEST DUP3 SLOAD PUSH1 0x0 JUMPDEST DUP2 DUP2 LT ISZERO PUSH2 0xFA7 JUMPI PUSH1 0x0 PUSH2 0xF5B DUP3 DUP5 PUSH2 0x15F6 JUMP JUMPDEST SWAP1 POP DUP5 DUP7 PUSH1 0x0 ADD DUP3 DUP2 SLOAD DUP2 LT PUSH2 0xF73 JUMPI PUSH2 0xF73 PUSH2 0x239A JUMP JUMPDEST PUSH1 0x0 SWAP2 DUP3 MSTORE PUSH1 0x20 SWAP1 SWAP2 KECCAK256 ADD SLOAD PUSH4 0xFFFFFFFF AND GT ISZERO PUSH2 0xF93 JUMPI DUP1 SWAP3 POP PUSH2 0xFA1 JUMP JUMPDEST PUSH2 0xF9E DUP2 PUSH1 0x1 PUSH2 0x2382 JUMP JUMPDEST SWAP2 POP JUMPDEST POP PUSH2 0xF47 JUMP JUMPDEST DUP2 ISZERO PUSH2 0xFEB JUMPI DUP5 PUSH2 0xFB9 PUSH1 0x1 DUP5 PUSH2 0x236B JUMP JUMPDEST DUP2 SLOAD DUP2 LT PUSH2 0xFC9 JUMPI PUSH2 0xFC9 PUSH2 0x239A JUMP JUMPDEST PUSH1 0x0 SWAP2 DUP3 MSTORE PUSH1 0x20 SWAP1 SWAP2 KECCAK256 ADD SLOAD PUSH5 0x100000000 SWAP1 DIV PUSH1 0x1 PUSH1 0x1 PUSH1 0xE0 SHL SUB AND PUSH2 0xFEE JUMP JUMPDEST PUSH1 0x0 JUMPDEST PUSH1 0x1 PUSH1 0x1 PUSH1 0xE0 SHL SUB AND SWAP6 SWAP5 POP POP POP POP POP JUMP JUMPDEST PUSH1 0x1 PUSH1 0x1 PUSH1 0xA0 SHL SUB DUP3 AND PUSH2 0x1056 JUMPI PUSH1 0x40 MLOAD PUSH3 0x461BCD PUSH1 0xE5 SHL DUP2 MSTORE PUSH1 0x20 PUSH1 0x4 DUP3 ADD DUP2 SWAP1 MSTORE PUSH1 0x24 DUP3 ADD MSTORE PUSH32 0x4552433732313A206D696E7420746F20746865207A65726F2061646472657373 PUSH1 0x44 DUP3 ADD MSTORE PUSH1 0x64 ADD PUSH2 0x55E JUMP JUMPDEST PUSH1 0x0 DUP2 DUP2 MSTORE PUSH1 0x2 PUSH1 0x20 MSTORE PUSH1 0x40 SWAP1 KECCAK256 SLOAD PUSH1 0x1 PUSH1 0x1 PUSH1 0xA0 SHL SUB AND ISZERO PUSH2 0x10BB JUMPI PUSH1 0x40 MLOAD PUSH3 0x461BCD PUSH1 0xE5 SHL DUP2 MSTORE PUSH1 0x20 PUSH1 0x4 DUP3 ADD MSTORE PUSH1 0x1C PUSH1 0x24 DUP3 ADD MSTORE PUSH32 0x4552433732313A20746F6B656E20616C7265616479206D696E74656400000000 PUSH1 0x44 DUP3 ADD MSTORE PUSH1 0x64 ADD PUSH2 0x55E JUMP JUMPDEST PUSH1 0x1 PUSH1 0x1 PUSH1 0xA0 SHL SUB DUP3 AND PUSH1 0x0 SWAP1 DUP2 MSTORE PUSH1 0x3 PUSH1 0x20 MSTORE PUSH1 0x40 DUP2 KECCAK256 DUP1 SLOAD PUSH1 0x1 SWAP3 SWAP1 PUSH2 0x10E4 SWAP1 DUP5 SWAP1 PUSH2 0x2382 JUMP JUMPDEST SWAP1 SWAP2 SSTORE POP POP PUSH1 0x0 DUP2 DUP2 MSTORE PUSH1 0x2 PUSH1 0x20 MSTORE PUSH1 0x40 DUP1 DUP3 KECCAK256 DUP1 SLOAD PUSH1 0x1 PUSH1 0x1 PUSH1 0xA0 SHL SUB NOT AND PUSH1 0x1 PUSH1 0x1 PUSH1 0xA0 SHL SUB DUP7 AND SWAP1 DUP2 OR SWAP1 SWAP2 SSTORE SWAP1 MLOAD DUP4 SWAP3 SWAP1 PUSH32 0xDDF252AD1BE2C89B69C2B068FC378DAA952BA7F163C4A11628F55A4DF523B3EF SWAP1 DUP3 SWAP1 LOG4 POP POP JUMP JUMPDEST PUSH1 0x0 DUP3 DUP2 MSTORE PUSH1 0x2 PUSH1 0x20 MSTORE PUSH1 0x40 SWAP1 KECCAK256 SLOAD PUSH1 0x1 PUSH1 0x1 PUSH1 0xA0 SHL SUB AND PUSH2 0x11BD JUMPI PUSH1 0x40 MLOAD PUSH3 0x461BCD PUSH1 0xE5 SHL DUP2 MSTORE PUSH1 0x20 PUSH1 0x4 DUP3 ADD MSTORE PUSH1 0x2E PUSH1 0x24 DUP3 ADD MSTORE PUSH32 0x45524337323155524953746F726167653A2055524920736574206F66206E6F6E PUSH1 0x44 DUP3 ADD MSTORE PUSH14 0x32BC34B9BA32B73A103A37B5B2B7 PUSH1 0x91 SHL PUSH1 0x64 DUP3 ADD MSTORE PUSH1 0x84 ADD PUSH2 0x55E JUMP JUMPDEST PUSH1 0x0 DUP3 DUP2 MSTORE PUSH1 0xA PUSH1 0x20 MSTORE PUSH1 0x40 SWAP1 KECCAK256 PUSH2 0x5FF DUP3 DUP3 PUSH2 0x23FE JUMP JUMPDEST PUSH1 0x1 PUSH1 0x1 PUSH1 0xA0 SHL SUB DUP3 DUP2 AND PUSH1 0x0 DUP2 DUP2 MSTORE PUSH1 0x6 PUSH1 0x20 MSTORE PUSH1 0x40 DUP1 DUP3 KECCAK256 DUP1 SLOAD DUP7 DUP7 AND PUSH1 0x1 PUSH1 0x1 PUSH1 0xA0 SHL SUB NOT DUP3 AND DUP2 OR SWAP1 SWAP3 SSTORE SWAP2 MLOAD SWAP2 SWAP1 SWAP5 AND SWAP4 SWAP3 DUP5 SWAP3 SWAP1 SWAP2 PUSH32 0x3134E8A2E6D97E929A7E54011EA5485D7D196DD5F0BA4D4EF95803E8E3FC257F SWAP2 SWAP1 LOG4 PUSH2 0x5FF DUP2 DUP4 PUSH2 0x1242 DUP7 PUSH2 0x1611 JUMP JUMPDEST PUSH2 0x161C JUMP JUMPDEST PUSH1 0xB SLOAD PUSH1 0x1 PUSH1 0x1 PUSH1 0xA0 SHL SUB AND CALLER EQ PUSH2 0x801 JUMPI PUSH1 0x40 MLOAD PUSH3 0x461BCD PUSH1 0xE5 SHL DUP2 MSTORE PUSH1 0x20 PUSH1 0x4 DUP3 ADD DUP2 SWAP1 MSTORE PUSH1 0x24 DUP3 ADD MSTORE PUSH32 0x4F776E61626C653A2063616C6C6572206973206E6F7420746865206F776E6572 PUSH1 0x44 DUP3 ADD MSTORE PUSH1 0x64 ADD PUSH2 0x55E JUMP JUMPDEST PUSH1 0xB DUP1 SLOAD PUSH1 0x1 PUSH1 0x1 PUSH1 0xA0 SHL SUB DUP4 DUP2 AND PUSH1 0x1 PUSH1 0x1 PUSH1 0xA0 SHL SUB NOT DUP4 AND DUP2 OR SWAP1 SWAP4 SSTORE PUSH1 0x40 MLOAD SWAP2 AND SWAP2 SWAP1 DUP3 SWAP1 PUSH32 0x8BE0079C531659141344CD1FD0A4F28419497F9722A3DAAFE3B4186F6B6457E0 SWAP1 PUSH1 0x0 SWAP1 LOG3 POP POP JUMP JUMPDEST DUP1 SLOAD PUSH1 0x0 SWAP1 DUP1 ISZERO PUSH2 0x133C JUMPI DUP3 PUSH2 0x130A PUSH1 0x1 DUP4 PUSH2 0x236B JUMP JUMPDEST DUP2 SLOAD DUP2 LT PUSH2 0x131A JUMPI PUSH2 0x131A PUSH2 0x239A JUMP JUMPDEST PUSH1 0x0 SWAP2 DUP3 MSTORE PUSH1 0x20 SWAP1 SWAP2 KECCAK256 ADD SLOAD PUSH5 0x100000000 SWAP1 DIV PUSH1 0x1 PUSH1 0x1 PUSH1 0xE0 SHL SUB AND PUSH2 0x133F JUMP JUMPDEST PUSH1 0x0 JUMPDEST PUSH1 0x1 PUSH1 0x1 PUSH1 0xE0 SHL SUB AND SWAP4 SWAP3 POP POP POP JUMP JUMPDEST DUP2 PUSH1 0x1 PUSH1 0x1 PUSH1 0xA0 SHL SUB AND DUP4 PUSH1 0x1 PUSH1 0x1 PUSH1 0xA0 SHL SUB AND SUB PUSH2 0x13B0 JUMPI PUSH1 0x40 MLOAD PUSH3 0x461BCD PUSH1 0xE5 SHL DUP2 MSTORE PUSH1 0x20 PUSH1 0x4 DUP3 ADD MSTORE PUSH1 0x19 PUSH1 0x24 DUP3 ADD MSTORE PUSH32 0x4552433732313A20617070726F766520746F2063616C6C657200000000000000 PUSH1 0x44 DUP3 ADD MSTORE PUSH1 0x64 ADD PUSH2 0x55E JUMP JUMPDEST PUSH1 0x1 PUSH1 0x1 PUSH1 0xA0 SHL SUB DUP4 DUP2 AND PUSH1 0x0 DUP2 DUP2 MSTORE PUSH1 0x5 PUSH1 0x20 SWAP1 DUP2 MSTORE PUSH1 0x40 DUP1 DUP4 KECCAK256 SWAP5 DUP8 AND DUP1 DUP5 MSTORE SWAP5 DUP3 MSTORE SWAP2 DUP3 SWAP1 KECCAK256 DUP1 SLOAD PUSH1 0xFF NOT AND DUP7 ISZERO ISZERO SWAP1 DUP2 OR SWAP1 SWAP2 SSTORE SWAP2 MLOAD SWAP2 DUP3 MSTORE PUSH32 0x17307EAB39AB6107E8899845AD3D59BD9653F200F220920489CA2B5937696C31 SWAP2 ADD PUSH1 0x40 MLOAD DUP1 SWAP2 SUB SWAP1 LOG3 POP POP POP JUMP JUMPDEST PUSH2 0x1428 DUP5 DUP5 DUP5 PUSH2 0xC2E JUMP JUMPDEST PUSH2 0x1434 DUP5 DUP5 DUP5 DUP5 PUSH2 0x1759 JUMP JUMPDEST PUSH2 0x8EA JUMPI PUSH1 0x40 MLOAD PUSH3 0x461BCD PUSH1 0xE5 SHL DUP2 MSTORE PUSH1 0x4 ADD PUSH2 0x55E SWAP1 PUSH2 0x24BE JUMP JUMPDEST PUSH1 0x0 PUSH2 0x42B PUSH2 0x145D PUSH2 0xDCA JUMP JUMPDEST DUP4 PUSH1 0x40 MLOAD PUSH2 0x1901 PUSH1 0xF0 SHL PUSH1 0x20 DUP3 ADD MSTORE PUSH1 0x22 DUP2 ADD DUP4 SWAP1 MSTORE PUSH1 0x42 DUP2 ADD DUP3 SWAP1 MSTORE PUSH1 0x0 SWAP1 PUSH1 0x62 ADD PUSH1 0x40 MLOAD PUSH1 0x20 DUP2 DUP4 SUB SUB DUP2 MSTORE SWAP1 PUSH1 0x40 MSTORE DUP1 MLOAD SWAP1 PUSH1 0x20 ADD KECCAK256 SWAP1 POP SWAP3 SWAP2 POP POP JUMP JUMPDEST PUSH1 0x0 DUP1 PUSH1 0x0 PUSH2 0x14AF DUP8 DUP8 DUP8 DUP8 PUSH2 0x1857 JUMP JUMPDEST SWAP2 POP SWAP2 POP PUSH2 0x14BC DUP2 PUSH2 0x1944 JUMP JUMPDEST POP SWAP6 SWAP5 POP POP POP POP POP JUMP JUMPDEST PUSH1 0x1 PUSH1 0x1 PUSH1 0xA0 SHL SUB DUP2 AND PUSH1 0x0 SWAP1 DUP2 MSTORE PUSH1 0x9 PUSH1 0x20 MSTORE PUSH1 0x40 SWAP1 KECCAK256 DUP1 SLOAD PUSH1 0x1 DUP2 ADD DUP3 SSTORE SWAP1 JUMPDEST POP SWAP2 SWAP1 POP JUMP JUMPDEST PUSH1 0x60 PUSH2 0x14F9 DUP3 PUSH2 0xAE3 JUMP JUMPDEST PUSH1 0x0 DUP3 DUP2 MSTORE PUSH1 0xA PUSH1 0x20 MSTORE PUSH1 0x40 DUP2 KECCAK256 DUP1 SLOAD PUSH2 0x1512 SWAP1 PUSH2 0x22A3 JUMP JUMPDEST DUP1 PUSH1 0x1F ADD PUSH1 0x20 DUP1 SWAP2 DIV MUL PUSH1 0x20 ADD PUSH1 0x40 MLOAD SWAP1 DUP2 ADD PUSH1 0x40 MSTORE DUP1 SWAP3 SWAP2 SWAP1 DUP2 DUP2 MSTORE PUSH1 0x20 ADD DUP3 DUP1 SLOAD PUSH2 0x153E SWAP1 PUSH2 0x22A3 JUMP JUMPDEST DUP1 ISZERO PUSH2 0x158B JUMPI DUP1 PUSH1 0x1F LT PUSH2 0x1560 JUMPI PUSH2 0x100 DUP1 DUP4 SLOAD DIV MUL DUP4 MSTORE SWAP2 PUSH1 0x20 ADD SWAP2 PUSH2 0x158B JUMP JUMPDEST DUP3 ADD SWAP2 SWAP1 PUSH1 0x0 MSTORE PUSH1 0x20 PUSH1 0x0 KECCAK256 SWAP1 JUMPDEST DUP2 SLOAD DUP2 MSTORE SWAP1 PUSH1 0x1 ADD SWAP1 PUSH1 0x20 ADD DUP1 DUP4 GT PUSH2 0x156E JUMPI DUP3 SWAP1 SUB PUSH1 0x1F AND DUP3 ADD SWAP2 JUMPDEST POP POP POP POP POP SWAP1 POP PUSH1 0x0 PUSH2 0x15A9 PUSH1 0x40 DUP1 MLOAD PUSH1 0x20 DUP2 ADD SWAP1 SWAP2 MSTORE PUSH1 0x0 DUP2 MSTORE SWAP1 JUMP JUMPDEST SWAP1 POP DUP1 MLOAD PUSH1 0x0 SUB PUSH2 0x15BB JUMPI POP SWAP3 SWAP2 POP POP JUMP JUMPDEST DUP2 MLOAD ISZERO PUSH2 0x15ED JUMPI DUP1 DUP3 PUSH1 0x40 MLOAD PUSH1 0x20 ADD PUSH2 0x15D5 SWAP3 SWAP2 SWAP1 PUSH2 0x2510 JUMP JUMPDEST PUSH1 0x40 MLOAD PUSH1 0x20 DUP2 DUP4 SUB SUB DUP2 MSTORE SWAP1 PUSH1 0x40 MSTORE SWAP3 POP POP POP SWAP2 SWAP1 POP JUMP JUMPDEST PUSH2 0xA62 DUP5 PUSH2 0x1AFA JUMP JUMPDEST PUSH1 0x0 PUSH2 0x1605 PUSH1 0x2 DUP5 DUP5 XOR PUSH2 0x2555 JUMP JUMPDEST PUSH2 0x666 SWAP1 DUP5 DUP5 AND PUSH2 0x2382 JUMP JUMPDEST PUSH1 0x0 PUSH2 0x42B DUP3 PUSH2 0x769 JUMP JUMPDEST DUP2 PUSH1 0x1 PUSH1 0x1 PUSH1 0xA0 SHL SUB AND DUP4 PUSH1 0x1 PUSH1 0x1 PUSH1 0xA0 SHL SUB AND EQ ISZERO DUP1 ISZERO PUSH2 0x163E JUMPI POP PUSH1 0x0 DUP2 GT JUMPDEST ISZERO PUSH2 0x5FF JUMPI PUSH1 0x1 PUSH1 0x1 PUSH1 0xA0 SHL SUB DUP4 AND ISZERO PUSH2 0x16CC JUMPI PUSH1 0x1 PUSH1 0x1 PUSH1 0xA0 SHL SUB DUP4 AND PUSH1 0x0 SWAP1 DUP2 MSTORE PUSH1 0x7 PUSH1 0x20 MSTORE PUSH1 0x40 DUP2 KECCAK256 DUP2 SWAP1 PUSH2 0x1679 SWAP1 PUSH2 0x1B6D DUP6 PUSH2 0x1B79 JUMP JUMPDEST SWAP2 POP SWAP2 POP DUP5 PUSH1 0x1 PUSH1 0x1 PUSH1 0xA0 SHL SUB AND PUSH32 0xDEC2BACDD2F05B59DE34DA9B523DFF8BE42E5E38E818C82FDB0BAE774387A724 DUP4 DUP4 PUSH1 0x40 MLOAD PUSH2 0x16C1 SWAP3 SWAP2 SWAP1 SWAP2 DUP3 MSTORE PUSH1 0x20 DUP3 ADD MSTORE PUSH1 0x40 ADD SWAP1 JUMP JUMPDEST PUSH1 0x40 MLOAD DUP1 SWAP2 SUB SWAP1 LOG2 POP POP JUMPDEST PUSH1 0x1 PUSH1 0x1 PUSH1 0xA0 SHL SUB DUP3 AND ISZERO PUSH2 0x5FF JUMPI PUSH1 0x1 PUSH1 0x1 PUSH1 0xA0 SHL SUB DUP3 AND PUSH1 0x0 SWAP1 DUP2 MSTORE PUSH1 0x7 PUSH1 0x20 MSTORE PUSH1 0x40 DUP2 KECCAK256 DUP2 SWAP1 PUSH2 0x1702 SWAP1 PUSH2 0x1BA7 DUP6 PUSH2 0x1B79 JUMP JUMPDEST SWAP2 POP SWAP2 POP DUP4 PUSH1 0x1 PUSH1 0x1 PUSH1 0xA0 SHL SUB AND PUSH32 0xDEC2BACDD2F05B59DE34DA9B523DFF8BE42E5E38E818C82FDB0BAE774387A724 DUP4 DUP4 PUSH1 0x40 MLOAD PUSH2 0x174A SWAP3 SWAP2 SWAP1 SWAP2 DUP3 MSTORE PUSH1 0x20 DUP3 ADD MSTORE PUSH1 0x40 ADD SWAP1 JUMP JUMPDEST PUSH1 0x40 MLOAD DUP1 SWAP2 SUB SWAP1 LOG2 POP POP POP POP POP JUMP JUMPDEST PUSH1 0x0 PUSH1 0x1 PUSH1 0x1 PUSH1 0xA0 SHL SUB DUP5 AND EXTCODESIZE ISZERO PUSH2 0x184F JUMPI PUSH1 0x40 MLOAD PUSH4 0xA85BD01 PUSH1 0xE1 SHL DUP2 MSTORE PUSH1 0x1 PUSH1 0x1 PUSH1 0xA0 SHL SUB DUP6 AND SWAP1 PUSH4 0x150B7A02 SWAP1 PUSH2 0x179D SWAP1 CALLER SWAP1 DUP10 SWAP1 DUP9 SWAP1 DUP9 SWAP1 PUSH1 0x4 ADD PUSH2 0x2569 JUMP JUMPDEST PUSH1 0x20 PUSH1 0x40 MLOAD DUP1 DUP4 SUB DUP2 PUSH1 0x0 DUP8 GAS CALL SWAP3 POP POP POP DUP1 ISZERO PUSH2 0x17D8 JUMPI POP PUSH1 0x40 DUP1 MLOAD PUSH1 0x1F RETURNDATASIZE SWAP1 DUP2 ADD PUSH1 0x1F NOT AND DUP3 ADD SWAP1 SWAP3 MSTORE PUSH2 0x17D5 SWAP2 DUP2 ADD SWAP1 PUSH2 0x25A6 JUMP JUMPDEST PUSH1 0x1 JUMPDEST PUSH2 0x1835 JUMPI RETURNDATASIZE DUP1 DUP1 ISZERO PUSH2 0x1806 JUMPI PUSH1 0x40 MLOAD SWAP2 POP PUSH1 0x1F NOT PUSH1 0x3F RETURNDATASIZE ADD AND DUP3 ADD PUSH1 0x40 MSTORE RETURNDATASIZE DUP3 MSTORE RETURNDATASIZE PUSH1 0x0 PUSH1 0x20 DUP5 ADD RETURNDATACOPY PUSH2 0x180B JUMP JUMPDEST PUSH1 0x60 SWAP2 POP JUMPDEST POP DUP1 MLOAD PUSH1 0x0 SUB PUSH2 0x182D JUMPI PUSH1 0x40 MLOAD PUSH3 0x461BCD PUSH1 0xE5 SHL DUP2 MSTORE PUSH1 0x4 ADD PUSH2 0x55E SWAP1 PUSH2 0x24BE JUMP JUMPDEST DUP1 MLOAD DUP2 PUSH1 0x20 ADD REVERT JUMPDEST PUSH1 0x1 PUSH1 0x1 PUSH1 0xE0 SHL SUB NOT AND PUSH4 0xA85BD01 PUSH1 0xE1 SHL EQ SWAP1 POP PUSH2 0xA62 JUMP JUMPDEST POP PUSH1 0x1 PUSH2 0xA62 JUMP JUMPDEST PUSH1 0x0 DUP1 PUSH32 0x7FFFFFFFFFFFFFFFFFFFFFFFFFFFFFFF5D576E7357A4501DDFE92F46681B20A0 DUP4 GT ISZERO PUSH2 0x188E JUMPI POP PUSH1 0x0 SWAP1 POP PUSH1 0x3 PUSH2 0x193B JUMP JUMPDEST DUP5 PUSH1 0xFF AND PUSH1 0x1B EQ ISZERO DUP1 ISZERO PUSH2 0x18A6 JUMPI POP DUP5 PUSH1 0xFF AND PUSH1 0x1C EQ ISZERO JUMPDEST ISZERO PUSH2 0x18B7 JUMPI POP PUSH1 0x0 SWAP1 POP PUSH1 0x4 PUSH2 0x193B JUMP JUMPDEST PUSH1 0x40 DUP1 MLOAD PUSH1 0x0 DUP1 DUP3 MSTORE PUSH1 0x20 DUP3 ADD DUP1 DUP5 MSTORE DUP10 SWAP1 MSTORE PUSH1 0xFF DUP9 AND SWAP3 DUP3 ADD SWAP3 SWAP1 SWAP3 MSTORE PUSH1 0x60 DUP2 ADD DUP7 SWAP1 MSTORE PUSH1 0x80 DUP2 ADD DUP6 SWAP1 MSTORE PUSH1 0x1 SWAP1 PUSH1 0xA0 ADD PUSH1 0x20 PUSH1 0x40 MLOAD PUSH1 0x20 DUP2 SUB SWAP1 DUP1 DUP5 SUB SWAP1 DUP6 GAS STATICCALL ISZERO DUP1 ISZERO PUSH2 0x190B JUMPI RETURNDATASIZE PUSH1 0x0 DUP1 RETURNDATACOPY RETURNDATASIZE PUSH1 0x0 REVERT JUMPDEST POP POP PUSH1 0x40 MLOAD PUSH1 0x1F NOT ADD MLOAD SWAP2 POP POP PUSH1 0x1 PUSH1 0x1 PUSH1 0xA0 SHL SUB DUP2 AND PUSH2 0x1934 JUMPI PUSH1 0x0 PUSH1 0x1 SWAP3 POP SWAP3 POP POP PUSH2 0x193B JUMP JUMPDEST SWAP2 POP PUSH1 0x0 SWAP1 POP JUMPDEST SWAP5 POP SWAP5 SWAP3 POP POP POP JUMP JUMPDEST PUSH1 0x0 DUP2 PUSH1 0x4 DUP2 GT ISZERO PUSH2 0x1958 JUMPI PUSH2 0x1958 PUSH2 0x25C3 JUMP JUMPDEST SUB PUSH2 0x1960 JUMPI POP JUMP JUMPDEST PUSH1 0x1 DUP2 PUSH1 0x4 DUP2 GT ISZERO PUSH2 0x1974 JUMPI PUSH2 0x1974 PUSH2 0x25C3 JUMP JUMPDEST SUB PUSH2 0x19C1 JUMPI PUSH1 0x40 MLOAD PUSH3 0x461BCD PUSH1 0xE5 SHL DUP2 MSTORE PUSH1 0x20 PUSH1 0x4 DUP3 ADD MSTORE PUSH1 0x18 PUSH1 0x24 DUP3 ADD MSTORE PUSH32 0x45434453413A20696E76616C6964207369676E61747572650000000000000000 PUSH1 0x44 DUP3 ADD MSTORE PUSH1 0x64 ADD PUSH2 0x55E JUMP JUMPDEST PUSH1 0x2 DUP2 PUSH1 0x4 DUP2 GT ISZERO PUSH2 0x19D5 JUMPI PUSH2 0x19D5 PUSH2 0x25C3 JUMP JUMPDEST SUB PUSH2 0x1A22 JUMPI PUSH1 0x40 MLOAD PUSH3 0x461BCD PUSH1 0xE5 SHL DUP2 MSTORE PUSH1 0x20 PUSH1 0x4 DUP3 ADD MSTORE PUSH1 0x1F PUSH1 0x24 DUP3 ADD MSTORE PUSH32 0x45434453413A20696E76616C6964207369676E6174757265206C656E67746800 PUSH1 0x44 DUP3 ADD MSTORE PUSH1 0x64 ADD PUSH2 0x55E JUMP JUMPDEST PUSH1 0x3 DUP2 PUSH1 0x4 DUP2 GT ISZERO PUSH2 0x1A36 JUMPI PUSH2 0x1A36 PUSH2 0x25C3 JUMP JUMPDEST SUB PUSH2 0x1A8E JUMPI PUSH1 0x40 MLOAD PUSH3 0x461BCD PUSH1 0xE5 SHL DUP2 MSTORE PUSH1 0x20 PUSH1 0x4 DUP3 ADD MSTORE PUSH1 0x22 PUSH1 0x24 DUP3 ADD MSTORE PUSH32 0x45434453413A20696E76616C6964207369676E6174757265202773272076616C PUSH1 0x44 DUP3 ADD MSTORE PUSH2 0x7565 PUSH1 0xF0 SHL PUSH1 0x64 DUP3 ADD MSTORE PUSH1 0x84 ADD PUSH2 0x55E JUMP JUMPDEST PUSH1 0x4 DUP2 PUSH1 0x4 DUP2 GT ISZERO PUSH2 0x1AA2 JUMPI PUSH2 0x1AA2 PUSH2 0x25C3 JUMP JUMPDEST SUB PUSH2 0xAE0 JUMPI PUSH1 0x40 MLOAD PUSH3 0x461BCD PUSH1 0xE5 SHL DUP2 MSTORE PUSH1 0x20 PUSH1 0x4 DUP3 ADD MSTORE PUSH1 0x22 PUSH1 0x24 DUP3 ADD MSTORE PUSH32 0x45434453413A20696E76616C6964207369676E6174757265202776272076616C PUSH1 0x44 DUP3 ADD MSTORE PUSH2 0x7565 PUSH1 0xF0 SHL PUSH1 0x64 DUP3 ADD MSTORE PUSH1 0x84 ADD PUSH2 0x55E JUMP JUMPDEST PUSH1 0x60 PUSH2 0x1B05 DUP3 PUSH2 0xAE3 JUMP JUMPDEST PUSH1 0x0 PUSH2 0x1B1C PUSH1 0x40 DUP1 MLOAD PUSH1 0x20 DUP2 ADD SWAP1 SWAP2 MSTORE PUSH1 0x0 DUP2 MSTORE SWAP1 JUMP JUMPDEST SWAP1 POP PUSH1 0x0 DUP2 MLOAD GT PUSH2 0x1B3C JUMPI PUSH1 0x40 MLOAD DUP1 PUSH1 0x20 ADD PUSH1 0x40 MSTORE DUP1 PUSH1 0x0 DUP2 MSTORE POP PUSH2 0x666 JUMP JUMPDEST DUP1 PUSH2 0x1B46 DUP5 PUSH2 0x1BB3 JUMP JUMPDEST PUSH1 0x40 MLOAD PUSH1 0x20 ADD PUSH2 0x1B57 SWAP3 SWAP2 SWAP1 PUSH2 0x2510 JUMP JUMPDEST PUSH1 0x40 MLOAD PUSH1 0x20 DUP2 DUP4 SUB SUB DUP2 MSTORE SWAP1 PUSH1 0x40 MSTORE SWAP4 SWAP3 POP POP POP JUMP JUMPDEST PUSH1 0x0 PUSH2 0x666 DUP3 DUP5 PUSH2 0x236B JUMP JUMPDEST PUSH1 0x0 DUP1 PUSH2 0x1B9B DUP6 PUSH2 0x1B96 PUSH2 0x1B8C DUP9 PUSH2 0x12F3 JUMP JUMPDEST DUP7 DUP9 PUSH4 0xFFFFFFFF AND JUMP JUMPDEST PUSH2 0x1CB4 JUMP JUMPDEST SWAP2 POP SWAP2 POP SWAP4 POP SWAP4 SWAP2 POP POP JUMP JUMPDEST PUSH1 0x0 PUSH2 0x666 DUP3 DUP5 PUSH2 0x2382 JUMP JUMPDEST PUSH1 0x60 DUP2 PUSH1 0x0 SUB PUSH2 0x1BDA JUMPI POP POP PUSH1 0x40 DUP1 MLOAD DUP1 DUP3 ADD SWAP1 SWAP2 MSTORE PUSH1 0x1 DUP2 MSTORE PUSH1 0x3 PUSH1 0xFC SHL PUSH1 0x20 DUP3 ADD MSTORE SWAP1 JUMP JUMPDEST DUP2 PUSH1 0x0 JUMPDEST DUP2 ISZERO PUSH2 0x1C04 JUMPI DUP1 PUSH2 0x1BEE DUP2 PUSH2 0x25D9 JUMP JUMPDEST SWAP2 POP PUSH2 0x1BFD SWAP1 POP PUSH1 0xA DUP4 PUSH2 0x2555 JUMP JUMPDEST SWAP2 POP PUSH2 0x1BDE JUMP JUMPDEST PUSH1 0x0 DUP2 PUSH8 0xFFFFFFFFFFFFFFFF DUP2 GT ISZERO PUSH2 0x1C1F JUMPI PUSH2 0x1C1F PUSH2 0x2000 JUMP JUMPDEST PUSH1 0x40 MLOAD SWAP1 DUP1 DUP3 MSTORE DUP1 PUSH1 0x1F ADD PUSH1 0x1F NOT AND PUSH1 0x20 ADD DUP3 ADD PUSH1 0x40 MSTORE DUP1 ISZERO PUSH2 0x1C49 JUMPI PUSH1 0x20 DUP3 ADD DUP2 DUP1 CALLDATASIZE DUP4 CALLDATACOPY ADD SWAP1 POP JUMPDEST POP SWAP1 POP JUMPDEST DUP5 ISZERO PUSH2 0xA62 JUMPI PUSH2 0x1C5E PUSH1 0x1 DUP4 PUSH2 0x236B JUMP JUMPDEST SWAP2 POP PUSH2 0x1C6B PUSH1 0xA DUP7 PUSH2 0x25F2 JUMP JUMPDEST PUSH2 0x1C76 SWAP1 PUSH1 0x30 PUSH2 0x2382 JUMP JUMPDEST PUSH1 0xF8 SHL DUP2 DUP4 DUP2 MLOAD DUP2 LT PUSH2 0x1C8B JUMPI PUSH2 0x1C8B PUSH2 0x239A JUMP JUMPDEST PUSH1 0x20 ADD ADD SWAP1 PUSH1 0x1 PUSH1 0x1 PUSH1 0xF8 SHL SUB NOT AND SWAP1 DUP2 PUSH1 0x0 BYTE SWAP1 MSTORE8 POP PUSH2 0x1CAD PUSH1 0xA DUP7 PUSH2 0x2555 JUMP JUMPDEST SWAP5 POP PUSH2 0x1C4D JUMP JUMPDEST DUP2 SLOAD PUSH1 0x0 SWAP1 DUP2 SWAP1 DUP2 PUSH2 0x1CC5 DUP7 PUSH2 0x12F3 JUMP JUMPDEST SWAP1 POP PUSH1 0x0 DUP3 GT DUP1 ISZERO PUSH2 0x1D03 JUMPI POP NUMBER DUP7 PUSH2 0x1CDF PUSH1 0x1 DUP6 PUSH2 0x236B JUMP JUMPDEST DUP2 SLOAD DUP2 LT PUSH2 0x1CEF JUMPI PUSH2 0x1CEF PUSH2 0x239A JUMP JUMPDEST PUSH1 0x0 SWAP2 DUP3 MSTORE PUSH1 0x20 SWAP1 SWAP2 KECCAK256 ADD SLOAD PUSH4 0xFFFFFFFF AND EQ JUMPDEST ISZERO PUSH2 0x1D63 JUMPI PUSH2 0x1D11 DUP6 PUSH2 0x1DDA JUMP JUMPDEST DUP7 PUSH2 0x1D1D PUSH1 0x1 DUP6 PUSH2 0x236B JUMP JUMPDEST DUP2 SLOAD DUP2 LT PUSH2 0x1D2D JUMPI PUSH2 0x1D2D PUSH2 0x239A JUMP JUMPDEST SWAP1 PUSH1 0x0 MSTORE PUSH1 0x20 PUSH1 0x0 KECCAK256 ADD PUSH1 0x0 ADD PUSH1 0x4 PUSH2 0x100 EXP DUP2 SLOAD DUP2 PUSH1 0x1 PUSH1 0x1 PUSH1 0xE0 SHL SUB MUL NOT AND SWAP1 DUP4 PUSH1 0x1 PUSH1 0x1 PUSH1 0xE0 SHL SUB AND MUL OR SWAP1 SSTORE POP PUSH2 0x1DD1 JUMP JUMPDEST DUP6 PUSH1 0x0 ADD PUSH1 0x40 MLOAD DUP1 PUSH1 0x40 ADD PUSH1 0x40 MSTORE DUP1 PUSH2 0x1D7B NUMBER PUSH2 0x1E47 JUMP JUMPDEST PUSH4 0xFFFFFFFF AND DUP2 MSTORE PUSH1 0x20 ADD PUSH2 0x1D8F DUP9 PUSH2 0x1DDA JUMP JUMPDEST PUSH1 0x1 PUSH1 0x1 PUSH1 0xE0 SHL SUB SWAP1 DUP2 AND SWAP1 SWAP2 MSTORE DUP3 SLOAD PUSH1 0x1 DUP2 ADD DUP5 SSTORE PUSH1 0x0 SWAP4 DUP5 MSTORE PUSH1 0x20 SWAP4 DUP5 SWAP1 KECCAK256 DUP4 MLOAD SWAP5 SWAP1 SWAP4 ADD MLOAD SWAP1 SWAP2 AND PUSH5 0x100000000 MUL PUSH4 0xFFFFFFFF SWAP1 SWAP4 AND SWAP3 SWAP1 SWAP3 OR SWAP2 ADD SSTORE JUMPDEST SWAP6 SWAP4 SWAP5 POP POP POP POP JUMP JUMPDEST PUSH1 0x0 PUSH1 0x1 PUSH1 0x1 PUSH1 0xE0 SHL SUB DUP3 GT ISZERO PUSH2 0x1E43 JUMPI PUSH1 0x40 MLOAD PUSH3 0x461BCD PUSH1 0xE5 SHL DUP2 MSTORE PUSH1 0x20 PUSH1 0x4 DUP3 ADD MSTORE PUSH1 0x27 PUSH1 0x24 DUP3 ADD MSTORE PUSH32 0x53616665436173743A2076616C756520646F65736E27742066697420696E2032 PUSH1 0x44 DUP3 ADD MSTORE PUSH7 0x32342062697473 PUSH1 0xC8 SHL PUSH1 0x64 DUP3 ADD MSTORE PUSH1 0x84 ADD PUSH2 0x55E JUMP JUMPDEST POP SWAP1 JUMP JUMPDEST PUSH1 0x0 PUSH4 0xFFFFFFFF DUP3 GT ISZERO PUSH2 0x1E43 JUMPI PUSH1 0x40 MLOAD PUSH3 0x461BCD PUSH1 0xE5 SHL DUP2 MSTORE PUSH1 0x20 PUSH1 0x4 DUP3 ADD MSTORE PUSH1 0x26 PUSH1 0x24 DUP3 ADD MSTORE PUSH32 0x53616665436173743A2076616C756520646F65736E27742066697420696E2033 PUSH1 0x44 DUP3 ADD MSTORE PUSH6 0x322062697473 PUSH1 0xD0 SHL PUSH1 0x64 DUP3 ADD MSTORE PUSH1 0x84 ADD PUSH2 0x55E JUMP JUMPDEST PUSH1 0x1 PUSH1 0x1 PUSH1 0xE0 SHL SUB NOT DUP2 AND DUP2 EQ PUSH2 0xAE0 JUMPI PUSH1 0x0 DUP1 REVERT JUMPDEST PUSH1 0x0 PUSH1 0x20 DUP3 DUP5 SUB SLT ISZERO PUSH2 0x1ED4 JUMPI PUSH1 0x0 DUP1 REVERT JUMPDEST DUP2 CALLDATALOAD PUSH2 0x666 DUP2 PUSH2 0x1EAC JUMP JUMPDEST PUSH1 0x0 JUMPDEST DUP4 DUP2 LT ISZERO PUSH2 0x1EFA JUMPI DUP2 DUP2 ADD MLOAD DUP4 DUP3 ADD MSTORE PUSH1 0x20 ADD PUSH2 0x1EE2 JUMP JUMPDEST DUP4 DUP2 GT ISZERO PUSH2 0x8EA JUMPI POP POP PUSH1 0x0 SWAP2 ADD MSTORE JUMP JUMPDEST PUSH1 0x0 DUP2 MLOAD DUP1 DUP5 MSTORE PUSH2 0x1F23 DUP2 PUSH1 0x20 DUP7 ADD PUSH1 0x20 DUP7 ADD PUSH2 0x1EDF JUMP JUMPDEST PUSH1 0x1F ADD PUSH1 0x1F NOT AND SWAP3 SWAP1 SWAP3 ADD PUSH1 0x20 ADD SWAP3 SWAP2 POP POP JUMP JUMPDEST PUSH1 0x20 DUP2 MSTORE PUSH1 0x0 PUSH2 0x666 PUSH1 0x20 DUP4 ADD DUP5 PUSH2 0x1F0B JUMP JUMPDEST PUSH1 0x0 PUSH1 0x20 DUP3 DUP5 SUB SLT ISZERO PUSH2 0x1F5C JUMPI PUSH1 0x0 DUP1 REVERT JUMPDEST POP CALLDATALOAD SWAP2 SWAP1 POP JUMP JUMPDEST DUP1 CALLDATALOAD PUSH1 0x1 PUSH1 0x1 PUSH1 0xA0 SHL SUB DUP2 AND DUP2 EQ PUSH2 0x1F7A JUMPI PUSH1 0x0 DUP1 REVERT JUMPDEST SWAP2 SWAP1 POP JUMP JUMPDEST PUSH1 0x0 DUP1 PUSH1 0x40 DUP4 DUP6 SUB SLT ISZERO PUSH2 0x1F92 JUMPI PUSH1 0x0 DUP1 REVERT JUMPDEST PUSH2 0x1F9B DUP4 PUSH2 0x1F63 JUMP JUMPDEST SWAP5 PUSH1 0x20 SWAP4 SWAP1 SWAP4 ADD CALLDATALOAD SWAP4 POP POP POP JUMP JUMPDEST PUSH1 0x0 DUP1 PUSH1 0x0 PUSH1 0x60 DUP5 DUP7 SUB SLT ISZERO PUSH2 0x1FBE JUMPI PUSH1 0x0 DUP1 REVERT JUMPDEST PUSH2 0x1FC7 DUP5 PUSH2 0x1F63 JUMP JUMPDEST SWAP3 POP PUSH2 0x1FD5 PUSH1 0x20 DUP6 ADD PUSH2 0x1F63 JUMP JUMPDEST SWAP2 POP PUSH1 0x40 DUP5 ADD CALLDATALOAD SWAP1 POP SWAP3 POP SWAP3 POP SWAP3 JUMP JUMPDEST PUSH1 0x0 PUSH1 0x20 DUP3 DUP5 SUB SLT ISZERO PUSH2 0x1FF7 JUMPI PUSH1 0x0 DUP1 REVERT JUMPDEST PUSH2 0x666 DUP3 PUSH2 0x1F63 JUMP JUMPDEST PUSH4 0x4E487B71 PUSH1 0xE0 SHL PUSH1 0x0 MSTORE PUSH1 0x41 PUSH1 0x4 MSTORE PUSH1 0x24 PUSH1 0x0 REVERT JUMPDEST PUSH1 0x0 PUSH8 0xFFFFFFFFFFFFFFFF DUP1 DUP5 GT ISZERO PUSH2 0x2031 JUMPI PUSH2 0x2031 PUSH2 0x2000 JUMP JUMPDEST PUSH1 0x40 MLOAD PUSH1 0x1F DUP6 ADD PUSH1 0x1F NOT SWAP1 DUP2 AND PUSH1 0x3F ADD AND DUP2 ADD SWAP1 DUP3 DUP3 GT DUP2 DUP4 LT OR ISZERO PUSH2 0x2059 JUMPI PUSH2 0x2059 PUSH2 0x2000 JUMP JUMPDEST DUP2 PUSH1 0x40 MSTORE DUP1 SWAP4 POP DUP6 DUP2 MSTORE DUP7 DUP7 DUP7 ADD GT ISZERO PUSH2 0x2072 JUMPI PUSH1 0x0 DUP1 REVERT JUMPDEST DUP6 DUP6 PUSH1 0x20 DUP4 ADD CALLDATACOPY PUSH1 0x0 PUSH1 0x20 DUP8 DUP4 ADD ADD MSTORE POP POP POP SWAP4 SWAP3 POP POP POP JUMP JUMPDEST PUSH1 0x0 DUP3 PUSH1 0x1F DUP4 ADD SLT PUSH2 0x209D JUMPI PUSH1 0x0 DUP1 REVERT JUMPDEST PUSH2 0x666 DUP4 DUP4 CALLDATALOAD PUSH1 0x20 DUP6 ADD PUSH2 0x2016 JUMP JUMPDEST PUSH1 0x0 DUP1 PUSH1 0x40 DUP4 DUP6 SUB SLT ISZERO PUSH2 0x20BF JUMPI PUSH1 0x0 DUP1 REVERT JUMPDEST PUSH2 0x20C8 DUP4 PUSH2 0x1F63 JUMP JUMPDEST SWAP2 POP PUSH1 0x20 DUP4 ADD CALLDATALOAD PUSH8 0xFFFFFFFFFFFFFFFF DUP2 GT ISZERO PUSH2 0x20E4 JUMPI PUSH1 0x0 DUP1 REVERT JUMPDEST PUSH2 0x20F0 DUP6 DUP3 DUP7 ADD PUSH2 0x208C JUMP JUMPDEST SWAP2 POP POP SWAP3 POP SWAP3 SWAP1 POP JUMP JUMPDEST PUSH1 0x0 DUP1 PUSH1 0x40 DUP4 DUP6 SUB SLT ISZERO PUSH2 0x210D JUMPI PUSH1 0x0 DUP1 REVERT JUMPDEST PUSH2 0x2116 DUP4 PUSH2 0x1F63 JUMP JUMPDEST SWAP2 POP PUSH1 0x20 DUP4 ADD CALLDATALOAD DUP1 ISZERO ISZERO DUP2 EQ PUSH2 0x212B JUMPI PUSH1 0x0 DUP1 REVERT JUMPDEST DUP1 SWAP2 POP POP SWAP3 POP SWAP3 SWAP1 POP JUMP JUMPDEST PUSH1 0x0 DUP1 PUSH1 0x0 DUP1 PUSH1 0x80 DUP6 DUP8 SUB SLT ISZERO PUSH2 0x214C JUMPI PUSH1 0x0 DUP1 REVERT JUMPDEST PUSH2 0x2155 DUP6 PUSH2 0x1F63 JUMP JUMPDEST SWAP4 POP PUSH2 0x2163 PUSH1 0x20 DUP7 ADD PUSH2 0x1F63 JUMP JUMPDEST SWAP3 POP PUSH1 0x40 DUP6 ADD CALLDATALOAD SWAP2 POP PUSH1 0x60 DUP6 ADD CALLDATALOAD PUSH8 0xFFFFFFFFFFFFFFFF DUP2 GT ISZERO PUSH2 0x2186 JUMPI PUSH1 0x0 DUP1 REVERT JUMPDEST DUP6 ADD PUSH1 0x1F DUP2 ADD DUP8 SGT PUSH2 0x2197 JUMPI PUSH1 0x0 DUP1 REVERT JUMPDEST PUSH2 0x21A6 DUP8 DUP3 CALLDATALOAD PUSH1 0x20 DUP5 ADD PUSH2 0x2016 JUMP JUMPDEST SWAP2 POP POP SWAP3 SWAP6 SWAP2 SWAP5 POP SWAP3 POP JUMP JUMPDEST PUSH1 0x0 DUP1 PUSH1 0x0 DUP1 PUSH1 0x0 DUP1 PUSH1 0xC0 DUP8 DUP10 SUB SLT ISZERO PUSH2 0x21CB JUMPI PUSH1 0x0 DUP1 REVERT JUMPDEST PUSH2 0x21D4 DUP8 PUSH2 0x1F63 JUMP JUMPDEST SWAP6 POP PUSH1 0x20 DUP8 ADD CALLDATALOAD SWAP5 POP PUSH1 0x40 DUP8 ADD CALLDATALOAD SWAP4 POP PUSH1 0x60 DUP8 ADD CALLDATALOAD PUSH1 0xFF DUP2 AND DUP2 EQ PUSH2 0x21F8 JUMPI PUSH1 0x0 DUP1 REVERT JUMPDEST SWAP6 SWAP9 SWAP5 SWAP8 POP SWAP3 SWAP6 PUSH1 0x80 DUP2 ADD CALLDATALOAD SWAP5 PUSH1 0xA0 SWAP1 SWAP2 ADD CALLDATALOAD SWAP4 POP SWAP2 POP POP JUMP JUMPDEST PUSH1 0x0 DUP1 PUSH1 0x0 PUSH1 0x60 DUP5 DUP7 SUB SLT ISZERO PUSH2 0x2227 JUMPI PUSH1 0x0 DUP1 REVERT JUMPDEST PUSH2 0x2230 DUP5 PUSH2 0x1F63 JUMP JUMPDEST SWAP3 POP PUSH1 0x20 DUP5 ADD CALLDATALOAD PUSH8 0xFFFFFFFFFFFFFFFF DUP2 GT ISZERO PUSH2 0x224C JUMPI PUSH1 0x0 DUP1 REVERT JUMPDEST PUSH2 0x2258 DUP7 DUP3 DUP8 ADD PUSH2 0x208C JUMP JUMPDEST SWAP3 POP POP PUSH2 0x2267 PUSH1 0x40 DUP6 ADD PUSH2 0x1F63 JUMP JUMPDEST SWAP1 POP SWAP3 POP SWAP3 POP SWAP3 JUMP JUMPDEST PUSH1 0x0 DUP1 PUSH1 0x40 DUP4 DUP6 SUB SLT ISZERO PUSH2 0x2283 JUMPI PUSH1 0x0 DUP1 REVERT JUMPDEST PUSH2 0x228C DUP4 PUSH2 0x1F63 JUMP JUMPDEST SWAP2 POP PUSH2 0x229A PUSH1 0x20 DUP5 ADD PUSH2 0x1F63 JUMP JUMPDEST SWAP1 POP SWAP3 POP SWAP3 SWAP1 POP JUMP JUMPDEST PUSH1 0x1 DUP2 DUP2 SHR SWAP1 DUP3 AND DUP1 PUSH2 0x22B7 JUMPI PUSH1 0x7F DUP3 AND SWAP2 POP JUMPDEST PUSH1 0x20 DUP3 LT DUP2 SUB PUSH2 0x14E8 JUMPI PUSH4 0x4E487B71 PUSH1 0xE0 SHL PUSH1 0x0 MSTORE PUSH1 0x22 PUSH1 0x4 MSTORE PUSH1 0x24 PUSH1 0x0 REVERT JUMPDEST PUSH1 0x20 DUP1 DUP3 MSTORE PUSH1 0x2E SWAP1 DUP3 ADD MSTORE PUSH32 0x4552433732313A2063616C6C6572206973206E6F7420746F6B656E206F776E65 PUSH1 0x40 DUP3 ADD MSTORE PUSH14 0x1C881B9BDC88185C1C1C9BDD9959 PUSH1 0x92 SHL PUSH1 0x60 DUP3 ADD MSTORE PUSH1 0x80 ADD SWAP1 JUMP JUMPDEST PUSH1 0x1 DUP1 PUSH1 0xA0 SHL SUB DUP5 AND DUP2 MSTORE DUP3 PUSH1 0x20 DUP3 ADD MSTORE PUSH1 0x60 PUSH1 0x40 DUP3 ADD MSTORE PUSH1 0x0 PUSH2 0x234C PUSH1 0x60 DUP4 ADD DUP5 PUSH2 0x1F0B JUMP JUMPDEST SWAP6 SWAP5 POP POP POP POP POP JUMP JUMPDEST PUSH4 0x4E487B71 PUSH1 0xE0 SHL PUSH1 0x0 MSTORE PUSH1 0x11 PUSH1 0x4 MSTORE PUSH1 0x24 PUSH1 0x0 REVERT JUMPDEST PUSH1 0x0 DUP3 DUP3 LT ISZERO PUSH2 0x237D JUMPI PUSH2 0x237D PUSH2 0x2355 JUMP JUMPDEST POP SUB SWAP1 JUMP JUMPDEST PUSH1 0x0 DUP3 NOT DUP3 GT ISZERO PUSH2 0x2395 JUMPI PUSH2 0x2395 PUSH2 0x2355 JUMP JUMPDEST POP ADD SWAP1 JUMP JUMPDEST PUSH4 0x4E487B71 PUSH1 0xE0 SHL PUSH1 0x0 MSTORE PUSH1 0x32 PUSH1 0x4 MSTORE PUSH1 0x24 PUSH1 0x0 REVERT JUMPDEST PUSH1 0x1F DUP3 GT ISZERO PUSH2 0x5FF JUMPI PUSH1 0x0 DUP2 DUP2 MSTORE PUSH1 0x20 DUP2 KECCAK256 PUSH1 0x1F DUP6 ADD PUSH1 0x5 SHR DUP2 ADD PUSH1 0x20 DUP7 LT ISZERO PUSH2 0x23D7 JUMPI POP DUP1 JUMPDEST PUSH1 0x1F DUP6 ADD PUSH1 0x5 SHR DUP3 ADD SWAP2 POP JUMPDEST DUP2 DUP2 LT ISZERO PUSH2 0x23F6 JUMPI DUP3 DUP2 SSTORE PUSH1 0x1 ADD PUSH2 0x23E3 JUMP JUMPDEST POP POP POP POP POP POP JUMP JUMPDEST DUP2 MLOAD PUSH8 0xFFFFFFFFFFFFFFFF DUP2 GT ISZERO PUSH2 0x2418 JUMPI PUSH2 0x2418 PUSH2 0x2000 JUMP JUMPDEST PUSH2 0x242C DUP2 PUSH2 0x2426 DUP5 SLOAD PUSH2 0x22A3 JUMP JUMPDEST DUP5 PUSH2 0x23B0 JUMP JUMPDEST PUSH1 0x20 DUP1 PUSH1 0x1F DUP4 GT PUSH1 0x1 DUP2 EQ PUSH2 0x2461 JUMPI PUSH1 0x0 DUP5 ISZERO PUSH2 0x2449 JUMPI POP DUP6 DUP4 ADD MLOAD JUMPDEST PUSH1 0x0 NOT PUSH1 0x3 DUP7 SWAP1 SHL SHR NOT AND PUSH1 0x1 DUP6 SWAP1 SHL OR DUP6 SSTORE PUSH2 0x23F6 JUMP JUMPDEST PUSH1 0x0 DUP6 DUP2 MSTORE PUSH1 0x20 DUP2 KECCAK256 PUSH1 0x1F NOT DUP7 AND SWAP2 JUMPDEST DUP3 DUP2 LT ISZERO PUSH2 0x2490 JUMPI DUP9 DUP7 ADD MLOAD DUP3 SSTORE SWAP5 DUP5 ADD SWAP5 PUSH1 0x1 SWAP1 SWAP2 ADD SWAP1 DUP5 ADD PUSH2 0x2471 JUMP JUMPDEST POP DUP6 DUP3 LT ISZERO PUSH2 0x24AE JUMPI DUP8 DUP6 ADD MLOAD PUSH1 0x0 NOT PUSH1 0x3 DUP9 SWAP1 SHL PUSH1 0xF8 AND SHR NOT AND DUP2 SSTORE JUMPDEST POP POP POP POP POP PUSH1 0x1 SWAP1 DUP2 SHL ADD SWAP1 SSTORE POP JUMP JUMPDEST PUSH1 0x20 DUP1 DUP3 MSTORE PUSH1 0x32 SWAP1 DUP3 ADD MSTORE PUSH32 0x4552433732313A207472616E7366657220746F206E6F6E204552433732315265 PUSH1 0x40 DUP3 ADD MSTORE PUSH18 0x31B2B4BB32B91034B6B83632B6B2B73A32B9 PUSH1 0x71 SHL PUSH1 0x60 DUP3 ADD MSTORE PUSH1 0x80 ADD SWAP1 JUMP JUMPDEST PUSH1 0x0 DUP4 MLOAD PUSH2 0x2522 DUP2 DUP5 PUSH1 0x20 DUP9 ADD PUSH2 0x1EDF JUMP JUMPDEST DUP4 MLOAD SWAP1 DUP4 ADD SWAP1 PUSH2 0x2536 DUP2 DUP4 PUSH1 0x20 DUP9 ADD PUSH2 0x1EDF JUMP JUMPDEST ADD SWAP5 SWAP4 POP POP POP POP JUMP JUMPDEST PUSH4 0x4E487B71 PUSH1 0xE0 SHL PUSH1 0x0 MSTORE PUSH1 0x12 PUSH1 0x4 MSTORE PUSH1 0x24 PUSH1 0x0 REVERT JUMPDEST PUSH1 0x0 DUP3 PUSH2 0x2564 JUMPI PUSH2 0x2564 PUSH2 0x253F JUMP JUMPDEST POP DIV SWAP1 JUMP JUMPDEST PUSH1 0x1 PUSH1 0x1 PUSH1 0xA0 SHL SUB DUP6 DUP2 AND DUP3 MSTORE DUP5 AND PUSH1 0x20 DUP3 ADD MSTORE PUSH1 0x40 DUP2 ADD DUP4 SWAP1 MSTORE PUSH1 0x80 PUSH1 0x60 DUP3 ADD DUP2 SWAP1 MSTORE PUSH1 0x0 SWAP1 PUSH2 0x259C SWAP1 DUP4 ADD DUP5 PUSH2 0x1F0B JUMP JUMPDEST SWAP7 SWAP6 POP POP POP POP POP POP JUMP JUMPDEST PUSH1 0x0 PUSH1 0x20 DUP3 DUP5 SUB SLT ISZERO PUSH2 0x25B8 JUMPI PUSH1 0x0 DUP1 REVERT JUMPDEST DUP2 MLOAD PUSH2 0x666 DUP2 PUSH2 0x1EAC JUMP JUMPDEST PUSH4 0x4E487B71 PUSH1 0xE0 SHL PUSH1 0x0 MSTORE PUSH1 0x21 PUSH1 0x4 MSTORE PUSH1 0x24 PUSH1 0x0 REVERT JUMPDEST PUSH1 0x0 PUSH1 0x1 DUP3 ADD PUSH2 0x25EB JUMPI PUSH2 0x25EB PUSH2 0x2355 JUMP JUMPDEST POP PUSH1 0x1 ADD SWAP1 JUMP JUMPDEST PUSH1 0x0 DUP3 PUSH2 0x2601 JUMPI PUSH2 0x2601 PUSH2 0x253F JUMP JUMPDEST POP MOD SWAP1 JUMP INVALID LOG2 PUSH5 0x6970667358 0x22 SLT KECCAK256 0xC1 SGT 0xEE AND 0x2B EXTCODEHASH RETURN 0xAE 0xAB 0xEB PUSH4 0x85770221 DUP5 CODECOPY 0xB9 GAS 0xB8 LOG4 PUSH27 0xE577C33F33675A75BCDE64736F6C634300080F0033A26469706673 PC 0x22 SLT KECCAK256 PUSH16 0xDE8E50195728DE3F168BB7605F8A4E95 CODECOPY DUP14 GASLIMIT CALLCODE 0xBE 0x4E 0xF6 PUSH6 0x4AD6D927D029 KECCAK256 PUSH5 0x736F6C6343 STOP ADDMOD 0xF STOP CALLER ",
  "sha1": "3c978e5af008e95a19b0a0fbcd5a7d5e7ecb06f2",
  "source": "//SPDX-License-Identifier: MIT\n\npragma solidity ^0.8.0;\n\nimport \"./DonatyNFT.sol\";\n\ncontract DonatyNFTFactory {\n    //events\n    event newNFTContractCreated(\n        address indexed nftArtist,\n        address indexed contractAddress,\n        string title,\n        uint256 goal,\n        string initialDate,\n        string dueDate,\n        uint256 duration,\n        uint256 steps,\n        string ipfsImage\n    );\n\n    event newStepAdded(\n        string description,\n        string initialDate,\n        string dueDate,\n        address contractAddress\n    );\n\n    event newNFTMintedAndApproved(\n        address owner,\n        uint256 id,\n        string tokenUri,\n        address nftContract\n    );\n\n    // Array for contracts.\n\n    DonatyNFT[] public nftContracts;\n\n    // counter\n    uint256 private contracts = 0;\n\n    mapping(address => uint256) private nftContractsIndex;\n\n    function createNFTContract(\n        string memory _nftName,\n        string memory _tokenName,\n        uint256 _goal,\n        string[] memory _stepsInitialDate,\n        string[] memory _stepsDueDate,\n        string memory _title,\n        string memory _initialDate,\n        string memory _dueDate,\n        uint256 _duration,\n        uint256 _stepDivision,\n        string memory _ipfsImage,\n        string[] memory _descriptionSteps\n    ) public {\n        DonatyNFT newNFTContract = new DonatyNFT(_nftName, _tokenName);\n        nftContracts.push(newNFTContract);\n\n        nftContractsIndex[address(newNFTContract)] = nftContracts.length - 1;\n        contracts = contracts + 1;\n        emit newNFTContractCreated(\n            msg.sender,\n            address(newNFTContract),\n            _title,\n            _goal,\n            _initialDate,\n            _dueDate,\n            _duration,\n            _stepDivision,\n            _ipfsImage\n        );\n\n        emitEventForStep(\n            _descriptionSteps,\n            _stepsInitialDate,\n            _stepsDueDate,\n            address(newNFTContract)\n        );\n    }\n\n    function getNFTContract(uint256 _index) public view returns (address) {\n        return address(nftContracts[_index]);\n    }\n\n    function emitEventForStep(\n        string[] memory _steps,\n        string[] memory _initialDate,\n        string[] memory _dueDate,\n        address _contractAddress\n    ) internal {\n        for (uint256 i = 0; i < _steps.length; i++) {\n            emit newStepAdded(\n                _steps[i],\n                _initialDate[i],\n                _dueDate[i],\n                _contractAddress\n            );\n        }\n    }\n\n    function createCollectibleAndApproveMarket(\n        address nftContract,\n        address owner,\n        string memory _tokenURI,\n        address nftMarketPlace\n    ) public {\n        uint256 nftContractIndex = nftContractsIndex[nftContract];\n        uint256 nftId = nftContracts[nftContractIndex]\n            .createAndApproveCollectible(owner, _tokenURI, nftMarketPlace);\n        emit newNFTMintedAndApproved(owner, nftId, _tokenURI, nftContract);\n    }\n\n    // 1 address\n    // 2 busco por el mapping\n    // 3 nftContracts\n}\n",
  "sourcePath": "contracts/DonatyNFTFactory.sol",
  "type": "contract"
}