{
  "abi": [
    {
      "inputs": [
        {
          "internalType": "address",
          "name": "nftAddress",
          "type": "address"
        },
        {
          "internalType": "uint256",
          "name": "tokenId",
          "type": "uint256"
        }
      ],
      "name": "AlreadyListed",
      "type": "error"
    },
    {
      "inputs": [],
      "name": "NoProceeds",
      "type": "error"
    },
    {
      "inputs": [],
      "name": "NotApprovedForMarketplace",
      "type": "error"
    },
    {
      "inputs": [
        {
          "internalType": "address",
          "name": "nftAddress",
          "type": "address"
        },
        {
          "internalType": "uint256",
          "name": "tokenId",
          "type": "uint256"
        }
      ],
      "name": "NotListed",
      "type": "error"
    },
    {
      "inputs": [],
      "name": "NotOwner",
      "type": "error"
    },
    {
      "inputs": [],
      "name": "PriceMustBeAboveZero",
      "type": "error"
    },
    {
      "inputs": [
        {
          "internalType": "address",
          "name": "nftAddress",
          "type": "address"
        },
        {
          "internalType": "uint256",
          "name": "tokenId",
          "type": "uint256"
        },
        {
          "internalType": "uint256",
          "name": "price",
          "type": "uint256"
        }
      ],
      "name": "PriceNotMet",
      "type": "error"
    },
    {
      "anonymous": false,
      "inputs": [
        {
          "indexed": true,
          "internalType": "address",
          "name": "buyer",
          "type": "address"
        },
        {
          "indexed": true,
          "internalType": "address",
          "name": "nftAddress",
          "type": "address"
        },
        {
          "indexed": true,
          "internalType": "uint256",
          "name": "tokenId",
          "type": "uint256"
        },
        {
          "indexed": false,
          "internalType": "uint256",
          "name": "price",
          "type": "uint256"
        }
      ],
      "name": "ItemBought",
      "type": "event"
    },
    {
      "anonymous": false,
      "inputs": [
        {
          "indexed": true,
          "internalType": "address",
          "name": "seller",
          "type": "address"
        },
        {
          "indexed": true,
          "internalType": "address",
          "name": "nftAddress",
          "type": "address"
        },
        {
          "indexed": true,
          "internalType": "uint256",
          "name": "tokenId",
          "type": "uint256"
        }
      ],
      "name": "ItemCanceled",
      "type": "event"
    },
    {
      "anonymous": false,
      "inputs": [
        {
          "indexed": true,
          "internalType": "address",
          "name": "seller",
          "type": "address"
        },
        {
          "indexed": true,
          "internalType": "address",
          "name": "nftAddress",
          "type": "address"
        },
        {
          "indexed": true,
          "internalType": "uint256",
          "name": "tokenId",
          "type": "uint256"
        },
        {
          "indexed": false,
          "internalType": "uint256",
          "name": "price",
          "type": "uint256"
        }
      ],
      "name": "ItemListed",
      "type": "event"
    },
    {
      "inputs": [
        {
          "internalType": "address",
          "name": "nftAddress",
          "type": "address"
        },
        {
          "internalType": "uint256",
          "name": "tokenId",
          "type": "uint256"
        }
      ],
      "name": "buyItem",
      "outputs": [],
      "stateMutability": "payable",
      "type": "function"
    },
    {
      "inputs": [
        {
          "internalType": "address",
          "name": "nftAddress",
          "type": "address"
        },
        {
          "internalType": "uint256",
          "name": "tokenId",
          "type": "uint256"
        }
      ],
      "name": "cancelListing",
      "outputs": [],
      "stateMutability": "nonpayable",
      "type": "function"
    },
    {
      "inputs": [
        {
          "internalType": "address",
          "name": "nftAddress",
          "type": "address"
        },
        {
          "internalType": "uint256",
          "name": "tokenId",
          "type": "uint256"
        }
      ],
      "name": "getListing",
      "outputs": [
        {
          "components": [
            {
              "internalType": "uint256",
              "name": "price",
              "type": "uint256"
            },
            {
              "internalType": "address",
              "name": "seller",
              "type": "address"
            }
          ],
          "internalType": "struct NftMarketPlace.Listing",
          "name": "",
          "type": "tuple"
        }
      ],
      "stateMutability": "view",
      "type": "function"
    },
    {
      "inputs": [
        {
          "internalType": "address",
          "name": "seller",
          "type": "address"
        }
      ],
      "name": "getProceeds",
      "outputs": [
        {
          "internalType": "uint256",
          "name": "",
          "type": "uint256"
        }
      ],
      "stateMutability": "view",
      "type": "function"
    },
    {
      "inputs": [
        {
          "internalType": "address",
          "name": "nftAddress",
          "type": "address"
        },
        {
          "internalType": "uint256",
          "name": "tokenId",
          "type": "uint256"
        },
        {
          "internalType": "uint256",
          "name": "price",
          "type": "uint256"
        }
      ],
      "name": "listItem",
      "outputs": [],
      "stateMutability": "nonpayable",
      "type": "function"
    },
    {
      "inputs": [
        {
          "internalType": "address",
          "name": "nftAddress",
          "type": "address"
        },
        {
          "internalType": "uint256",
          "name": "tokenId",
          "type": "uint256"
        },
        {
          "internalType": "uint256",
          "name": "newPrice",
          "type": "uint256"
        }
      ],
      "name": "updateListing",
      "outputs": [],
      "stateMutability": "nonpayable",
      "type": "function"
    },
    {
      "inputs": [],
      "name": "withdrawProceeds",
      "outputs": [],
      "stateMutability": "nonpayable",
      "type": "function"
    }
  ],
  "bytecode": "608060405234801561001057600080fd5b506001600055610c3f806100256000396000f3fe6080604052600436106100705760003560e01c80639038e6931161004e5780639038e6931461016d5780639f37092a14610182578063b2ddee0614610195578063f772adf1146101b557600080fd5b806330cfeda91461007557806388700d1c146100be57806389bfd38f1461014b575b600080fd5b34801561008157600080fd5b506100ab610090366004610b41565b6001600160a01b031660009081526002602052604090205490565b6040519081526020015b60405180910390f35b3480156100ca57600080fd5b506101276100d9366004610b65565b604080518082018252600080825260209182018190526001600160a01b0394851681526001808352838220948252938252829020825180840190935280548352909201549092169082015290565b60408051825181526020928301516001600160a01b031692810192909252016100b5565b34801561015757600080fd5b5061016b610166366004610b91565b6101d5565b005b34801561017957600080fd5b5061016b610497565b61016b610190366004610b65565b610562565b3480156101a157600080fd5b5061016b6101b0366004610b65565b6107c1565b3480156101c157600080fd5b5061016b6101d0366004610b91565b61094a565b6001600160a01b03808416600090815260016020818152604080842087855282529283902083518085019094528054808552920154909316928201929092528491849133911561024f57604051634a5568d560e01b81526001600160a01b0385166004820152602481018490526044015b60405180910390fd5b6040516331a9108f60e11b81526004810187905287908790339083906000906001600160a01b03831690636352211e90602401602060405180830381865afa15801561029f573d6000803e3d6000fd5b505050506040513d601f19601f820116820180604052508101906102c39190610bc6565b9050806001600160a01b0316836001600160a01b0316146102f7576040516330cd747160e01b815260040160405180910390fd5b60008a116103185760405163e1abbfc560e01b815260040160405180910390fd5b60405163020604bf60e21b8152600481018c90528c9030906001600160a01b0383169063081812fc90602401602060405180830381865afa158015610361573d6000803e3d6000fd5b505050506040513d601f19601f820116820180604052508101906103859190610bc6565b6001600160a01b0316146103ac57604051634be3a2c560e01b815260040160405180910390fd5b60405180604001604052808c8152602001336001600160a01b0316815250600160008f6001600160a01b03166001600160a01b0316815260200190815260200160002060008e81526020019081526020016000206000820151816000015560208201518160010160006101000a8154816001600160a01b0302191690836001600160a01b031602179055509050508b8d6001600160a01b0316336001600160a01b03167fd547e933094f12a9159076970143ebe73234e64480317844b0dcb36117116de48e60405161048091815260200190565b60405180910390a450505050505050505050505050565b33600090815260026020526040902054806104c55760405163c4d8fa8760e01b815260040160405180910390fd5b336000818152600260205260408082208290555190919083908381818185875af1925050503d8060008114610516576040519150601f19603f3d011682016040523d82523d6000602084013e61051b565b606091505b505090508061055e5760405162461bcd60e51b815260206004820152600f60248201526e151c985b9cd9995c8819985a5b1959608a1b6044820152606401610246565b5050565b6001600160a01b038083166000908152600160208181526040808420868552825292839020835180850190945280548085529201549093169282019290925283918391906105d557604051631a0c522360e21b81526001600160a01b038416600482015260248101839052604401610246565b6002600054036106275760405162461bcd60e51b815260206004820152601f60248201527f5265656e7472616e637947756172643a207265656e7472616e742063616c6c006044820152606401610246565b600260009081556001600160a01b03808716825260016020818152604080852089865282529384902084518086019095528054808652920154909216918301919091523410156106a6578051604051637c93456560e01b81526001600160a01b0388166004820152602481018790526044810191909152606401610246565b6020808201516001600160a01b0316600090815260029091526040812080543492906106d3908490610be3565b90915550506001600160a01b0386811660008181526001602081815260408084208b855282528084209384559290910180546001600160a01b03191690558401519051632142170760e11b81529216600483015233602483015260448201879052906342842e0e90606401600060405180830381600087803b15801561075857600080fd5b505af115801561076c573d6000803e3d6000fd5b505082516040519081528792506001600160a01b038916915033907f263223b1dd81e51054a4e6f791d45a4a1ddb4aadcd93a2dfd892615c3fdac1879060200160405180910390a45050600160005550505050565b6040516331a9108f60e11b81526004810182905282908290339083906000906001600160a01b03831690636352211e90602401602060405180830381865afa158015610811573d6000803e3d6000fd5b505050506040513d601f19601f820116820180604052508101906108359190610bc6565b9050806001600160a01b0316836001600160a01b031614610869576040516330cd747160e01b815260040160405180910390fd5b6001600160a01b0380881660009081526001602081815260408084208b8552825292839020835180850190945280548085529201549093169282019290925288918891906108dc57604051631a0c522360e21b81526001600160a01b038416600482015260248101839052604401610246565b6001600160a01b038a1660008181526001602081815260408084208e855290915280832083815590910180546001600160a01b0319169055518b929133917f9ba1a3cb55ce8d63d072a886f94d2a744f50cddf82128e897d0661f5ec6231589190a450505050505050505050565b6001600160a01b038084166000908152600160208181526040808420878552825292839020835180850190945280548085529201549093169282019290925284918491906109bd57604051631a0c522360e21b81526001600160a01b038416600482015260248101839052604401610246565b600260005403610a0f5760405162461bcd60e51b815260206004820152601f60248201527f5265656e7472616e637947756172643a207265656e7472616e742063616c6c006044820152606401610246565b600260009081556040516331a9108f60e11b81526004810187905287918791339184916001600160a01b03831690636352211e90602401602060405180830381865afa158015610a63573d6000803e3d6000fd5b505050506040513d601f19601f82011682018060405250810190610a879190610bc6565b9050806001600160a01b0316836001600160a01b031614610abb576040516330cd747160e01b815260040160405180910390fd5b6001600160a01b038b1660008181526001602090815260408083208e84528252918290208c905590518b81528c929133917fd547e933094f12a9159076970143ebe73234e64480317844b0dcb36117116de4910160405180910390a450506001600055505050505050505050565b6001600160a01b0381168114610b3e57600080fd5b50565b600060208284031215610b5357600080fd5b8135610b5e81610b29565b9392505050565b60008060408385031215610b7857600080fd5b8235610b8381610b29565b946020939093013593505050565b600080600060608486031215610ba657600080fd5b8335610bb181610b29565b95602085013595506040909401359392505050565b600060208284031215610bd857600080fd5b8151610b5e81610b29565b60008219821115610c0457634e487b7160e01b600052601160045260246000fd5b50019056fea26469706673582212202513a9c0cc0723f95440b6a487691555979490de1dc9c24a6163f37fabc57e9e64736f6c634300080f0033",
  "bytecodeSha1": "86e5ebbe3dbd7d554a92c357acedd7314472cef1",
  "compiler": {
    "evm_version": "istanbul",
    "optimizer": {
      "enabled": true,
      "runs": 200
    },
    "version": "0.8.15+commit.e14f2714"
  },
  "contractName": "NftMarketPlace",
  "language": "Solidity",
  "natspec": {
    "kind": "dev",
    "methods": {},
    "version": 1
  },
  "opcodes": "PUSH1 0x80 PUSH1 0x40 MSTORE PUSH1 0x4 CALLDATASIZE LT PUSH2 0x70 JUMPI PUSH1 0x0 CALLDATALOAD PUSH1 0xE0 SHR DUP1 PUSH4 0x9038E693 GT PUSH2 0x4E JUMPI DUP1 PUSH4 0x9038E693 EQ PUSH2 0x16D JUMPI DUP1 PUSH4 0x9F37092A EQ PUSH2 0x182 JUMPI DUP1 PUSH4 0xB2DDEE06 EQ PUSH2 0x195 JUMPI DUP1 PUSH4 0xF772ADF1 EQ PUSH2 0x1B5 JUMPI PUSH1 0x0 DUP1 REVERT JUMPDEST DUP1 PUSH4 0x30CFEDA9 EQ PUSH2 0x75 JUMPI DUP1 PUSH4 0x88700D1C EQ PUSH2 0xBE JUMPI DUP1 PUSH4 0x89BFD38F EQ PUSH2 0x14B JUMPI JUMPDEST PUSH1 0x0 DUP1 REVERT JUMPDEST CALLVALUE DUP1 ISZERO PUSH2 0x81 JUMPI PUSH1 0x0 DUP1 REVERT JUMPDEST POP PUSH2 0xAB PUSH2 0x90 CALLDATASIZE PUSH1 0x4 PUSH2 0xB41 JUMP JUMPDEST PUSH1 0x1 PUSH1 0x1 PUSH1 0xA0 SHL SUB AND PUSH1 0x0 SWAP1 DUP2 MSTORE PUSH1 0x2 PUSH1 0x20 MSTORE PUSH1 0x40 SWAP1 KECCAK256 SLOAD SWAP1 JUMP JUMPDEST PUSH1 0x40 MLOAD SWAP1 DUP2 MSTORE PUSH1 0x20 ADD JUMPDEST PUSH1 0x40 MLOAD DUP1 SWAP2 SUB SWAP1 RETURN JUMPDEST CALLVALUE DUP1 ISZERO PUSH2 0xCA JUMPI PUSH1 0x0 DUP1 REVERT JUMPDEST POP PUSH2 0x127 PUSH2 0xD9 CALLDATASIZE PUSH1 0x4 PUSH2 0xB65 JUMP JUMPDEST PUSH1 0x40 DUP1 MLOAD DUP1 DUP3 ADD DUP3 MSTORE PUSH1 0x0 DUP1 DUP3 MSTORE PUSH1 0x20 SWAP2 DUP3 ADD DUP2 SWAP1 MSTORE PUSH1 0x1 PUSH1 0x1 PUSH1 0xA0 SHL SUB SWAP5 DUP6 AND DUP2 MSTORE PUSH1 0x1 DUP1 DUP4 MSTORE DUP4 DUP3 KECCAK256 SWAP5 DUP3 MSTORE SWAP4 DUP3 MSTORE DUP3 SWAP1 KECCAK256 DUP3 MLOAD DUP1 DUP5 ADD SWAP1 SWAP4 MSTORE DUP1 SLOAD DUP4 MSTORE SWAP1 SWAP3 ADD SLOAD SWAP1 SWAP3 AND SWAP1 DUP3 ADD MSTORE SWAP1 JUMP JUMPDEST PUSH1 0x40 DUP1 MLOAD DUP3 MLOAD DUP2 MSTORE PUSH1 0x20 SWAP3 DUP4 ADD MLOAD PUSH1 0x1 PUSH1 0x1 PUSH1 0xA0 SHL SUB AND SWAP3 DUP2 ADD SWAP3 SWAP1 SWAP3 MSTORE ADD PUSH2 0xB5 JUMP JUMPDEST CALLVALUE DUP1 ISZERO PUSH2 0x157 JUMPI PUSH1 0x0 DUP1 REVERT JUMPDEST POP PUSH2 0x16B PUSH2 0x166 CALLDATASIZE PUSH1 0x4 PUSH2 0xB91 JUMP JUMPDEST PUSH2 0x1D5 JUMP JUMPDEST STOP JUMPDEST CALLVALUE DUP1 ISZERO PUSH2 0x179 JUMPI PUSH1 0x0 DUP1 REVERT JUMPDEST POP PUSH2 0x16B PUSH2 0x497 JUMP JUMPDEST PUSH2 0x16B PUSH2 0x190 CALLDATASIZE PUSH1 0x4 PUSH2 0xB65 JUMP JUMPDEST PUSH2 0x562 JUMP JUMPDEST CALLVALUE DUP1 ISZERO PUSH2 0x1A1 JUMPI PUSH1 0x0 DUP1 REVERT JUMPDEST POP PUSH2 0x16B PUSH2 0x1B0 CALLDATASIZE PUSH1 0x4 PUSH2 0xB65 JUMP JUMPDEST PUSH2 0x7C1 JUMP JUMPDEST CALLVALUE DUP1 ISZERO PUSH2 0x1C1 JUMPI PUSH1 0x0 DUP1 REVERT JUMPDEST POP PUSH2 0x16B PUSH2 0x1D0 CALLDATASIZE PUSH1 0x4 PUSH2 0xB91 JUMP JUMPDEST PUSH2 0x94A JUMP JUMPDEST PUSH1 0x1 PUSH1 0x1 PUSH1 0xA0 SHL SUB DUP1 DUP5 AND PUSH1 0x0 SWAP1 DUP2 MSTORE PUSH1 0x1 PUSH1 0x20 DUP2 DUP2 MSTORE PUSH1 0x40 DUP1 DUP5 KECCAK256 DUP8 DUP6 MSTORE DUP3 MSTORE SWAP3 DUP4 SWAP1 KECCAK256 DUP4 MLOAD DUP1 DUP6 ADD SWAP1 SWAP5 MSTORE DUP1 SLOAD DUP1 DUP6 MSTORE SWAP3 ADD SLOAD SWAP1 SWAP4 AND SWAP3 DUP3 ADD SWAP3 SWAP1 SWAP3 MSTORE DUP5 SWAP2 DUP5 SWAP2 CALLER SWAP2 ISZERO PUSH2 0x24F JUMPI PUSH1 0x40 MLOAD PUSH4 0x4A5568D5 PUSH1 0xE0 SHL DUP2 MSTORE PUSH1 0x1 PUSH1 0x1 PUSH1 0xA0 SHL SUB DUP6 AND PUSH1 0x4 DUP3 ADD MSTORE PUSH1 0x24 DUP2 ADD DUP5 SWAP1 MSTORE PUSH1 0x44 ADD JUMPDEST PUSH1 0x40 MLOAD DUP1 SWAP2 SUB SWAP1 REVERT JUMPDEST PUSH1 0x40 MLOAD PUSH4 0x31A9108F PUSH1 0xE1 SHL DUP2 MSTORE PUSH1 0x4 DUP2 ADD DUP8 SWAP1 MSTORE DUP8 SWAP1 DUP8 SWAP1 CALLER SWAP1 DUP4 SWAP1 PUSH1 0x0 SWAP1 PUSH1 0x1 PUSH1 0x1 PUSH1 0xA0 SHL SUB DUP4 AND SWAP1 PUSH4 0x6352211E SWAP1 PUSH1 0x24 ADD PUSH1 0x20 PUSH1 0x40 MLOAD DUP1 DUP4 SUB DUP2 DUP7 GAS STATICCALL ISZERO DUP1 ISZERO PUSH2 0x29F JUMPI RETURNDATASIZE PUSH1 0x0 DUP1 RETURNDATACOPY RETURNDATASIZE PUSH1 0x0 REVERT JUMPDEST POP POP POP POP PUSH1 0x40 MLOAD RETURNDATASIZE PUSH1 0x1F NOT PUSH1 0x1F DUP3 ADD AND DUP3 ADD DUP1 PUSH1 0x40 MSTORE POP DUP2 ADD SWAP1 PUSH2 0x2C3 SWAP2 SWAP1 PUSH2 0xBC6 JUMP JUMPDEST SWAP1 POP DUP1 PUSH1 0x1 PUSH1 0x1 PUSH1 0xA0 SHL SUB AND DUP4 PUSH1 0x1 PUSH1 0x1 PUSH1 0xA0 SHL SUB AND EQ PUSH2 0x2F7 JUMPI PUSH1 0x40 MLOAD PUSH4 0x30CD7471 PUSH1 0xE0 SHL DUP2 MSTORE PUSH1 0x4 ADD PUSH1 0x40 MLOAD DUP1 SWAP2 SUB SWAP1 REVERT JUMPDEST PUSH1 0x0 DUP11 GT PUSH2 0x318 JUMPI PUSH1 0x40 MLOAD PUSH4 0xE1ABBFC5 PUSH1 0xE0 SHL DUP2 MSTORE PUSH1 0x4 ADD PUSH1 0x40 MLOAD DUP1 SWAP2 SUB SWAP1 REVERT JUMPDEST PUSH1 0x40 MLOAD PUSH4 0x20604BF PUSH1 0xE2 SHL DUP2 MSTORE PUSH1 0x4 DUP2 ADD DUP13 SWAP1 MSTORE DUP13 SWAP1 ADDRESS SWAP1 PUSH1 0x1 PUSH1 0x1 PUSH1 0xA0 SHL SUB DUP4 AND SWAP1 PUSH4 0x81812FC SWAP1 PUSH1 0x24 ADD PUSH1 0x20 PUSH1 0x40 MLOAD DUP1 DUP4 SUB DUP2 DUP7 GAS STATICCALL ISZERO DUP1 ISZERO PUSH2 0x361 JUMPI RETURNDATASIZE PUSH1 0x0 DUP1 RETURNDATACOPY RETURNDATASIZE PUSH1 0x0 REVERT JUMPDEST POP POP POP POP PUSH1 0x40 MLOAD RETURNDATASIZE PUSH1 0x1F NOT PUSH1 0x1F DUP3 ADD AND DUP3 ADD DUP1 PUSH1 0x40 MSTORE POP DUP2 ADD SWAP1 PUSH2 0x385 SWAP2 SWAP1 PUSH2 0xBC6 JUMP JUMPDEST PUSH1 0x1 PUSH1 0x1 PUSH1 0xA0 SHL SUB AND EQ PUSH2 0x3AC JUMPI PUSH1 0x40 MLOAD PUSH4 0x4BE3A2C5 PUSH1 0xE0 SHL DUP2 MSTORE PUSH1 0x4 ADD PUSH1 0x40 MLOAD DUP1 SWAP2 SUB SWAP1 REVERT JUMPDEST PUSH1 0x40 MLOAD DUP1 PUSH1 0x40 ADD PUSH1 0x40 MSTORE DUP1 DUP13 DUP2 MSTORE PUSH1 0x20 ADD CALLER PUSH1 0x1 PUSH1 0x1 PUSH1 0xA0 SHL SUB AND DUP2 MSTORE POP PUSH1 0x1 PUSH1 0x0 DUP16 PUSH1 0x1 PUSH1 0x1 PUSH1 0xA0 SHL SUB AND PUSH1 0x1 PUSH1 0x1 PUSH1 0xA0 SHL SUB AND DUP2 MSTORE PUSH1 0x20 ADD SWAP1 DUP2 MSTORE PUSH1 0x20 ADD PUSH1 0x0 KECCAK256 PUSH1 0x0 DUP15 DUP2 MSTORE PUSH1 0x20 ADD SWAP1 DUP2 MSTORE PUSH1 0x20 ADD PUSH1 0x0 KECCAK256 PUSH1 0x0 DUP3 ADD MLOAD DUP2 PUSH1 0x0 ADD SSTORE PUSH1 0x20 DUP3 ADD MLOAD DUP2 PUSH1 0x1 ADD PUSH1 0x0 PUSH2 0x100 EXP DUP2 SLOAD DUP2 PUSH1 0x1 PUSH1 0x1 PUSH1 0xA0 SHL SUB MUL NOT AND SWAP1 DUP4 PUSH1 0x1 PUSH1 0x1 PUSH1 0xA0 SHL SUB AND MUL OR SWAP1 SSTORE POP SWAP1 POP POP DUP12 DUP14 PUSH1 0x1 PUSH1 0x1 PUSH1 0xA0 SHL SUB AND CALLER PUSH1 0x1 PUSH1 0x1 PUSH1 0xA0 SHL SUB AND PUSH32 0xD547E933094F12A9159076970143EBE73234E64480317844B0DCB36117116DE4 DUP15 PUSH1 0x40 MLOAD PUSH2 0x480 SWAP2 DUP2 MSTORE PUSH1 0x20 ADD SWAP1 JUMP JUMPDEST PUSH1 0x40 MLOAD DUP1 SWAP2 SUB SWAP1 LOG4 POP POP POP POP POP POP POP POP POP POP POP POP POP JUMP JUMPDEST CALLER PUSH1 0x0 SWAP1 DUP2 MSTORE PUSH1 0x2 PUSH1 0x20 MSTORE PUSH1 0x40 SWAP1 KECCAK256 SLOAD DUP1 PUSH2 0x4C5 JUMPI PUSH1 0x40 MLOAD PUSH4 0xC4D8FA87 PUSH1 0xE0 SHL DUP2 MSTORE PUSH1 0x4 ADD PUSH1 0x40 MLOAD DUP1 SWAP2 SUB SWAP1 REVERT JUMPDEST CALLER PUSH1 0x0 DUP2 DUP2 MSTORE PUSH1 0x2 PUSH1 0x20 MSTORE PUSH1 0x40 DUP1 DUP3 KECCAK256 DUP3 SWAP1 SSTORE MLOAD SWAP1 SWAP2 SWAP1 DUP4 SWAP1 DUP4 DUP2 DUP2 DUP2 DUP6 DUP8 GAS CALL SWAP3 POP POP POP RETURNDATASIZE DUP1 PUSH1 0x0 DUP2 EQ PUSH2 0x516 JUMPI PUSH1 0x40 MLOAD SWAP2 POP PUSH1 0x1F NOT PUSH1 0x3F RETURNDATASIZE ADD AND DUP3 ADD PUSH1 0x40 MSTORE RETURNDATASIZE DUP3 MSTORE RETURNDATASIZE PUSH1 0x0 PUSH1 0x20 DUP5 ADD RETURNDATACOPY PUSH2 0x51B JUMP JUMPDEST PUSH1 0x60 SWAP2 POP JUMPDEST POP POP SWAP1 POP DUP1 PUSH2 0x55E JUMPI PUSH1 0x40 MLOAD PUSH3 0x461BCD PUSH1 0xE5 SHL DUP2 MSTORE PUSH1 0x20 PUSH1 0x4 DUP3 ADD MSTORE PUSH1 0xF PUSH1 0x24 DUP3 ADD MSTORE PUSH15 0x151C985B9CD9995C8819985A5B1959 PUSH1 0x8A SHL PUSH1 0x44 DUP3 ADD MSTORE PUSH1 0x64 ADD PUSH2 0x246 JUMP JUMPDEST POP POP JUMP JUMPDEST PUSH1 0x1 PUSH1 0x1 PUSH1 0xA0 SHL SUB DUP1 DUP4 AND PUSH1 0x0 SWAP1 DUP2 MSTORE PUSH1 0x1 PUSH1 0x20 DUP2 DUP2 MSTORE PUSH1 0x40 DUP1 DUP5 KECCAK256 DUP7 DUP6 MSTORE DUP3 MSTORE SWAP3 DUP4 SWAP1 KECCAK256 DUP4 MLOAD DUP1 DUP6 ADD SWAP1 SWAP5 MSTORE DUP1 SLOAD DUP1 DUP6 MSTORE SWAP3 ADD SLOAD SWAP1 SWAP4 AND SWAP3 DUP3 ADD SWAP3 SWAP1 SWAP3 MSTORE DUP4 SWAP2 DUP4 SWAP2 SWAP1 PUSH2 0x5D5 JUMPI PUSH1 0x40 MLOAD PUSH4 0x1A0C5223 PUSH1 0xE2 SHL DUP2 MSTORE PUSH1 0x1 PUSH1 0x1 PUSH1 0xA0 SHL SUB DUP5 AND PUSH1 0x4 DUP3 ADD MSTORE PUSH1 0x24 DUP2 ADD DUP4 SWAP1 MSTORE PUSH1 0x44 ADD PUSH2 0x246 JUMP JUMPDEST PUSH1 0x2 PUSH1 0x0 SLOAD SUB PUSH2 0x627 JUMPI PUSH1 0x40 MLOAD PUSH3 0x461BCD PUSH1 0xE5 SHL DUP2 MSTORE PUSH1 0x20 PUSH1 0x4 DUP3 ADD MSTORE PUSH1 0x1F PUSH1 0x24 DUP3 ADD MSTORE PUSH32 0x5265656E7472616E637947756172643A207265656E7472616E742063616C6C00 PUSH1 0x44 DUP3 ADD MSTORE PUSH1 0x64 ADD PUSH2 0x246 JUMP JUMPDEST PUSH1 0x2 PUSH1 0x0 SWAP1 DUP2 SSTORE PUSH1 0x1 PUSH1 0x1 PUSH1 0xA0 SHL SUB DUP1 DUP8 AND DUP3 MSTORE PUSH1 0x1 PUSH1 0x20 DUP2 DUP2 MSTORE PUSH1 0x40 DUP1 DUP6 KECCAK256 DUP10 DUP7 MSTORE DUP3 MSTORE SWAP4 DUP5 SWAP1 KECCAK256 DUP5 MLOAD DUP1 DUP7 ADD SWAP1 SWAP6 MSTORE DUP1 SLOAD DUP1 DUP7 MSTORE SWAP3 ADD SLOAD SWAP1 SWAP3 AND SWAP2 DUP4 ADD SWAP2 SWAP1 SWAP2 MSTORE CALLVALUE LT ISZERO PUSH2 0x6A6 JUMPI DUP1 MLOAD PUSH1 0x40 MLOAD PUSH4 0x7C934565 PUSH1 0xE0 SHL DUP2 MSTORE PUSH1 0x1 PUSH1 0x1 PUSH1 0xA0 SHL SUB DUP9 AND PUSH1 0x4 DUP3 ADD MSTORE PUSH1 0x24 DUP2 ADD DUP8 SWAP1 MSTORE PUSH1 0x44 DUP2 ADD SWAP2 SWAP1 SWAP2 MSTORE PUSH1 0x64 ADD PUSH2 0x246 JUMP JUMPDEST PUSH1 0x20 DUP1 DUP3 ADD MLOAD PUSH1 0x1 PUSH1 0x1 PUSH1 0xA0 SHL SUB AND PUSH1 0x0 SWAP1 DUP2 MSTORE PUSH1 0x2 SWAP1 SWAP2 MSTORE PUSH1 0x40 DUP2 KECCAK256 DUP1 SLOAD CALLVALUE SWAP3 SWAP1 PUSH2 0x6D3 SWAP1 DUP5 SWAP1 PUSH2 0xBE3 JUMP JUMPDEST SWAP1 SWAP2 SSTORE POP POP PUSH1 0x1 PUSH1 0x1 PUSH1 0xA0 SHL SUB DUP7 DUP2 AND PUSH1 0x0 DUP2 DUP2 MSTORE PUSH1 0x1 PUSH1 0x20 DUP2 DUP2 MSTORE PUSH1 0x40 DUP1 DUP5 KECCAK256 DUP12 DUP6 MSTORE DUP3 MSTORE DUP1 DUP5 KECCAK256 SWAP4 DUP5 SSTORE SWAP3 SWAP1 SWAP2 ADD DUP1 SLOAD PUSH1 0x1 PUSH1 0x1 PUSH1 0xA0 SHL SUB NOT AND SWAP1 SSTORE DUP5 ADD MLOAD SWAP1 MLOAD PUSH4 0x21421707 PUSH1 0xE1 SHL DUP2 MSTORE SWAP3 AND PUSH1 0x4 DUP4 ADD MSTORE CALLER PUSH1 0x24 DUP4 ADD MSTORE PUSH1 0x44 DUP3 ADD DUP8 SWAP1 MSTORE SWAP1 PUSH4 0x42842E0E SWAP1 PUSH1 0x64 ADD PUSH1 0x0 PUSH1 0x40 MLOAD DUP1 DUP4 SUB DUP2 PUSH1 0x0 DUP8 DUP1 EXTCODESIZE ISZERO DUP1 ISZERO PUSH2 0x758 JUMPI PUSH1 0x0 DUP1 REVERT JUMPDEST POP GAS CALL ISZERO DUP1 ISZERO PUSH2 0x76C JUMPI RETURNDATASIZE PUSH1 0x0 DUP1 RETURNDATACOPY RETURNDATASIZE PUSH1 0x0 REVERT JUMPDEST POP POP DUP3 MLOAD PUSH1 0x40 MLOAD SWAP1 DUP2 MSTORE DUP8 SWAP3 POP PUSH1 0x1 PUSH1 0x1 PUSH1 0xA0 SHL SUB DUP10 AND SWAP2 POP CALLER SWAP1 PUSH32 0x263223B1DD81E51054A4E6F791D45A4A1DDB4AADCD93A2DFD892615C3FDAC187 SWAP1 PUSH1 0x20 ADD PUSH1 0x40 MLOAD DUP1 SWAP2 SUB SWAP1 LOG4 POP POP PUSH1 0x1 PUSH1 0x0 SSTORE POP POP POP POP JUMP JUMPDEST PUSH1 0x40 MLOAD PUSH4 0x31A9108F PUSH1 0xE1 SHL DUP2 MSTORE PUSH1 0x4 DUP2 ADD DUP3 SWAP1 MSTORE DUP3 SWAP1 DUP3 SWAP1 CALLER SWAP1 DUP4 SWAP1 PUSH1 0x0 SWAP1 PUSH1 0x1 PUSH1 0x1 PUSH1 0xA0 SHL SUB DUP4 AND SWAP1 PUSH4 0x6352211E SWAP1 PUSH1 0x24 ADD PUSH1 0x20 PUSH1 0x40 MLOAD DUP1 DUP4 SUB DUP2 DUP7 GAS STATICCALL ISZERO DUP1 ISZERO PUSH2 0x811 JUMPI RETURNDATASIZE PUSH1 0x0 DUP1 RETURNDATACOPY RETURNDATASIZE PUSH1 0x0 REVERT JUMPDEST POP POP POP POP PUSH1 0x40 MLOAD RETURNDATASIZE PUSH1 0x1F NOT PUSH1 0x1F DUP3 ADD AND DUP3 ADD DUP1 PUSH1 0x40 MSTORE POP DUP2 ADD SWAP1 PUSH2 0x835 SWAP2 SWAP1 PUSH2 0xBC6 JUMP JUMPDEST SWAP1 POP DUP1 PUSH1 0x1 PUSH1 0x1 PUSH1 0xA0 SHL SUB AND DUP4 PUSH1 0x1 PUSH1 0x1 PUSH1 0xA0 SHL SUB AND EQ PUSH2 0x869 JUMPI PUSH1 0x40 MLOAD PUSH4 0x30CD7471 PUSH1 0xE0 SHL DUP2 MSTORE PUSH1 0x4 ADD PUSH1 0x40 MLOAD DUP1 SWAP2 SUB SWAP1 REVERT JUMPDEST PUSH1 0x1 PUSH1 0x1 PUSH1 0xA0 SHL SUB DUP1 DUP9 AND PUSH1 0x0 SWAP1 DUP2 MSTORE PUSH1 0x1 PUSH1 0x20 DUP2 DUP2 MSTORE PUSH1 0x40 DUP1 DUP5 KECCAK256 DUP12 DUP6 MSTORE DUP3 MSTORE SWAP3 DUP4 SWAP1 KECCAK256 DUP4 MLOAD DUP1 DUP6 ADD SWAP1 SWAP5 MSTORE DUP1 SLOAD DUP1 DUP6 MSTORE SWAP3 ADD SLOAD SWAP1 SWAP4 AND SWAP3 DUP3 ADD SWAP3 SWAP1 SWAP3 MSTORE DUP9 SWAP2 DUP9 SWAP2 SWAP1 PUSH2 0x8DC JUMPI PUSH1 0x40 MLOAD PUSH4 0x1A0C5223 PUSH1 0xE2 SHL DUP2 MSTORE PUSH1 0x1 PUSH1 0x1 PUSH1 0xA0 SHL SUB DUP5 AND PUSH1 0x4 DUP3 ADD MSTORE PUSH1 0x24 DUP2 ADD DUP4 SWAP1 MSTORE PUSH1 0x44 ADD PUSH2 0x246 JUMP JUMPDEST PUSH1 0x1 PUSH1 0x1 PUSH1 0xA0 SHL SUB DUP11 AND PUSH1 0x0 DUP2 DUP2 MSTORE PUSH1 0x1 PUSH1 0x20 DUP2 DUP2 MSTORE PUSH1 0x40 DUP1 DUP5 KECCAK256 DUP15 DUP6 MSTORE SWAP1 SWAP2 MSTORE DUP1 DUP4 KECCAK256 DUP4 DUP2 SSTORE SWAP1 SWAP2 ADD DUP1 SLOAD PUSH1 0x1 PUSH1 0x1 PUSH1 0xA0 SHL SUB NOT AND SWAP1 SSTORE MLOAD DUP12 SWAP3 SWAP2 CALLER SWAP2 PUSH32 0x9BA1A3CB55CE8D63D072A886F94D2A744F50CDDF82128E897D0661F5EC623158 SWAP2 SWAP1 LOG4 POP POP POP POP POP POP POP POP POP POP JUMP JUMPDEST PUSH1 0x1 PUSH1 0x1 PUSH1 0xA0 SHL SUB DUP1 DUP5 AND PUSH1 0x0 SWAP1 DUP2 MSTORE PUSH1 0x1 PUSH1 0x20 DUP2 DUP2 MSTORE PUSH1 0x40 DUP1 DUP5 KECCAK256 DUP8 DUP6 MSTORE DUP3 MSTORE SWAP3 DUP4 SWAP1 KECCAK256 DUP4 MLOAD DUP1 DUP6 ADD SWAP1 SWAP5 MSTORE DUP1 SLOAD DUP1 DUP6 MSTORE SWAP3 ADD SLOAD SWAP1 SWAP4 AND SWAP3 DUP3 ADD SWAP3 SWAP1 SWAP3 MSTORE DUP5 SWAP2 DUP5 SWAP2 SWAP1 PUSH2 0x9BD JUMPI PUSH1 0x40 MLOAD PUSH4 0x1A0C5223 PUSH1 0xE2 SHL DUP2 MSTORE PUSH1 0x1 PUSH1 0x1 PUSH1 0xA0 SHL SUB DUP5 AND PUSH1 0x4 DUP3 ADD MSTORE PUSH1 0x24 DUP2 ADD DUP4 SWAP1 MSTORE PUSH1 0x44 ADD PUSH2 0x246 JUMP JUMPDEST PUSH1 0x2 PUSH1 0x0 SLOAD SUB PUSH2 0xA0F JUMPI PUSH1 0x40 MLOAD PUSH3 0x461BCD PUSH1 0xE5 SHL DUP2 MSTORE PUSH1 0x20 PUSH1 0x4 DUP3 ADD MSTORE PUSH1 0x1F PUSH1 0x24 DUP3 ADD MSTORE PUSH32 0x5265656E7472616E637947756172643A207265656E7472616E742063616C6C00 PUSH1 0x44 DUP3 ADD MSTORE PUSH1 0x64 ADD PUSH2 0x246 JUMP JUMPDEST PUSH1 0x2 PUSH1 0x0 SWAP1 DUP2 SSTORE PUSH1 0x40 MLOAD PUSH4 0x31A9108F PUSH1 0xE1 SHL DUP2 MSTORE PUSH1 0x4 DUP2 ADD DUP8 SWAP1 MSTORE DUP8 SWAP2 DUP8 SWAP2 CALLER SWAP2 DUP5 SWAP2 PUSH1 0x1 PUSH1 0x1 PUSH1 0xA0 SHL SUB DUP4 AND SWAP1 PUSH4 0x6352211E SWAP1 PUSH1 0x24 ADD PUSH1 0x20 PUSH1 0x40 MLOAD DUP1 DUP4 SUB DUP2 DUP7 GAS STATICCALL ISZERO DUP1 ISZERO PUSH2 0xA63 JUMPI RETURNDATASIZE PUSH1 0x0 DUP1 RETURNDATACOPY RETURNDATASIZE PUSH1 0x0 REVERT JUMPDEST POP POP POP POP PUSH1 0x40 MLOAD RETURNDATASIZE PUSH1 0x1F NOT PUSH1 0x1F DUP3 ADD AND DUP3 ADD DUP1 PUSH1 0x40 MSTORE POP DUP2 ADD SWAP1 PUSH2 0xA87 SWAP2 SWAP1 PUSH2 0xBC6 JUMP JUMPDEST SWAP1 POP DUP1 PUSH1 0x1 PUSH1 0x1 PUSH1 0xA0 SHL SUB AND DUP4 PUSH1 0x1 PUSH1 0x1 PUSH1 0xA0 SHL SUB AND EQ PUSH2 0xABB JUMPI PUSH1 0x40 MLOAD PUSH4 0x30CD7471 PUSH1 0xE0 SHL DUP2 MSTORE PUSH1 0x4 ADD PUSH1 0x40 MLOAD DUP1 SWAP2 SUB SWAP1 REVERT JUMPDEST PUSH1 0x1 PUSH1 0x1 PUSH1 0xA0 SHL SUB DUP12 AND PUSH1 0x0 DUP2 DUP2 MSTORE PUSH1 0x1 PUSH1 0x20 SWAP1 DUP2 MSTORE PUSH1 0x40 DUP1 DUP4 KECCAK256 DUP15 DUP5 MSTORE DUP3 MSTORE SWAP2 DUP3 SWAP1 KECCAK256 DUP13 SWAP1 SSTORE SWAP1 MLOAD DUP12 DUP2 MSTORE DUP13 SWAP3 SWAP2 CALLER SWAP2 PUSH32 0xD547E933094F12A9159076970143EBE73234E64480317844B0DCB36117116DE4 SWAP2 ADD PUSH1 0x40 MLOAD DUP1 SWAP2 SUB SWAP1 LOG4 POP POP PUSH1 0x1 PUSH1 0x0 SSTORE POP POP POP POP POP POP POP POP POP JUMP JUMPDEST PUSH1 0x1 PUSH1 0x1 PUSH1 0xA0 SHL SUB DUP2 AND DUP2 EQ PUSH2 0xB3E JUMPI PUSH1 0x0 DUP1 REVERT JUMPDEST POP JUMP JUMPDEST PUSH1 0x0 PUSH1 0x20 DUP3 DUP5 SUB SLT ISZERO PUSH2 0xB53 JUMPI PUSH1 0x0 DUP1 REVERT JUMPDEST DUP2 CALLDATALOAD PUSH2 0xB5E DUP2 PUSH2 0xB29 JUMP JUMPDEST SWAP4 SWAP3 POP POP POP JUMP JUMPDEST PUSH1 0x0 DUP1 PUSH1 0x40 DUP4 DUP6 SUB SLT ISZERO PUSH2 0xB78 JUMPI PUSH1 0x0 DUP1 REVERT JUMPDEST DUP3 CALLDATALOAD PUSH2 0xB83 DUP2 PUSH2 0xB29 JUMP JUMPDEST SWAP5 PUSH1 0x20 SWAP4 SWAP1 SWAP4 ADD CALLDATALOAD SWAP4 POP POP POP JUMP JUMPDEST PUSH1 0x0 DUP1 PUSH1 0x0 PUSH1 0x60 DUP5 DUP7 SUB SLT ISZERO PUSH2 0xBA6 JUMPI PUSH1 0x0 DUP1 REVERT JUMPDEST DUP4 CALLDATALOAD PUSH2 0xBB1 DUP2 PUSH2 0xB29 JUMP JUMPDEST SWAP6 PUSH1 0x20 DUP6 ADD CALLDATALOAD SWAP6 POP PUSH1 0x40 SWAP1 SWAP5 ADD CALLDATALOAD SWAP4 SWAP3 POP POP POP JUMP JUMPDEST PUSH1 0x0 PUSH1 0x20 DUP3 DUP5 SUB SLT ISZERO PUSH2 0xBD8 JUMPI PUSH1 0x0 DUP1 REVERT JUMPDEST DUP2 MLOAD PUSH2 0xB5E DUP2 PUSH2 0xB29 JUMP JUMPDEST PUSH1 0x0 DUP3 NOT DUP3 GT ISZERO PUSH2 0xC04 JUMPI PUSH4 0x4E487B71 PUSH1 0xE0 SHL PUSH1 0x0 MSTORE PUSH1 0x11 PUSH1 0x4 MSTORE PUSH1 0x24 PUSH1 0x0 REVERT JUMPDEST POP ADD SWAP1 JUMP INVALID LOG2 PUSH5 0x6970667358 0x22 SLT KECCAK256 0x25 SGT 0xA9 0xC0 0xCC SMOD 0x23 0xF9 SLOAD BLOCKHASH 0xB6 LOG4 DUP8 PUSH10 0x1555979490DE1DC9C24A PUSH2 0x63F3 PUSH32 0xABC57E9E64736F6C634300080F00330000000000000000000000000000000000 ",
  "sha1": "af0da1c02e438a5f73cebddeca71fff0ffd9468c",
  "source": "//SPX-License-Identifier: MIT\n\npragma solidity ^0.8.0;\n\nimport \"@openzeppelin/contracts/token/ERC721/IERC721.sol\";\nimport \"@openzeppelin/contracts/security/ReentrancyGuard.sol\";\n\n// Some errors in case some of the requirements are not met.\n\nerror PriceNotMet(address nftAddress, uint256 tokenId, uint256 price);\nerror ItemNotForSale(address nftAddress, uint256 tokenId);\nerror NotListed(address nftAddress, uint256 tokenId);\nerror AlreadyListed(address nftAddress, uint256 tokenId);\nerror NoProceeds();\nerror NotOwner();\nerror NotApprovedForMarketplace();\nerror PriceMustBeAboveZero();\n\ncontract NftMarketPlace is ReentrancyGuard {\n    struct Listing {\n        uint256 price;\n        address seller; //Always the contract creator\n    }\n\n    // Listing a NFT to be sell\n\n    event ItemListed(\n        address indexed seller,\n        address indexed nftAddress,\n        uint256 indexed tokenId,\n        uint256 price\n    );\n\n    // Event when a item is cancelled\n\n    event ItemCanceled(\n        address indexed seller,\n        address indexed nftAddress,\n        uint256 indexed tokenId\n    );\n\n    // Event when a NFT is Bought\n\n    event ItemBought(\n        address indexed buyer,\n        address indexed nftAddress,\n        uint256 indexed tokenId,\n        uint256 price\n    );\n\n    // mapping from the addresss to a Listing struct\n    mapping(address => mapping(uint256 => Listing)) private s_listings;\n    // mapping from and address to the number of listed items\n    mapping(address => uint256) private s_proceeds;\n\n    // Modifier to view if a nft is not listed\n\n    modifier notListed(\n        address nftAddress,\n        uint256 tokenId,\n        address owner\n    ) {\n        Listing memory listing = s_listings[nftAddress][tokenId];\n        if (listing.price > 0) {\n            revert AlreadyListed(nftAddress, tokenId);\n        }\n        _;\n    }\n\n    // Modifier to check if a nft is listed\n\n    modifier isListed(address nftAddress, uint256 tokenId) {\n        Listing memory listing = s_listings[nftAddress][tokenId];\n        if (listing.price <= 0) {\n            revert NotListed(nftAddress, tokenId);\n        }\n        _;\n    }\n\n    // Modifier to check the nft owner.\n\n    modifier isOwner(\n        address nftAddress,\n        uint256 tokenId,\n        address spender\n    ) {\n        IERC721 nft = IERC721(nftAddress);\n        address owner = nft.ownerOf(tokenId);\n        if (spender != owner) {\n            revert NotOwner();\n        }\n        _;\n    }\n\n    // Main Fnctionallity\n\n    /*\n     * @notice Method for listing NFT\n     * @param nftAddress Address of NFT contract\n     * @param tokenId Token ID of NFT\n     * @param price sale price for each item\n     */\n    function listItem(\n        address nftAddress,\n        uint256 tokenId,\n        uint256 price\n    )\n        external\n        notListed(nftAddress, tokenId, msg.sender)\n        isOwner(nftAddress, tokenId, msg.sender)\n    {\n        if (price <= 0) {\n            revert PriceMustBeAboveZero();\n        }\n        IERC721 nft = IERC721(nftAddress);\n        if (nft.getApproved(tokenId) != address(this)) {\n            revert NotApprovedForMarketplace();\n        }\n        s_listings[nftAddress][tokenId] = Listing(price, msg.sender);\n        emit ItemListed(msg.sender, nftAddress, tokenId, price);\n    }\n\n    /*\n     * @notice Method for cancelling listing\n     * @param nftAddress Address of NFT contract\n     * @param tokenId Token ID of NFT\n     */\n    function cancelListing(address nftAddress, uint256 tokenId)\n        external\n        isOwner(nftAddress, tokenId, msg.sender)\n        isListed(nftAddress, tokenId)\n    {\n        delete (s_listings[nftAddress][tokenId]);\n        emit ItemCanceled(msg.sender, nftAddress, tokenId);\n    }\n\n    /*\n     * @notice Method for buying listing\n     * @notice The owner of an NFT could unapprove the marketplace\n     * @param nftAddress Address of NFT contract\n     * @param tokenId Token ID of NFT\n     */\n    function buyItem(address nftAddress, uint256 tokenId)\n        external\n        payable\n        isListed(nftAddress, tokenId)\n        nonReentrant\n    {\n        Listing memory listedItem = s_listings[nftAddress][tokenId];\n        if (msg.value < listedItem.price) {\n            revert PriceNotMet(nftAddress, tokenId, listedItem.price);\n        }\n        s_proceeds[listedItem.seller] += msg.value;\n        delete (s_listings[nftAddress][tokenId]);\n        IERC721(nftAddress).safeTransferFrom(\n            listedItem.seller,\n            msg.sender,\n            tokenId\n        );\n        emit ItemBought(msg.sender, nftAddress, tokenId, listedItem.price);\n    }\n\n    /*\n     * @notice Method for updating listing\n     * @param nftAddress Address of NFT contract\n     * @param tokenId Token ID of NFT\n     * @param newPrice Price in Wei of the item\n     */\n    function updateListing(\n        address nftAddress,\n        uint256 tokenId,\n        uint256 newPrice\n    )\n        external\n        isListed(nftAddress, tokenId)\n        nonReentrant\n        isOwner(nftAddress, tokenId, msg.sender)\n    {\n        s_listings[nftAddress][tokenId].price = newPrice;\n        emit ItemListed(msg.sender, nftAddress, tokenId, newPrice);\n    }\n\n    /*\n     * @notice Method for withdrawing proceeds from sales\n     */\n    function withdrawProceeds() external {\n        uint256 proceeds = s_proceeds[msg.sender];\n        if (proceeds <= 0) {\n            revert NoProceeds();\n        }\n        s_proceeds[msg.sender] = 0;\n        (bool success, ) = payable(msg.sender).call{value: proceeds}(\"\");\n        require(success, \"Transfer failed\");\n    }\n\n    // Getter Funtions\n\n    function getListing(address nftAddress, uint256 tokenId)\n        external\n        view\n        returns (Listing memory)\n    {\n        return s_listings[nftAddress][tokenId];\n    }\n\n    function getProceeds(address seller) external view returns (uint256) {\n        return s_proceeds[seller];\n    }\n}\n",
  "sourcePath": "contracts/NftMarketPlace.sol",
  "type": "contract"
}