{
  "abi": [
    {
      "inputs": [
        {
          "internalType": "uint256",
          "name": "_minDelay",
          "type": "uint256"
        },
        {
          "internalType": "address[]",
          "name": "_proposers",
          "type": "address[]"
        },
        {
          "internalType": "address[]",
          "name": "_executors",
          "type": "address[]"
        }
      ],
      "stateMutability": "nonpayable",
      "type": "constructor"
    },
    {
      "anonymous": false,
      "inputs": [
        {
          "indexed": true,
          "internalType": "bytes32",
          "name": "id",
          "type": "bytes32"
        },
        {
          "indexed": true,
          "internalType": "uint256",
          "name": "index",
          "type": "uint256"
        },
        {
          "indexed": false,
          "internalType": "address",
          "name": "target",
          "type": "address"
        },
        {
          "indexed": false,
          "internalType": "uint256",
          "name": "value",
          "type": "uint256"
        },
        {
          "indexed": false,
          "internalType": "bytes",
          "name": "data",
          "type": "bytes"
        }
      ],
      "name": "CallExecuted",
      "type": "event"
    },
    {
      "anonymous": false,
      "inputs": [
        {
          "indexed": true,
          "internalType": "bytes32",
          "name": "id",
          "type": "bytes32"
        },
        {
          "indexed": true,
          "internalType": "uint256",
          "name": "index",
          "type": "uint256"
        },
        {
          "indexed": false,
          "internalType": "address",
          "name": "target",
          "type": "address"
        },
        {
          "indexed": false,
          "internalType": "uint256",
          "name": "value",
          "type": "uint256"
        },
        {
          "indexed": false,
          "internalType": "bytes",
          "name": "data",
          "type": "bytes"
        },
        {
          "indexed": false,
          "internalType": "bytes32",
          "name": "predecessor",
          "type": "bytes32"
        },
        {
          "indexed": false,
          "internalType": "uint256",
          "name": "delay",
          "type": "uint256"
        }
      ],
      "name": "CallScheduled",
      "type": "event"
    },
    {
      "anonymous": false,
      "inputs": [
        {
          "indexed": true,
          "internalType": "bytes32",
          "name": "id",
          "type": "bytes32"
        }
      ],
      "name": "Cancelled",
      "type": "event"
    },
    {
      "anonymous": false,
      "inputs": [
        {
          "indexed": false,
          "internalType": "uint256",
          "name": "oldDuration",
          "type": "uint256"
        },
        {
          "indexed": false,
          "internalType": "uint256",
          "name": "newDuration",
          "type": "uint256"
        }
      ],
      "name": "MinDelayChange",
      "type": "event"
    },
    {
      "anonymous": false,
      "inputs": [
        {
          "indexed": true,
          "internalType": "bytes32",
          "name": "role",
          "type": "bytes32"
        },
        {
          "indexed": true,
          "internalType": "bytes32",
          "name": "previousAdminRole",
          "type": "bytes32"
        },
        {
          "indexed": true,
          "internalType": "bytes32",
          "name": "newAdminRole",
          "type": "bytes32"
        }
      ],
      "name": "RoleAdminChanged",
      "type": "event"
    },
    {
      "anonymous": false,
      "inputs": [
        {
          "indexed": true,
          "internalType": "bytes32",
          "name": "role",
          "type": "bytes32"
        },
        {
          "indexed": true,
          "internalType": "address",
          "name": "account",
          "type": "address"
        },
        {
          "indexed": true,
          "internalType": "address",
          "name": "sender",
          "type": "address"
        }
      ],
      "name": "RoleGranted",
      "type": "event"
    },
    {
      "anonymous": false,
      "inputs": [
        {
          "indexed": true,
          "internalType": "bytes32",
          "name": "role",
          "type": "bytes32"
        },
        {
          "indexed": true,
          "internalType": "address",
          "name": "account",
          "type": "address"
        },
        {
          "indexed": true,
          "internalType": "address",
          "name": "sender",
          "type": "address"
        }
      ],
      "name": "RoleRevoked",
      "type": "event"
    },
    {
      "inputs": [],
      "name": "CANCELLER_ROLE",
      "outputs": [
        {
          "internalType": "bytes32",
          "name": "",
          "type": "bytes32"
        }
      ],
      "stateMutability": "view",
      "type": "function"
    },
    {
      "inputs": [],
      "name": "DEFAULT_ADMIN_ROLE",
      "outputs": [
        {
          "internalType": "bytes32",
          "name": "",
          "type": "bytes32"
        }
      ],
      "stateMutability": "view",
      "type": "function"
    },
    {
      "inputs": [],
      "name": "EXECUTOR_ROLE",
      "outputs": [
        {
          "internalType": "bytes32",
          "name": "",
          "type": "bytes32"
        }
      ],
      "stateMutability": "view",
      "type": "function"
    },
    {
      "inputs": [],
      "name": "PROPOSER_ROLE",
      "outputs": [
        {
          "internalType": "bytes32",
          "name": "",
          "type": "bytes32"
        }
      ],
      "stateMutability": "view",
      "type": "function"
    },
    {
      "inputs": [],
      "name": "TIMELOCK_ADMIN_ROLE",
      "outputs": [
        {
          "internalType": "bytes32",
          "name": "",
          "type": "bytes32"
        }
      ],
      "stateMutability": "view",
      "type": "function"
    },
    {
      "inputs": [
        {
          "internalType": "bytes32",
          "name": "id",
          "type": "bytes32"
        }
      ],
      "name": "cancel",
      "outputs": [],
      "stateMutability": "nonpayable",
      "type": "function"
    },
    {
      "inputs": [
        {
          "internalType": "address",
          "name": "target",
          "type": "address"
        },
        {
          "internalType": "uint256",
          "name": "value",
          "type": "uint256"
        },
        {
          "internalType": "bytes",
          "name": "payload",
          "type": "bytes"
        },
        {
          "internalType": "bytes32",
          "name": "predecessor",
          "type": "bytes32"
        },
        {
          "internalType": "bytes32",
          "name": "salt",
          "type": "bytes32"
        }
      ],
      "name": "execute",
      "outputs": [],
      "stateMutability": "payable",
      "type": "function"
    },
    {
      "inputs": [
        {
          "internalType": "address[]",
          "name": "targets",
          "type": "address[]"
        },
        {
          "internalType": "uint256[]",
          "name": "values",
          "type": "uint256[]"
        },
        {
          "internalType": "bytes[]",
          "name": "payloads",
          "type": "bytes[]"
        },
        {
          "internalType": "bytes32",
          "name": "predecessor",
          "type": "bytes32"
        },
        {
          "internalType": "bytes32",
          "name": "salt",
          "type": "bytes32"
        }
      ],
      "name": "executeBatch",
      "outputs": [],
      "stateMutability": "payable",
      "type": "function"
    },
    {
      "inputs": [],
      "name": "getMinDelay",
      "outputs": [
        {
          "internalType": "uint256",
          "name": "duration",
          "type": "uint256"
        }
      ],
      "stateMutability": "view",
      "type": "function"
    },
    {
      "inputs": [
        {
          "internalType": "bytes32",
          "name": "role",
          "type": "bytes32"
        }
      ],
      "name": "getRoleAdmin",
      "outputs": [
        {
          "internalType": "bytes32",
          "name": "",
          "type": "bytes32"
        }
      ],
      "stateMutability": "view",
      "type": "function"
    },
    {
      "inputs": [
        {
          "internalType": "bytes32",
          "name": "id",
          "type": "bytes32"
        }
      ],
      "name": "getTimestamp",
      "outputs": [
        {
          "internalType": "uint256",
          "name": "timestamp",
          "type": "uint256"
        }
      ],
      "stateMutability": "view",
      "type": "function"
    },
    {
      "inputs": [
        {
          "internalType": "bytes32",
          "name": "role",
          "type": "bytes32"
        },
        {
          "internalType": "address",
          "name": "account",
          "type": "address"
        }
      ],
      "name": "grantRole",
      "outputs": [],
      "stateMutability": "nonpayable",
      "type": "function"
    },
    {
      "inputs": [
        {
          "internalType": "bytes32[]",
          "name": "role",
          "type": "bytes32[]"
        },
        {
          "internalType": "address",
          "name": "account",
          "type": "address"
        }
      ],
      "name": "grantRoleByArray",
      "outputs": [],
      "stateMutability": "nonpayable",
      "type": "function"
    },
    {
      "inputs": [
        {
          "internalType": "bytes32",
          "name": "role",
          "type": "bytes32"
        },
        {
          "internalType": "address",
          "name": "account",
          "type": "address"
        }
      ],
      "name": "hasRole",
      "outputs": [
        {
          "internalType": "bool",
          "name": "",
          "type": "bool"
        }
      ],
      "stateMutability": "view",
      "type": "function"
    },
    {
      "inputs": [
        {
          "internalType": "address",
          "name": "target",
          "type": "address"
        },
        {
          "internalType": "uint256",
          "name": "value",
          "type": "uint256"
        },
        {
          "internalType": "bytes",
          "name": "data",
          "type": "bytes"
        },
        {
          "internalType": "bytes32",
          "name": "predecessor",
          "type": "bytes32"
        },
        {
          "internalType": "bytes32",
          "name": "salt",
          "type": "bytes32"
        }
      ],
      "name": "hashOperation",
      "outputs": [
        {
          "internalType": "bytes32",
          "name": "hash",
          "type": "bytes32"
        }
      ],
      "stateMutability": "pure",
      "type": "function"
    },
    {
      "inputs": [
        {
          "internalType": "address[]",
          "name": "targets",
          "type": "address[]"
        },
        {
          "internalType": "uint256[]",
          "name": "values",
          "type": "uint256[]"
        },
        {
          "internalType": "bytes[]",
          "name": "payloads",
          "type": "bytes[]"
        },
        {
          "internalType": "bytes32",
          "name": "predecessor",
          "type": "bytes32"
        },
        {
          "internalType": "bytes32",
          "name": "salt",
          "type": "bytes32"
        }
      ],
      "name": "hashOperationBatch",
      "outputs": [
        {
          "internalType": "bytes32",
          "name": "hash",
          "type": "bytes32"
        }
      ],
      "stateMutability": "pure",
      "type": "function"
    },
    {
      "inputs": [
        {
          "internalType": "bytes32",
          "name": "id",
          "type": "bytes32"
        }
      ],
      "name": "isOperation",
      "outputs": [
        {
          "internalType": "bool",
          "name": "registered",
          "type": "bool"
        }
      ],
      "stateMutability": "view",
      "type": "function"
    },
    {
      "inputs": [
        {
          "internalType": "bytes32",
          "name": "id",
          "type": "bytes32"
        }
      ],
      "name": "isOperationDone",
      "outputs": [
        {
          "internalType": "bool",
          "name": "done",
          "type": "bool"
        }
      ],
      "stateMutability": "view",
      "type": "function"
    },
    {
      "inputs": [
        {
          "internalType": "bytes32",
          "name": "id",
          "type": "bytes32"
        }
      ],
      "name": "isOperationPending",
      "outputs": [
        {
          "internalType": "bool",
          "name": "pending",
          "type": "bool"
        }
      ],
      "stateMutability": "view",
      "type": "function"
    },
    {
      "inputs": [
        {
          "internalType": "bytes32",
          "name": "id",
          "type": "bytes32"
        }
      ],
      "name": "isOperationReady",
      "outputs": [
        {
          "internalType": "bool",
          "name": "ready",
          "type": "bool"
        }
      ],
      "stateMutability": "view",
      "type": "function"
    },
    {
      "inputs": [
        {
          "internalType": "address",
          "name": "",
          "type": "address"
        },
        {
          "internalType": "address",
          "name": "",
          "type": "address"
        },
        {
          "internalType": "uint256[]",
          "name": "",
          "type": "uint256[]"
        },
        {
          "internalType": "uint256[]",
          "name": "",
          "type": "uint256[]"
        },
        {
          "internalType": "bytes",
          "name": "",
          "type": "bytes"
        }
      ],
      "name": "onERC1155BatchReceived",
      "outputs": [
        {
          "internalType": "bytes4",
          "name": "",
          "type": "bytes4"
        }
      ],
      "stateMutability": "nonpayable",
      "type": "function"
    },
    {
      "inputs": [
        {
          "internalType": "address",
          "name": "",
          "type": "address"
        },
        {
          "internalType": "address",
          "name": "",
          "type": "address"
        },
        {
          "internalType": "uint256",
          "name": "",
          "type": "uint256"
        },
        {
          "internalType": "uint256",
          "name": "",
          "type": "uint256"
        },
        {
          "internalType": "bytes",
          "name": "",
          "type": "bytes"
        }
      ],
      "name": "onERC1155Received",
      "outputs": [
        {
          "internalType": "bytes4",
          "name": "",
          "type": "bytes4"
        }
      ],
      "stateMutability": "nonpayable",
      "type": "function"
    },
    {
      "inputs": [
        {
          "internalType": "address",
          "name": "",
          "type": "address"
        },
        {
          "internalType": "address",
          "name": "",
          "type": "address"
        },
        {
          "internalType": "uint256",
          "name": "",
          "type": "uint256"
        },
        {
          "internalType": "bytes",
          "name": "",
          "type": "bytes"
        }
      ],
      "name": "onERC721Received",
      "outputs": [
        {
          "internalType": "bytes4",
          "name": "",
          "type": "bytes4"
        }
      ],
      "stateMutability": "nonpayable",
      "type": "function"
    },
    {
      "inputs": [
        {
          "internalType": "bytes32",
          "name": "role",
          "type": "bytes32"
        },
        {
          "internalType": "address",
          "name": "account",
          "type": "address"
        }
      ],
      "name": "renounceRole",
      "outputs": [],
      "stateMutability": "nonpayable",
      "type": "function"
    },
    {
      "inputs": [
        {
          "internalType": "bytes32",
          "name": "role",
          "type": "bytes32"
        },
        {
          "internalType": "address",
          "name": "account",
          "type": "address"
        }
      ],
      "name": "revokeRole",
      "outputs": [],
      "stateMutability": "nonpayable",
      "type": "function"
    },
    {
      "inputs": [
        {
          "internalType": "address",
          "name": "target",
          "type": "address"
        },
        {
          "internalType": "uint256",
          "name": "value",
          "type": "uint256"
        },
        {
          "internalType": "bytes",
          "name": "data",
          "type": "bytes"
        },
        {
          "internalType": "bytes32",
          "name": "predecessor",
          "type": "bytes32"
        },
        {
          "internalType": "bytes32",
          "name": "salt",
          "type": "bytes32"
        },
        {
          "internalType": "uint256",
          "name": "delay",
          "type": "uint256"
        }
      ],
      "name": "schedule",
      "outputs": [],
      "stateMutability": "nonpayable",
      "type": "function"
    },
    {
      "inputs": [
        {
          "internalType": "address[]",
          "name": "targets",
          "type": "address[]"
        },
        {
          "internalType": "uint256[]",
          "name": "values",
          "type": "uint256[]"
        },
        {
          "internalType": "bytes[]",
          "name": "payloads",
          "type": "bytes[]"
        },
        {
          "internalType": "bytes32",
          "name": "predecessor",
          "type": "bytes32"
        },
        {
          "internalType": "bytes32",
          "name": "salt",
          "type": "bytes32"
        },
        {
          "internalType": "uint256",
          "name": "delay",
          "type": "uint256"
        }
      ],
      "name": "scheduleBatch",
      "outputs": [],
      "stateMutability": "nonpayable",
      "type": "function"
    },
    {
      "inputs": [
        {
          "internalType": "bytes4",
          "name": "interfaceId",
          "type": "bytes4"
        }
      ],
      "name": "supportsInterface",
      "outputs": [
        {
          "internalType": "bool",
          "name": "",
          "type": "bool"
        }
      ],
      "stateMutability": "view",
      "type": "function"
    },
    {
      "inputs": [
        {
          "internalType": "uint256",
          "name": "newDelay",
          "type": "uint256"
        }
      ],
      "name": "updateDelay",
      "outputs": [],
      "stateMutability": "nonpayable",
      "type": "function"
    },
    {
      "stateMutability": "payable",
      "type": "receive"
    }
  ],
  "bytecode": "60806040523480156200001157600080fd5b506040516200249d3803806200249d8339810160408190526200003491620003fd565b828282620000526000805160206200241d8339815191528062000222565b6200007c6000805160206200243d8339815191526000805160206200241d83398151915262000222565b620000a66000805160206200245d8339815191526000805160206200241d83398151915262000222565b620000d06000805160206200247d8339815191526000805160206200241d83398151915262000222565b620000eb6000805160206200241d833981519152336200026d565b620001066000805160206200241d833981519152306200026d565b60005b82518110156200018c57620001506000805160206200243d8339815191528483815181106200013c576200013c62000471565b60200260200101516200026d60201b60201c565b620001796000805160206200247d8339815191528483815181106200013c576200013c62000471565b620001848162000487565b905062000109565b5060005b8151811015620001d657620001c36000805160206200245d8339815191528383815181106200013c576200013c62000471565b620001ce8162000487565b905062000190565b5060028390556040805160008152602081018590527f11c24f4ead16507c69ac467fbd5e4eed5fb5c699626d2cc6d66421df253886d5910160405180910390a1505050505050620004af565b600082815260208190526040808220600101805490849055905190918391839186917fbd79b86ffe0ab8e8776151514217cd7cacd52c909f66475c3af44e129f0b00ff9190a4505050565b6200027982826200027d565b5050565b6000828152602081815260408083206001600160a01b038516845290915290205460ff1662000279576000828152602081815260408083206001600160a01b03851684529091529020805460ff19166001179055620002d93390565b6001600160a01b0316816001600160a01b0316837f2f8788117e7eff1d82e926ec794901d17c78024a50270940304540a733656f0d60405160405180910390a45050565b634e487b7160e01b600052604160045260246000fd5b80516001600160a01b03811681146200034b57600080fd5b919050565b600082601f8301126200036257600080fd5b815160206001600160401b03808311156200038157620003816200031d565b8260051b604051601f19603f83011681018181108482111715620003a957620003a96200031d565b604052938452858101830193838101925087851115620003c857600080fd5b83870191505b84821015620003f257620003e28262000333565b83529183019190830190620003ce565b979650505050505050565b6000806000606084860312156200041357600080fd5b835160208501519093506001600160401b03808211156200043357600080fd5b620004418783880162000350565b935060408601519150808211156200045857600080fd5b50620004678682870162000350565b9150509250925092565b634e487b7160e01b600052603260045260246000fd5b600060018201620004a857634e487b7160e01b600052601160045260246000fd5b5060010190565b611f5e80620004bf6000396000f3fe6080604052600436106101c65760003560e01c80638065657f116100f7578063bc197c8111610095578063d547741f11610064578063d547741f146105ad578063e38335e5146105cd578063f23a6e61146105e0578063f27a0c921461060c57600080fd5b8063bc197c8114610514578063c4d252f514610540578063ca3065fe14610560578063d45c44351461058057600080fd5b806391d14854116100d157806391d148541461048b578063a217fddf146104ab578063b08e51c0146104c0578063b1c5f427146104f457600080fd5b80638065657f146104175780638f2a0bb0146104375780638f61f4f51461045757600080fd5b8063248a9ca31161016457806331d507501161013e57806331d507501461039757806336568abe146103b7578063584b153e146103d757806364d62353146103f757600080fd5b8063248a9ca3146103165780632ab0f529146103465780632f2ff15d1461037757600080fd5b80630d3cf6fc116101a05780630d3cf6fc1461026b578063134008d31461029f57806313bc9f20146102b2578063150b7a02146102d257600080fd5b806301d5062a146101d257806301ffc9a7146101f457806307bd02651461022957600080fd5b366101cd57005b600080fd5b3480156101de57600080fd5b506101f26101ed3660046114a7565b610621565b005b34801561020057600080fd5b5061021461020f36600461151b565b6106b6565b60405190151581526020015b60405180910390f35b34801561023557600080fd5b5061025d7fd8aa0f3194971a2a116679f7c2090f6939c8d4e01a2a8d7e41d55e5351469e6381565b604051908152602001610220565b34801561027757600080fd5b5061025d7f5f58e3a2316349923ce3780f8d587db2d72378aed66a8261c916544fa6846ca581565b6101f26102ad366004611545565b6106e1565b3480156102be57600080fd5b506102146102cd3660046115b0565b610796565b3480156102de57600080fd5b506102fd6102ed36600461167e565b630a85bd0160e11b949350505050565b6040516001600160e01b03199091168152602001610220565b34801561032257600080fd5b5061025d6103313660046115b0565b60009081526020819052604090206001015490565b34801561035257600080fd5b506102146103613660046115b0565b6000908152600160208190526040909120541490565b34801561038357600080fd5b506101f26103923660046116e5565b6107bc565b3480156103a357600080fd5b506102146103b23660046115b0565b6107e6565b3480156103c357600080fd5b506101f26103d23660046116e5565b6107ff565b3480156103e357600080fd5b506102146103f23660046115b0565b610882565b34801561040357600080fd5b506101f26104123660046115b0565b610898565b34801561042357600080fd5b5061025d610432366004611545565b61093c565b34801561044357600080fd5b506101f2610452366004611755565b61097b565b34801561046357600080fd5b5061025d7fb09aa5aeb3702cfd50b6b62bc4532604938f21248a27a1d5ca736082b6819cc181565b34801561049757600080fd5b506102146104a63660046116e5565b610acd565b3480156104b757600080fd5b5061025d600081565b3480156104cc57600080fd5b5061025d7ffd643c72710c63c0180259aba6b2d05451e3591a24e58b62239378085726f78381565b34801561050057600080fd5b5061025d61050f366004611806565b610af6565b34801561052057600080fd5b506102fd61052f36600461193c565b63bc197c8160e01b95945050505050565b34801561054c57600080fd5b506101f261055b3660046115b0565b610b3b565b34801561056c57600080fd5b506101f261057b3660046119e5565b610c10565b34801561058c57600080fd5b5061025d61059b3660046115b0565b60009081526001602052604090205490565b3480156105b957600080fd5b506101f26105c83660046116e5565b610cd3565b6101f26105db366004611806565b610cf8565b3480156105ec57600080fd5b506102fd6105fb366004611a87565b63f23a6e6160e01b95945050505050565b34801561061857600080fd5b5060025461025d565b7fb09aa5aeb3702cfd50b6b62bc4532604938f21248a27a1d5ca736082b6819cc161064b81610e82565b600061065b89898989898961093c565b90506106678184610e8f565b6000817f4cf4410cc57040e44862ef0f45f3dd5a5e02db8eb8add648d4b0e236f1d07dca8b8b8b8b8b8a6040516106a396959493929190611b14565b60405180910390a3505050505050505050565b60006001600160e01b03198216630271189760e51b14806106db57506106db82610f7e565b92915050565b7fd8aa0f3194971a2a116679f7c2090f6939c8d4e01a2a8d7e41d55e5351469e6361070d816000610acd565b61071b5761071b8133610fb3565b600061072b88888888888861093c565b90506107378185611017565b610743888888886110b3565b6000817fc2617efa69bab66782fa219543714338489c4e9e178271560a91b82c3f612b588a8a8a8a60405161077b9493929190611b51565b60405180910390a361078c81611186565b5050505050505050565b6000818152600160205260408120546001811180156107b55750428111155b9392505050565b6000828152602081905260409020600101546107d781610e82565b6107e183836111bf565b505050565b60008181526001602052604081205481905b1192915050565b6001600160a01b03811633146108745760405162461bcd60e51b815260206004820152602f60248201527f416363657373436f6e74726f6c3a2063616e206f6e6c792072656e6f756e636560448201526e103937b632b9903337b91039b2b63360891b60648201526084015b60405180910390fd5b61087e8282611243565b5050565b60008181526001602081905260408220546107f8565b3330146108fb5760405162461bcd60e51b815260206004820152602b60248201527f54696d656c6f636b436f6e74726f6c6c65723a2063616c6c6572206d7573742060448201526a62652074696d656c6f636b60a81b606482015260840161086b565b60025460408051918252602082018390527f11c24f4ead16507c69ac467fbd5e4eed5fb5c699626d2cc6d66421df253886d5910160405180910390a1600255565b600086868686868660405160200161095996959493929190611b14565b6040516020818303038152906040528051906020012090509695505050505050565b7fb09aa5aeb3702cfd50b6b62bc4532604938f21248a27a1d5ca736082b6819cc16109a581610e82565b8887146109c45760405162461bcd60e51b815260040161086b90611b83565b8885146109e35760405162461bcd60e51b815260040161086b90611b83565b60006109f58b8b8b8b8b8b8b8b610af6565b9050610a018184610e8f565b60005b8a811015610abf5780827f4cf4410cc57040e44862ef0f45f3dd5a5e02db8eb8add648d4b0e236f1d07dca8e8e85818110610a4157610a41611bc6565b9050602002016020810190610a569190611bdc565b8d8d86818110610a6857610a68611bc6565b905060200201358c8c87818110610a8157610a81611bc6565b9050602002810190610a939190611bf7565b8c8b604051610aa796959493929190611b14565b60405180910390a3610ab881611c53565b9050610a04565b505050505050505050505050565b6000918252602082815260408084206001600160a01b0393909316845291905290205460ff1690565b60008888888888888888604051602001610b17989796959493929190611cfd565b60405160208183030381529060405280519060200120905098975050505050505050565b7ffd643c72710c63c0180259aba6b2d05451e3591a24e58b62239378085726f783610b6581610e82565b610b6e82610882565b610bd45760405162461bcd60e51b815260206004820152603160248201527f54696d656c6f636b436f6e74726f6c6c65723a206f7065726174696f6e2063616044820152701b9b9bdd0818994818d85b98d95b1b1959607a1b606482015260840161086b565b6000828152600160205260408082208290555183917fbaa1eb22f2a492ba1a5fea61b8df4d27c6c8b5f3971e63bb58fa14ff72eedb7091a25050565b610c4382600081518110610c2657610c26611bc6565b602002602001015160009081526020819052604090206001015490565b610c4c81610e82565b610c6283600181518110610c2657610c26611bc6565b610c6b81610e82565b610c8184600281518110610c2657610c26611bc6565b610c8a81610e82565b60005b8551811015610ccb57610cb9868281518110610cab57610cab611bc6565b6020026020010151866111bf565b80610cc381611c53565b915050610c8d565b505050505050565b600082815260208190526040902060010154610cee81610e82565b6107e18383611243565b7fd8aa0f3194971a2a116679f7c2090f6939c8d4e01a2a8d7e41d55e5351469e63610d24816000610acd565b610d3257610d328133610fb3565b878614610d515760405162461bcd60e51b815260040161086b90611b83565b878414610d705760405162461bcd60e51b815260040161086b90611b83565b6000610d828a8a8a8a8a8a8a8a610af6565b9050610d8e8185611017565b60005b89811015610e6c5760008b8b83818110610dad57610dad611bc6565b9050602002016020810190610dc29190611bdc565b905060008a8a84818110610dd857610dd8611bc6565b9050602002013590503660008a8a86818110610df657610df6611bc6565b9050602002810190610e089190611bf7565b91509150610e18848484846110b3565b84867fc2617efa69bab66782fa219543714338489c4e9e178271560a91b82c3f612b5886868686604051610e4f9493929190611b51565b60405180910390a35050505080610e6590611c53565b9050610d91565b50610e7681611186565b50505050505050505050565b610e8c8133610fb3565b50565b610e98826107e6565b15610efd5760405162461bcd60e51b815260206004820152602f60248201527f54696d656c6f636b436f6e74726f6c6c65723a206f7065726174696f6e20616c60448201526e1c9958591e481cd8da19591d5b1959608a1b606482015260840161086b565b600254811015610f5e5760405162461bcd60e51b815260206004820152602660248201527f54696d656c6f636b436f6e74726f6c6c65723a20696e73756666696369656e746044820152652064656c617960d01b606482015260840161086b565b610f688142611da8565b6000928352600160205260409092209190915550565b60006001600160e01b03198216637965db0b60e01b14806106db57506301ffc9a760e01b6001600160e01b03198316146106db565b610fbd8282610acd565b61087e57610fd5816001600160a01b031660146112a8565b610fe08360206112a8565b604051602001610ff1929190611df0565b60408051601f198184030181529082905262461bcd60e51b825261086b91600401611e65565b61102082610796565b61103c5760405162461bcd60e51b815260040161086b90611e98565b8015806110585750600081815260016020819052604090912054145b61087e5760405162461bcd60e51b815260206004820152602660248201527f54696d656c6f636b436f6e74726f6c6c65723a206d697373696e6720646570656044820152656e64656e637960d01b606482015260840161086b565b6000846001600160a01b03168484846040516110d0929190611ee2565b60006040518083038185875af1925050503d806000811461110d576040519150601f19603f3d011682016040523d82523d6000602084013e611112565b606091505b505090508061117f5760405162461bcd60e51b815260206004820152603360248201527f54696d656c6f636b436f6e74726f6c6c65723a20756e6465726c79696e6720746044820152721c985b9cd858dd1a5bdb881c995d995c9d1959606a1b606482015260840161086b565b5050505050565b61118f81610796565b6111ab5760405162461bcd60e51b815260040161086b90611e98565b600090815260016020819052604090912055565b6111c98282610acd565b61087e576000828152602081815260408083206001600160a01b03851684529091529020805460ff191660011790556111ff3390565b6001600160a01b0316816001600160a01b0316837f2f8788117e7eff1d82e926ec794901d17c78024a50270940304540a733656f0d60405160405180910390a45050565b61124d8282610acd565b1561087e576000828152602081815260408083206001600160a01b0385168085529252808320805460ff1916905551339285917ff6391f5c32d9c69d2a47ea670b442974b53935d1edc7fd64eb21e047a839171b9190a45050565b606060006112b7836002611ef2565b6112c2906002611da8565b6001600160401b038111156112d9576112d96115c9565b6040519080825280601f01601f191660200182016040528015611303576020820181803683370190505b509050600360fc1b8160008151811061131e5761131e611bc6565b60200101906001600160f81b031916908160001a905350600f60fb1b8160018151811061134d5761134d611bc6565b60200101906001600160f81b031916908160001a9053506000611371846002611ef2565b61137c906001611da8565b90505b60018111156113f4576f181899199a1a9b1b9c1cb0b131b232b360811b85600f16601081106113b0576113b0611bc6565b1a60f81b8282815181106113c6576113c6611bc6565b60200101906001600160f81b031916908160001a90535060049490941c936113ed81611f11565b905061137f565b5083156107b55760405162461bcd60e51b815260206004820181905260248201527f537472696e67733a20686578206c656e67746820696e73756666696369656e74604482015260640161086b565b80356001600160a01b038116811461145a57600080fd5b919050565b60008083601f84011261147157600080fd5b5081356001600160401b0381111561148857600080fd5b6020830191508360208285010111156114a057600080fd5b9250929050565b600080600080600080600060c0888a0312156114c257600080fd5b6114cb88611443565b96506020880135955060408801356001600160401b038111156114ed57600080fd5b6114f98a828b0161145f565b989b979a50986060810135976080820135975060a09091013595509350505050565b60006020828403121561152d57600080fd5b81356001600160e01b0319811681146107b557600080fd5b60008060008060008060a0878903121561155e57600080fd5b61156787611443565b95506020870135945060408701356001600160401b0381111561158957600080fd5b61159589828a0161145f565b979a9699509760608101359660809091013595509350505050565b6000602082840312156115c257600080fd5b5035919050565b634e487b7160e01b600052604160045260246000fd5b604051601f8201601f191681016001600160401b0381118282101715611607576116076115c9565b604052919050565b600082601f83011261162057600080fd5b81356001600160401b03811115611639576116396115c9565b61164c601f8201601f19166020016115df565b81815284602083860101111561166157600080fd5b816020850160208301376000918101602001919091529392505050565b6000806000806080858703121561169457600080fd5b61169d85611443565b93506116ab60208601611443565b92506040850135915060608501356001600160401b038111156116cd57600080fd5b6116d98782880161160f565b91505092959194509250565b600080604083850312156116f857600080fd5b8235915061170860208401611443565b90509250929050565b60008083601f84011261172357600080fd5b5081356001600160401b0381111561173a57600080fd5b6020830191508360208260051b85010111156114a057600080fd5b600080600080600080600080600060c08a8c03121561177357600080fd5b89356001600160401b038082111561178a57600080fd5b6117968d838e01611711565b909b50995060208c01359150808211156117af57600080fd5b6117bb8d838e01611711565b909950975060408c01359150808211156117d457600080fd5b506117e18c828d01611711565b9a9d999c50979a969997986060880135976080810135975060a0013595509350505050565b60008060008060008060008060a0898b03121561182257600080fd5b88356001600160401b038082111561183957600080fd5b6118458c838d01611711565b909a50985060208b013591508082111561185e57600080fd5b61186a8c838d01611711565b909850965060408b013591508082111561188357600080fd5b506118908b828c01611711565b999c989b509699959896976060870135966080013595509350505050565b60006001600160401b038211156118c7576118c76115c9565b5060051b60200190565b600082601f8301126118e257600080fd5b813560206118f76118f2836118ae565b6115df565b82815260059290921b8401810191818101908684111561191657600080fd5b8286015b84811015611931578035835291830191830161191a565b509695505050505050565b600080600080600060a0868803121561195457600080fd5b61195d86611443565b945061196b60208701611443565b935060408601356001600160401b038082111561198757600080fd5b61199389838a016118d1565b945060608801359150808211156119a957600080fd5b6119b589838a016118d1565b935060808801359150808211156119cb57600080fd5b506119d88882890161160f565b9150509295509295909350565b600080604083850312156119f857600080fd5b82356001600160401b03811115611a0e57600080fd5b8301601f81018513611a1f57600080fd5b80356020611a2f6118f2836118ae565b82815260059290921b83018101918181019088841115611a4e57600080fd5b938201935b83851015611a6c57843582529382019390820190611a53565b9550611a7b9050868201611443565b93505050509250929050565b600080600080600060a08688031215611a9f57600080fd5b611aa886611443565b9450611ab660208701611443565b9350604086013592506060860135915060808601356001600160401b03811115611adf57600080fd5b6119d88882890161160f565b81835281816020850137506000828201602090810191909152601f909101601f19169091010190565b60018060a01b038716815285602082015260a060408201526000611b3c60a083018688611aeb565b60608301949094525060800152949350505050565b60018060a01b0385168152836020820152606060408201526000611b79606083018486611aeb565b9695505050505050565b60208082526023908201527f54696d656c6f636b436f6e74726f6c6c65723a206c656e677468206d69736d616040820152620e8c6d60eb1b606082015260800190565b634e487b7160e01b600052603260045260246000fd5b600060208284031215611bee57600080fd5b6107b582611443565b6000808335601e19843603018112611c0e57600080fd5b8301803591506001600160401b03821115611c2857600080fd5b6020019150368190038213156114a057600080fd5b634e487b7160e01b600052601160045260246000fd5b600060018201611c6557611c65611c3d565b5060010190565b81835260006020808501808196508560051b810191508460005b87811015611cf05782840389528135601e19883603018112611ca757600080fd5b870185810190356001600160401b03811115611cc257600080fd5b803603821315611cd157600080fd5b611cdc868284611aeb565b9a87019a9550505090840190600101611c86565b5091979650505050505050565b60a0808252810188905260008960c08301825b8b811015611d3e576001600160a01b03611d2984611443565b16825260209283019290910190600101611d10565b5083810360208501528881526001600160fb1b03891115611d5e57600080fd5b8860051b9150818a602083013781810191505060208101600081526020848303016040850152611d8f81888a611c6c565b6060850196909652505050608001529695505050505050565b60008219821115611dbb57611dbb611c3d565b500190565b60005b83811015611ddb578181015183820152602001611dc3565b83811115611dea576000848401525b50505050565b7f416363657373436f6e74726f6c3a206163636f756e7420000000000000000000815260008351611e28816017850160208801611dc0565b7001034b99036b4b9b9b4b733903937b6329607d1b6017918401918201528351611e59816028840160208801611dc0565b01602801949350505050565b6020815260008251806020840152611e84816040850160208701611dc0565b601f01601f19169190910160400192915050565b6020808252602a908201527f54696d656c6f636b436f6e74726f6c6c65723a206f7065726174696f6e206973604082015269206e6f7420726561647960b01b606082015260800190565b8183823760009101908152919050565b6000816000190483118215151615611f0c57611f0c611c3d565b500290565b600081611f2057611f20611c3d565b50600019019056fea26469706673582212204e9ed428a59e1fd9d337412e08d6847bfd40dc181b6170d27ae8c1c22a8268b564736f6c634300080f00335f58e3a2316349923ce3780f8d587db2d72378aed66a8261c916544fa6846ca5b09aa5aeb3702cfd50b6b62bc4532604938f21248a27a1d5ca736082b6819cc1d8aa0f3194971a2a116679f7c2090f6939c8d4e01a2a8d7e41d55e5351469e63fd643c72710c63c0180259aba6b2d05451e3591a24e58b62239378085726f783",
  "bytecodeSha1": "da39a3ee5e6b4b0d3255bfef95601890afd80709",
  "compiler": {
    "evm_version": "istanbul",
    "optimizer": {
      "enabled": true,
      "runs": 200
    },
    "version": "0.8.15+commit.e14f2714"
  },
  "contractName": "TimeLock",
  "language": "Solidity",
  "natspec": {
    "kind": "dev",
    "methods": {
      "cancel(bytes32)": {
        "details": "Cancel an operation. Requirements: - the caller must have the 'canceller' role."
      },
      "execute(address,uint256,bytes,bytes32,bytes32)": {
        "details": "Execute an (ready) operation containing a single transaction. Emits a {CallExecuted} event. Requirements: - the caller must have the 'executor' role."
      },
      "executeBatch(address[],uint256[],bytes[],bytes32,bytes32)": {
        "details": "Execute an (ready) operation containing a batch of transactions. Emits one {CallExecuted} event per transaction in the batch. Requirements: - the caller must have the 'executor' role."
      },
      "getMinDelay()": {
        "details": "Returns the minimum delay for an operation to become valid. This value can be changed by executing an operation that calls `updateDelay`."
      },
      "getRoleAdmin(bytes32)": {
        "details": "Returns the admin role that controls `role`. See {grantRole} and {revokeRole}. To change a role's admin, use {_setRoleAdmin}."
      },
      "getTimestamp(bytes32)": {
        "details": "Returns the timestamp at with an operation becomes ready (0 for unset operations, 1 for done operations)."
      },
      "grantRole(bytes32,address)": {
        "details": "Grants `role` to `account`. If `account` had not been already granted `role`, emits a {RoleGranted} event. Requirements: - the caller must have ``role``'s admin role. May emit a {RoleGranted} event."
      },
      "hasRole(bytes32,address)": {
        "details": "Returns `true` if `account` has been granted `role`."
      },
      "hashOperation(address,uint256,bytes,bytes32,bytes32)": {
        "details": "Returns the identifier of an operation containing a single transaction."
      },
      "hashOperationBatch(address[],uint256[],bytes[],bytes32,bytes32)": {
        "details": "Returns the identifier of an operation containing a batch of transactions."
      },
      "isOperation(bytes32)": {
        "details": "Returns whether an id correspond to a registered operation. This includes both Pending, Ready and Done operations."
      },
      "isOperationDone(bytes32)": {
        "details": "Returns whether an operation is done or not."
      },
      "isOperationPending(bytes32)": {
        "details": "Returns whether an operation is pending or not."
      },
      "isOperationReady(bytes32)": {
        "details": "Returns whether an operation is ready or not."
      },
      "onERC1155BatchReceived(address,address,uint256[],uint256[],bytes)": {
        "details": "See {IERC1155Receiver-onERC1155BatchReceived}."
      },
      "onERC1155Received(address,address,uint256,uint256,bytes)": {
        "details": "See {IERC1155Receiver-onERC1155Received}."
      },
      "onERC721Received(address,address,uint256,bytes)": {
        "details": "See {IERC721Receiver-onERC721Received}."
      },
      "renounceRole(bytes32,address)": {
        "details": "Revokes `role` from the calling account. Roles are often managed via {grantRole} and {revokeRole}: this function's purpose is to provide a mechanism for accounts to lose their privileges if they are compromised (such as when a trusted device is misplaced). If the calling account had been revoked `role`, emits a {RoleRevoked} event. Requirements: - the caller must be `account`. May emit a {RoleRevoked} event."
      },
      "revokeRole(bytes32,address)": {
        "details": "Revokes `role` from `account`. If `account` had been granted `role`, emits a {RoleRevoked} event. Requirements: - the caller must have ``role``'s admin role. May emit a {RoleRevoked} event."
      },
      "schedule(address,uint256,bytes,bytes32,bytes32,uint256)": {
        "details": "Schedule an operation containing a single transaction. Emits a {CallScheduled} event. Requirements: - the caller must have the 'proposer' role."
      },
      "scheduleBatch(address[],uint256[],bytes[],bytes32,bytes32,uint256)": {
        "details": "Schedule an operation containing a batch of transactions. Emits one {CallScheduled} event per transaction in the batch. Requirements: - the caller must have the 'proposer' role."
      },
      "supportsInterface(bytes4)": {
        "details": "See {IERC165-supportsInterface}."
      },
      "updateDelay(uint256)": {
        "details": "Changes the minimum timelock duration for future operations. Emits a {MinDelayChange} event. Requirements: - the caller must be the timelock itself. This can only be achieved by scheduling and later executing an operation where the timelock is the target and the data is the ABI-encoded call to this function."
      }
    },
    "version": 1
  },
  "opcodes": "PUSH1 0x80 PUSH1 0x40 MSTORE PUSH1 0x4 CALLDATASIZE LT PUSH2 0x1C6 JUMPI PUSH1 0x0 CALLDATALOAD PUSH1 0xE0 SHR DUP1 PUSH4 0x8065657F GT PUSH2 0xF7 JUMPI DUP1 PUSH4 0xBC197C81 GT PUSH2 0x95 JUMPI DUP1 PUSH4 0xD547741F GT PUSH2 0x64 JUMPI DUP1 PUSH4 0xD547741F EQ PUSH2 0x5AD JUMPI DUP1 PUSH4 0xE38335E5 EQ PUSH2 0x5CD JUMPI DUP1 PUSH4 0xF23A6E61 EQ PUSH2 0x5E0 JUMPI DUP1 PUSH4 0xF27A0C92 EQ PUSH2 0x60C JUMPI PUSH1 0x0 DUP1 REVERT JUMPDEST DUP1 PUSH4 0xBC197C81 EQ PUSH2 0x514 JUMPI DUP1 PUSH4 0xC4D252F5 EQ PUSH2 0x540 JUMPI DUP1 PUSH4 0xCA3065FE EQ PUSH2 0x560 JUMPI DUP1 PUSH4 0xD45C4435 EQ PUSH2 0x580 JUMPI PUSH1 0x0 DUP1 REVERT JUMPDEST DUP1 PUSH4 0x91D14854 GT PUSH2 0xD1 JUMPI DUP1 PUSH4 0x91D14854 EQ PUSH2 0x48B JUMPI DUP1 PUSH4 0xA217FDDF EQ PUSH2 0x4AB JUMPI DUP1 PUSH4 0xB08E51C0 EQ PUSH2 0x4C0 JUMPI DUP1 PUSH4 0xB1C5F427 EQ PUSH2 0x4F4 JUMPI PUSH1 0x0 DUP1 REVERT JUMPDEST DUP1 PUSH4 0x8065657F EQ PUSH2 0x417 JUMPI DUP1 PUSH4 0x8F2A0BB0 EQ PUSH2 0x437 JUMPI DUP1 PUSH4 0x8F61F4F5 EQ PUSH2 0x457 JUMPI PUSH1 0x0 DUP1 REVERT JUMPDEST DUP1 PUSH4 0x248A9CA3 GT PUSH2 0x164 JUMPI DUP1 PUSH4 0x31D50750 GT PUSH2 0x13E JUMPI DUP1 PUSH4 0x31D50750 EQ PUSH2 0x397 JUMPI DUP1 PUSH4 0x36568ABE EQ PUSH2 0x3B7 JUMPI DUP1 PUSH4 0x584B153E EQ PUSH2 0x3D7 JUMPI DUP1 PUSH4 0x64D62353 EQ PUSH2 0x3F7 JUMPI PUSH1 0x0 DUP1 REVERT JUMPDEST DUP1 PUSH4 0x248A9CA3 EQ PUSH2 0x316 JUMPI DUP1 PUSH4 0x2AB0F529 EQ PUSH2 0x346 JUMPI DUP1 PUSH4 0x2F2FF15D EQ PUSH2 0x377 JUMPI PUSH1 0x0 DUP1 REVERT JUMPDEST DUP1 PUSH4 0xD3CF6FC GT PUSH2 0x1A0 JUMPI DUP1 PUSH4 0xD3CF6FC EQ PUSH2 0x26B JUMPI DUP1 PUSH4 0x134008D3 EQ PUSH2 0x29F JUMPI DUP1 PUSH4 0x13BC9F20 EQ PUSH2 0x2B2 JUMPI DUP1 PUSH4 0x150B7A02 EQ PUSH2 0x2D2 JUMPI PUSH1 0x0 DUP1 REVERT JUMPDEST DUP1 PUSH4 0x1D5062A EQ PUSH2 0x1D2 JUMPI DUP1 PUSH4 0x1FFC9A7 EQ PUSH2 0x1F4 JUMPI DUP1 PUSH4 0x7BD0265 EQ PUSH2 0x229 JUMPI PUSH1 0x0 DUP1 REVERT JUMPDEST CALLDATASIZE PUSH2 0x1CD JUMPI STOP JUMPDEST PUSH1 0x0 DUP1 REVERT JUMPDEST CALLVALUE DUP1 ISZERO PUSH2 0x1DE JUMPI PUSH1 0x0 DUP1 REVERT JUMPDEST POP PUSH2 0x1F2 PUSH2 0x1ED CALLDATASIZE PUSH1 0x4 PUSH2 0x14A7 JUMP JUMPDEST PUSH2 0x621 JUMP JUMPDEST STOP JUMPDEST CALLVALUE DUP1 ISZERO PUSH2 0x200 JUMPI PUSH1 0x0 DUP1 REVERT JUMPDEST POP PUSH2 0x214 PUSH2 0x20F CALLDATASIZE PUSH1 0x4 PUSH2 0x151B JUMP JUMPDEST PUSH2 0x6B6 JUMP JUMPDEST PUSH1 0x40 MLOAD SWAP1 ISZERO ISZERO DUP2 MSTORE PUSH1 0x20 ADD JUMPDEST PUSH1 0x40 MLOAD DUP1 SWAP2 SUB SWAP1 RETURN JUMPDEST CALLVALUE DUP1 ISZERO PUSH2 0x235 JUMPI PUSH1 0x0 DUP1 REVERT JUMPDEST POP PUSH2 0x25D PUSH32 0xD8AA0F3194971A2A116679F7C2090F6939C8D4E01A2A8D7E41D55E5351469E63 DUP2 JUMP JUMPDEST PUSH1 0x40 MLOAD SWAP1 DUP2 MSTORE PUSH1 0x20 ADD PUSH2 0x220 JUMP JUMPDEST CALLVALUE DUP1 ISZERO PUSH2 0x277 JUMPI PUSH1 0x0 DUP1 REVERT JUMPDEST POP PUSH2 0x25D PUSH32 0x5F58E3A2316349923CE3780F8D587DB2D72378AED66A8261C916544FA6846CA5 DUP2 JUMP JUMPDEST PUSH2 0x1F2 PUSH2 0x2AD CALLDATASIZE PUSH1 0x4 PUSH2 0x1545 JUMP JUMPDEST PUSH2 0x6E1 JUMP JUMPDEST CALLVALUE DUP1 ISZERO PUSH2 0x2BE JUMPI PUSH1 0x0 DUP1 REVERT JUMPDEST POP PUSH2 0x214 PUSH2 0x2CD CALLDATASIZE PUSH1 0x4 PUSH2 0x15B0 JUMP JUMPDEST PUSH2 0x796 JUMP JUMPDEST CALLVALUE DUP1 ISZERO PUSH2 0x2DE JUMPI PUSH1 0x0 DUP1 REVERT JUMPDEST POP PUSH2 0x2FD PUSH2 0x2ED CALLDATASIZE PUSH1 0x4 PUSH2 0x167E JUMP JUMPDEST PUSH4 0xA85BD01 PUSH1 0xE1 SHL SWAP5 SWAP4 POP POP POP POP JUMP JUMPDEST PUSH1 0x40 MLOAD PUSH1 0x1 PUSH1 0x1 PUSH1 0xE0 SHL SUB NOT SWAP1 SWAP2 AND DUP2 MSTORE PUSH1 0x20 ADD PUSH2 0x220 JUMP JUMPDEST CALLVALUE DUP1 ISZERO PUSH2 0x322 JUMPI PUSH1 0x0 DUP1 REVERT JUMPDEST POP PUSH2 0x25D PUSH2 0x331 CALLDATASIZE PUSH1 0x4 PUSH2 0x15B0 JUMP JUMPDEST PUSH1 0x0 SWAP1 DUP2 MSTORE PUSH1 0x20 DUP2 SWAP1 MSTORE PUSH1 0x40 SWAP1 KECCAK256 PUSH1 0x1 ADD SLOAD SWAP1 JUMP JUMPDEST CALLVALUE DUP1 ISZERO PUSH2 0x352 JUMPI PUSH1 0x0 DUP1 REVERT JUMPDEST POP PUSH2 0x214 PUSH2 0x361 CALLDATASIZE PUSH1 0x4 PUSH2 0x15B0 JUMP JUMPDEST PUSH1 0x0 SWAP1 DUP2 MSTORE PUSH1 0x1 PUSH1 0x20 DUP2 SWAP1 MSTORE PUSH1 0x40 SWAP1 SWAP2 KECCAK256 SLOAD EQ SWAP1 JUMP JUMPDEST CALLVALUE DUP1 ISZERO PUSH2 0x383 JUMPI PUSH1 0x0 DUP1 REVERT JUMPDEST POP PUSH2 0x1F2 PUSH2 0x392 CALLDATASIZE PUSH1 0x4 PUSH2 0x16E5 JUMP JUMPDEST PUSH2 0x7BC JUMP JUMPDEST CALLVALUE DUP1 ISZERO PUSH2 0x3A3 JUMPI PUSH1 0x0 DUP1 REVERT JUMPDEST POP PUSH2 0x214 PUSH2 0x3B2 CALLDATASIZE PUSH1 0x4 PUSH2 0x15B0 JUMP JUMPDEST PUSH2 0x7E6 JUMP JUMPDEST CALLVALUE DUP1 ISZERO PUSH2 0x3C3 JUMPI PUSH1 0x0 DUP1 REVERT JUMPDEST POP PUSH2 0x1F2 PUSH2 0x3D2 CALLDATASIZE PUSH1 0x4 PUSH2 0x16E5 JUMP JUMPDEST PUSH2 0x7FF JUMP JUMPDEST CALLVALUE DUP1 ISZERO PUSH2 0x3E3 JUMPI PUSH1 0x0 DUP1 REVERT JUMPDEST POP PUSH2 0x214 PUSH2 0x3F2 CALLDATASIZE PUSH1 0x4 PUSH2 0x15B0 JUMP JUMPDEST PUSH2 0x882 JUMP JUMPDEST CALLVALUE DUP1 ISZERO PUSH2 0x403 JUMPI PUSH1 0x0 DUP1 REVERT JUMPDEST POP PUSH2 0x1F2 PUSH2 0x412 CALLDATASIZE PUSH1 0x4 PUSH2 0x15B0 JUMP JUMPDEST PUSH2 0x898 JUMP JUMPDEST CALLVALUE DUP1 ISZERO PUSH2 0x423 JUMPI PUSH1 0x0 DUP1 REVERT JUMPDEST POP PUSH2 0x25D PUSH2 0x432 CALLDATASIZE PUSH1 0x4 PUSH2 0x1545 JUMP JUMPDEST PUSH2 0x93C JUMP JUMPDEST CALLVALUE DUP1 ISZERO PUSH2 0x443 JUMPI PUSH1 0x0 DUP1 REVERT JUMPDEST POP PUSH2 0x1F2 PUSH2 0x452 CALLDATASIZE PUSH1 0x4 PUSH2 0x1755 JUMP JUMPDEST PUSH2 0x97B JUMP JUMPDEST CALLVALUE DUP1 ISZERO PUSH2 0x463 JUMPI PUSH1 0x0 DUP1 REVERT JUMPDEST POP PUSH2 0x25D PUSH32 0xB09AA5AEB3702CFD50B6B62BC4532604938F21248A27A1D5CA736082B6819CC1 DUP2 JUMP JUMPDEST CALLVALUE DUP1 ISZERO PUSH2 0x497 JUMPI PUSH1 0x0 DUP1 REVERT JUMPDEST POP PUSH2 0x214 PUSH2 0x4A6 CALLDATASIZE PUSH1 0x4 PUSH2 0x16E5 JUMP JUMPDEST PUSH2 0xACD JUMP JUMPDEST CALLVALUE DUP1 ISZERO PUSH2 0x4B7 JUMPI PUSH1 0x0 DUP1 REVERT JUMPDEST POP PUSH2 0x25D PUSH1 0x0 DUP2 JUMP JUMPDEST CALLVALUE DUP1 ISZERO PUSH2 0x4CC JUMPI PUSH1 0x0 DUP1 REVERT JUMPDEST POP PUSH2 0x25D PUSH32 0xFD643C72710C63C0180259ABA6B2D05451E3591A24E58B62239378085726F783 DUP2 JUMP JUMPDEST CALLVALUE DUP1 ISZERO PUSH2 0x500 JUMPI PUSH1 0x0 DUP1 REVERT JUMPDEST POP PUSH2 0x25D PUSH2 0x50F CALLDATASIZE PUSH1 0x4 PUSH2 0x1806 JUMP JUMPDEST PUSH2 0xAF6 JUMP JUMPDEST CALLVALUE DUP1 ISZERO PUSH2 0x520 JUMPI PUSH1 0x0 DUP1 REVERT JUMPDEST POP PUSH2 0x2FD PUSH2 0x52F CALLDATASIZE PUSH1 0x4 PUSH2 0x193C JUMP JUMPDEST PUSH4 0xBC197C81 PUSH1 0xE0 SHL SWAP6 SWAP5 POP POP POP POP POP JUMP JUMPDEST CALLVALUE DUP1 ISZERO PUSH2 0x54C JUMPI PUSH1 0x0 DUP1 REVERT JUMPDEST POP PUSH2 0x1F2 PUSH2 0x55B CALLDATASIZE PUSH1 0x4 PUSH2 0x15B0 JUMP JUMPDEST PUSH2 0xB3B JUMP JUMPDEST CALLVALUE DUP1 ISZERO PUSH2 0x56C JUMPI PUSH1 0x0 DUP1 REVERT JUMPDEST POP PUSH2 0x1F2 PUSH2 0x57B CALLDATASIZE PUSH1 0x4 PUSH2 0x19E5 JUMP JUMPDEST PUSH2 0xC10 JUMP JUMPDEST CALLVALUE DUP1 ISZERO PUSH2 0x58C JUMPI PUSH1 0x0 DUP1 REVERT JUMPDEST POP PUSH2 0x25D PUSH2 0x59B CALLDATASIZE PUSH1 0x4 PUSH2 0x15B0 JUMP JUMPDEST PUSH1 0x0 SWAP1 DUP2 MSTORE PUSH1 0x1 PUSH1 0x20 MSTORE PUSH1 0x40 SWAP1 KECCAK256 SLOAD SWAP1 JUMP JUMPDEST CALLVALUE DUP1 ISZERO PUSH2 0x5B9 JUMPI PUSH1 0x0 DUP1 REVERT JUMPDEST POP PUSH2 0x1F2 PUSH2 0x5C8 CALLDATASIZE PUSH1 0x4 PUSH2 0x16E5 JUMP JUMPDEST PUSH2 0xCD3 JUMP JUMPDEST PUSH2 0x1F2 PUSH2 0x5DB CALLDATASIZE PUSH1 0x4 PUSH2 0x1806 JUMP JUMPDEST PUSH2 0xCF8 JUMP JUMPDEST CALLVALUE DUP1 ISZERO PUSH2 0x5EC JUMPI PUSH1 0x0 DUP1 REVERT JUMPDEST POP PUSH2 0x2FD PUSH2 0x5FB CALLDATASIZE PUSH1 0x4 PUSH2 0x1A87 JUMP JUMPDEST PUSH4 0xF23A6E61 PUSH1 0xE0 SHL SWAP6 SWAP5 POP POP POP POP POP JUMP JUMPDEST CALLVALUE DUP1 ISZERO PUSH2 0x618 JUMPI PUSH1 0x0 DUP1 REVERT JUMPDEST POP PUSH1 0x2 SLOAD PUSH2 0x25D JUMP JUMPDEST PUSH32 0xB09AA5AEB3702CFD50B6B62BC4532604938F21248A27A1D5CA736082B6819CC1 PUSH2 0x64B DUP2 PUSH2 0xE82 JUMP JUMPDEST PUSH1 0x0 PUSH2 0x65B DUP10 DUP10 DUP10 DUP10 DUP10 DUP10 PUSH2 0x93C JUMP JUMPDEST SWAP1 POP PUSH2 0x667 DUP2 DUP5 PUSH2 0xE8F JUMP JUMPDEST PUSH1 0x0 DUP2 PUSH32 0x4CF4410CC57040E44862EF0F45F3DD5A5E02DB8EB8ADD648D4B0E236F1D07DCA DUP12 DUP12 DUP12 DUP12 DUP12 DUP11 PUSH1 0x40 MLOAD PUSH2 0x6A3 SWAP7 SWAP6 SWAP5 SWAP4 SWAP3 SWAP2 SWAP1 PUSH2 0x1B14 JUMP JUMPDEST PUSH1 0x40 MLOAD DUP1 SWAP2 SUB SWAP1 LOG3 POP POP POP POP POP POP POP POP POP JUMP JUMPDEST PUSH1 0x0 PUSH1 0x1 PUSH1 0x1 PUSH1 0xE0 SHL SUB NOT DUP3 AND PUSH4 0x2711897 PUSH1 0xE5 SHL EQ DUP1 PUSH2 0x6DB JUMPI POP PUSH2 0x6DB DUP3 PUSH2 0xF7E JUMP JUMPDEST SWAP3 SWAP2 POP POP JUMP JUMPDEST PUSH32 0xD8AA0F3194971A2A116679F7C2090F6939C8D4E01A2A8D7E41D55E5351469E63 PUSH2 0x70D DUP2 PUSH1 0x0 PUSH2 0xACD JUMP JUMPDEST PUSH2 0x71B JUMPI PUSH2 0x71B DUP2 CALLER PUSH2 0xFB3 JUMP JUMPDEST PUSH1 0x0 PUSH2 0x72B DUP9 DUP9 DUP9 DUP9 DUP9 DUP9 PUSH2 0x93C JUMP JUMPDEST SWAP1 POP PUSH2 0x737 DUP2 DUP6 PUSH2 0x1017 JUMP JUMPDEST PUSH2 0x743 DUP9 DUP9 DUP9 DUP9 PUSH2 0x10B3 JUMP JUMPDEST PUSH1 0x0 DUP2 PUSH32 0xC2617EFA69BAB66782FA219543714338489C4E9E178271560A91B82C3F612B58 DUP11 DUP11 DUP11 DUP11 PUSH1 0x40 MLOAD PUSH2 0x77B SWAP5 SWAP4 SWAP3 SWAP2 SWAP1 PUSH2 0x1B51 JUMP JUMPDEST PUSH1 0x40 MLOAD DUP1 SWAP2 SUB SWAP1 LOG3 PUSH2 0x78C DUP2 PUSH2 0x1186 JUMP JUMPDEST POP POP POP POP POP POP POP POP JUMP JUMPDEST PUSH1 0x0 DUP2 DUP2 MSTORE PUSH1 0x1 PUSH1 0x20 MSTORE PUSH1 0x40 DUP2 KECCAK256 SLOAD PUSH1 0x1 DUP2 GT DUP1 ISZERO PUSH2 0x7B5 JUMPI POP TIMESTAMP DUP2 GT ISZERO JUMPDEST SWAP4 SWAP3 POP POP POP JUMP JUMPDEST PUSH1 0x0 DUP3 DUP2 MSTORE PUSH1 0x20 DUP2 SWAP1 MSTORE PUSH1 0x40 SWAP1 KECCAK256 PUSH1 0x1 ADD SLOAD PUSH2 0x7D7 DUP2 PUSH2 0xE82 JUMP JUMPDEST PUSH2 0x7E1 DUP4 DUP4 PUSH2 0x11BF JUMP JUMPDEST POP POP POP JUMP JUMPDEST PUSH1 0x0 DUP2 DUP2 MSTORE PUSH1 0x1 PUSH1 0x20 MSTORE PUSH1 0x40 DUP2 KECCAK256 SLOAD DUP2 SWAP1 JUMPDEST GT SWAP3 SWAP2 POP POP JUMP JUMPDEST PUSH1 0x1 PUSH1 0x1 PUSH1 0xA0 SHL SUB DUP2 AND CALLER EQ PUSH2 0x874 JUMPI PUSH1 0x40 MLOAD PUSH3 0x461BCD PUSH1 0xE5 SHL DUP2 MSTORE PUSH1 0x20 PUSH1 0x4 DUP3 ADD MSTORE PUSH1 0x2F PUSH1 0x24 DUP3 ADD MSTORE PUSH32 0x416363657373436F6E74726F6C3A2063616E206F6E6C792072656E6F756E6365 PUSH1 0x44 DUP3 ADD MSTORE PUSH15 0x103937B632B9903337B91039B2B633 PUSH1 0x89 SHL PUSH1 0x64 DUP3 ADD MSTORE PUSH1 0x84 ADD JUMPDEST PUSH1 0x40 MLOAD DUP1 SWAP2 SUB SWAP1 REVERT JUMPDEST PUSH2 0x87E DUP3 DUP3 PUSH2 0x1243 JUMP JUMPDEST POP POP JUMP JUMPDEST PUSH1 0x0 DUP2 DUP2 MSTORE PUSH1 0x1 PUSH1 0x20 DUP2 SWAP1 MSTORE PUSH1 0x40 DUP3 KECCAK256 SLOAD PUSH2 0x7F8 JUMP JUMPDEST CALLER ADDRESS EQ PUSH2 0x8FB JUMPI PUSH1 0x40 MLOAD PUSH3 0x461BCD PUSH1 0xE5 SHL DUP2 MSTORE PUSH1 0x20 PUSH1 0x4 DUP3 ADD MSTORE PUSH1 0x2B PUSH1 0x24 DUP3 ADD MSTORE PUSH32 0x54696D656C6F636B436F6E74726F6C6C65723A2063616C6C6572206D75737420 PUSH1 0x44 DUP3 ADD MSTORE PUSH11 0x62652074696D656C6F636B PUSH1 0xA8 SHL PUSH1 0x64 DUP3 ADD MSTORE PUSH1 0x84 ADD PUSH2 0x86B JUMP JUMPDEST PUSH1 0x2 SLOAD PUSH1 0x40 DUP1 MLOAD SWAP2 DUP3 MSTORE PUSH1 0x20 DUP3 ADD DUP4 SWAP1 MSTORE PUSH32 0x11C24F4EAD16507C69AC467FBD5E4EED5FB5C699626D2CC6D66421DF253886D5 SWAP2 ADD PUSH1 0x40 MLOAD DUP1 SWAP2 SUB SWAP1 LOG1 PUSH1 0x2 SSTORE JUMP JUMPDEST PUSH1 0x0 DUP7 DUP7 DUP7 DUP7 DUP7 DUP7 PUSH1 0x40 MLOAD PUSH1 0x20 ADD PUSH2 0x959 SWAP7 SWAP6 SWAP5 SWAP4 SWAP3 SWAP2 SWAP1 PUSH2 0x1B14 JUMP JUMPDEST PUSH1 0x40 MLOAD PUSH1 0x20 DUP2 DUP4 SUB SUB DUP2 MSTORE SWAP1 PUSH1 0x40 MSTORE DUP1 MLOAD SWAP1 PUSH1 0x20 ADD KECCAK256 SWAP1 POP SWAP7 SWAP6 POP POP POP POP POP POP JUMP JUMPDEST PUSH32 0xB09AA5AEB3702CFD50B6B62BC4532604938F21248A27A1D5CA736082B6819CC1 PUSH2 0x9A5 DUP2 PUSH2 0xE82 JUMP JUMPDEST DUP9 DUP8 EQ PUSH2 0x9C4 JUMPI PUSH1 0x40 MLOAD PUSH3 0x461BCD PUSH1 0xE5 SHL DUP2 MSTORE PUSH1 0x4 ADD PUSH2 0x86B SWAP1 PUSH2 0x1B83 JUMP JUMPDEST DUP9 DUP6 EQ PUSH2 0x9E3 JUMPI PUSH1 0x40 MLOAD PUSH3 0x461BCD PUSH1 0xE5 SHL DUP2 MSTORE PUSH1 0x4 ADD PUSH2 0x86B SWAP1 PUSH2 0x1B83 JUMP JUMPDEST PUSH1 0x0 PUSH2 0x9F5 DUP12 DUP12 DUP12 DUP12 DUP12 DUP12 DUP12 DUP12 PUSH2 0xAF6 JUMP JUMPDEST SWAP1 POP PUSH2 0xA01 DUP2 DUP5 PUSH2 0xE8F JUMP JUMPDEST PUSH1 0x0 JUMPDEST DUP11 DUP2 LT ISZERO PUSH2 0xABF JUMPI DUP1 DUP3 PUSH32 0x4CF4410CC57040E44862EF0F45F3DD5A5E02DB8EB8ADD648D4B0E236F1D07DCA DUP15 DUP15 DUP6 DUP2 DUP2 LT PUSH2 0xA41 JUMPI PUSH2 0xA41 PUSH2 0x1BC6 JUMP JUMPDEST SWAP1 POP PUSH1 0x20 MUL ADD PUSH1 0x20 DUP2 ADD SWAP1 PUSH2 0xA56 SWAP2 SWAP1 PUSH2 0x1BDC JUMP JUMPDEST DUP14 DUP14 DUP7 DUP2 DUP2 LT PUSH2 0xA68 JUMPI PUSH2 0xA68 PUSH2 0x1BC6 JUMP JUMPDEST SWAP1 POP PUSH1 0x20 MUL ADD CALLDATALOAD DUP13 DUP13 DUP8 DUP2 DUP2 LT PUSH2 0xA81 JUMPI PUSH2 0xA81 PUSH2 0x1BC6 JUMP JUMPDEST SWAP1 POP PUSH1 0x20 MUL DUP2 ADD SWAP1 PUSH2 0xA93 SWAP2 SWAP1 PUSH2 0x1BF7 JUMP JUMPDEST DUP13 DUP12 PUSH1 0x40 MLOAD PUSH2 0xAA7 SWAP7 SWAP6 SWAP5 SWAP4 SWAP3 SWAP2 SWAP1 PUSH2 0x1B14 JUMP JUMPDEST PUSH1 0x40 MLOAD DUP1 SWAP2 SUB SWAP1 LOG3 PUSH2 0xAB8 DUP2 PUSH2 0x1C53 JUMP JUMPDEST SWAP1 POP PUSH2 0xA04 JUMP JUMPDEST POP POP POP POP POP POP POP POP POP POP POP POP JUMP JUMPDEST PUSH1 0x0 SWAP2 DUP3 MSTORE PUSH1 0x20 DUP3 DUP2 MSTORE PUSH1 0x40 DUP1 DUP5 KECCAK256 PUSH1 0x1 PUSH1 0x1 PUSH1 0xA0 SHL SUB SWAP4 SWAP1 SWAP4 AND DUP5 MSTORE SWAP2 SWAP1 MSTORE SWAP1 KECCAK256 SLOAD PUSH1 0xFF AND SWAP1 JUMP JUMPDEST PUSH1 0x0 DUP9 DUP9 DUP9 DUP9 DUP9 DUP9 DUP9 DUP9 PUSH1 0x40 MLOAD PUSH1 0x20 ADD PUSH2 0xB17 SWAP9 SWAP8 SWAP7 SWAP6 SWAP5 SWAP4 SWAP3 SWAP2 SWAP1 PUSH2 0x1CFD JUMP JUMPDEST PUSH1 0x40 MLOAD PUSH1 0x20 DUP2 DUP4 SUB SUB DUP2 MSTORE SWAP1 PUSH1 0x40 MSTORE DUP1 MLOAD SWAP1 PUSH1 0x20 ADD KECCAK256 SWAP1 POP SWAP9 SWAP8 POP POP POP POP POP POP POP POP JUMP JUMPDEST PUSH32 0xFD643C72710C63C0180259ABA6B2D05451E3591A24E58B62239378085726F783 PUSH2 0xB65 DUP2 PUSH2 0xE82 JUMP JUMPDEST PUSH2 0xB6E DUP3 PUSH2 0x882 JUMP JUMPDEST PUSH2 0xBD4 JUMPI PUSH1 0x40 MLOAD PUSH3 0x461BCD PUSH1 0xE5 SHL DUP2 MSTORE PUSH1 0x20 PUSH1 0x4 DUP3 ADD MSTORE PUSH1 0x31 PUSH1 0x24 DUP3 ADD MSTORE PUSH32 0x54696D656C6F636B436F6E74726F6C6C65723A206F7065726174696F6E206361 PUSH1 0x44 DUP3 ADD MSTORE PUSH17 0x1B9B9BDD0818994818D85B98D95B1B1959 PUSH1 0x7A SHL PUSH1 0x64 DUP3 ADD MSTORE PUSH1 0x84 ADD PUSH2 0x86B JUMP JUMPDEST PUSH1 0x0 DUP3 DUP2 MSTORE PUSH1 0x1 PUSH1 0x20 MSTORE PUSH1 0x40 DUP1 DUP3 KECCAK256 DUP3 SWAP1 SSTORE MLOAD DUP4 SWAP2 PUSH32 0xBAA1EB22F2A492BA1A5FEA61B8DF4D27C6C8B5F3971E63BB58FA14FF72EEDB70 SWAP2 LOG2 POP POP JUMP JUMPDEST PUSH2 0xC43 DUP3 PUSH1 0x0 DUP2 MLOAD DUP2 LT PUSH2 0xC26 JUMPI PUSH2 0xC26 PUSH2 0x1BC6 JUMP JUMPDEST PUSH1 0x20 MUL PUSH1 0x20 ADD ADD MLOAD PUSH1 0x0 SWAP1 DUP2 MSTORE PUSH1 0x20 DUP2 SWAP1 MSTORE PUSH1 0x40 SWAP1 KECCAK256 PUSH1 0x1 ADD SLOAD SWAP1 JUMP JUMPDEST PUSH2 0xC4C DUP2 PUSH2 0xE82 JUMP JUMPDEST PUSH2 0xC62 DUP4 PUSH1 0x1 DUP2 MLOAD DUP2 LT PUSH2 0xC26 JUMPI PUSH2 0xC26 PUSH2 0x1BC6 JUMP JUMPDEST PUSH2 0xC6B DUP2 PUSH2 0xE82 JUMP JUMPDEST PUSH2 0xC81 DUP5 PUSH1 0x2 DUP2 MLOAD DUP2 LT PUSH2 0xC26 JUMPI PUSH2 0xC26 PUSH2 0x1BC6 JUMP JUMPDEST PUSH2 0xC8A DUP2 PUSH2 0xE82 JUMP JUMPDEST PUSH1 0x0 JUMPDEST DUP6 MLOAD DUP2 LT ISZERO PUSH2 0xCCB JUMPI PUSH2 0xCB9 DUP7 DUP3 DUP2 MLOAD DUP2 LT PUSH2 0xCAB JUMPI PUSH2 0xCAB PUSH2 0x1BC6 JUMP JUMPDEST PUSH1 0x20 MUL PUSH1 0x20 ADD ADD MLOAD DUP7 PUSH2 0x11BF JUMP JUMPDEST DUP1 PUSH2 0xCC3 DUP2 PUSH2 0x1C53 JUMP JUMPDEST SWAP2 POP POP PUSH2 0xC8D JUMP JUMPDEST POP POP POP POP POP POP JUMP JUMPDEST PUSH1 0x0 DUP3 DUP2 MSTORE PUSH1 0x20 DUP2 SWAP1 MSTORE PUSH1 0x40 SWAP1 KECCAK256 PUSH1 0x1 ADD SLOAD PUSH2 0xCEE DUP2 PUSH2 0xE82 JUMP JUMPDEST PUSH2 0x7E1 DUP4 DUP4 PUSH2 0x1243 JUMP JUMPDEST PUSH32 0xD8AA0F3194971A2A116679F7C2090F6939C8D4E01A2A8D7E41D55E5351469E63 PUSH2 0xD24 DUP2 PUSH1 0x0 PUSH2 0xACD JUMP JUMPDEST PUSH2 0xD32 JUMPI PUSH2 0xD32 DUP2 CALLER PUSH2 0xFB3 JUMP JUMPDEST DUP8 DUP7 EQ PUSH2 0xD51 JUMPI PUSH1 0x40 MLOAD PUSH3 0x461BCD PUSH1 0xE5 SHL DUP2 MSTORE PUSH1 0x4 ADD PUSH2 0x86B SWAP1 PUSH2 0x1B83 JUMP JUMPDEST DUP8 DUP5 EQ PUSH2 0xD70 JUMPI PUSH1 0x40 MLOAD PUSH3 0x461BCD PUSH1 0xE5 SHL DUP2 MSTORE PUSH1 0x4 ADD PUSH2 0x86B SWAP1 PUSH2 0x1B83 JUMP JUMPDEST PUSH1 0x0 PUSH2 0xD82 DUP11 DUP11 DUP11 DUP11 DUP11 DUP11 DUP11 DUP11 PUSH2 0xAF6 JUMP JUMPDEST SWAP1 POP PUSH2 0xD8E DUP2 DUP6 PUSH2 0x1017 JUMP JUMPDEST PUSH1 0x0 JUMPDEST DUP10 DUP2 LT ISZERO PUSH2 0xE6C JUMPI PUSH1 0x0 DUP12 DUP12 DUP4 DUP2 DUP2 LT PUSH2 0xDAD JUMPI PUSH2 0xDAD PUSH2 0x1BC6 JUMP JUMPDEST SWAP1 POP PUSH1 0x20 MUL ADD PUSH1 0x20 DUP2 ADD SWAP1 PUSH2 0xDC2 SWAP2 SWAP1 PUSH2 0x1BDC JUMP JUMPDEST SWAP1 POP PUSH1 0x0 DUP11 DUP11 DUP5 DUP2 DUP2 LT PUSH2 0xDD8 JUMPI PUSH2 0xDD8 PUSH2 0x1BC6 JUMP JUMPDEST SWAP1 POP PUSH1 0x20 MUL ADD CALLDATALOAD SWAP1 POP CALLDATASIZE PUSH1 0x0 DUP11 DUP11 DUP7 DUP2 DUP2 LT PUSH2 0xDF6 JUMPI PUSH2 0xDF6 PUSH2 0x1BC6 JUMP JUMPDEST SWAP1 POP PUSH1 0x20 MUL DUP2 ADD SWAP1 PUSH2 0xE08 SWAP2 SWAP1 PUSH2 0x1BF7 JUMP JUMPDEST SWAP2 POP SWAP2 POP PUSH2 0xE18 DUP5 DUP5 DUP5 DUP5 PUSH2 0x10B3 JUMP JUMPDEST DUP5 DUP7 PUSH32 0xC2617EFA69BAB66782FA219543714338489C4E9E178271560A91B82C3F612B58 DUP7 DUP7 DUP7 DUP7 PUSH1 0x40 MLOAD PUSH2 0xE4F SWAP5 SWAP4 SWAP3 SWAP2 SWAP1 PUSH2 0x1B51 JUMP JUMPDEST PUSH1 0x40 MLOAD DUP1 SWAP2 SUB SWAP1 LOG3 POP POP POP POP DUP1 PUSH2 0xE65 SWAP1 PUSH2 0x1C53 JUMP JUMPDEST SWAP1 POP PUSH2 0xD91 JUMP JUMPDEST POP PUSH2 0xE76 DUP2 PUSH2 0x1186 JUMP JUMPDEST POP POP POP POP POP POP POP POP POP POP JUMP JUMPDEST PUSH2 0xE8C DUP2 CALLER PUSH2 0xFB3 JUMP JUMPDEST POP JUMP JUMPDEST PUSH2 0xE98 DUP3 PUSH2 0x7E6 JUMP JUMPDEST ISZERO PUSH2 0xEFD JUMPI PUSH1 0x40 MLOAD PUSH3 0x461BCD PUSH1 0xE5 SHL DUP2 MSTORE PUSH1 0x20 PUSH1 0x4 DUP3 ADD MSTORE PUSH1 0x2F PUSH1 0x24 DUP3 ADD MSTORE PUSH32 0x54696D656C6F636B436F6E74726F6C6C65723A206F7065726174696F6E20616C PUSH1 0x44 DUP3 ADD MSTORE PUSH15 0x1C9958591E481CD8DA19591D5B1959 PUSH1 0x8A SHL PUSH1 0x64 DUP3 ADD MSTORE PUSH1 0x84 ADD PUSH2 0x86B JUMP JUMPDEST PUSH1 0x2 SLOAD DUP2 LT ISZERO PUSH2 0xF5E JUMPI PUSH1 0x40 MLOAD PUSH3 0x461BCD PUSH1 0xE5 SHL DUP2 MSTORE PUSH1 0x20 PUSH1 0x4 DUP3 ADD MSTORE PUSH1 0x26 PUSH1 0x24 DUP3 ADD MSTORE PUSH32 0x54696D656C6F636B436F6E74726F6C6C65723A20696E73756666696369656E74 PUSH1 0x44 DUP3 ADD MSTORE PUSH6 0x2064656C6179 PUSH1 0xD0 SHL PUSH1 0x64 DUP3 ADD MSTORE PUSH1 0x84 ADD PUSH2 0x86B JUMP JUMPDEST PUSH2 0xF68 DUP2 TIMESTAMP PUSH2 0x1DA8 JUMP JUMPDEST PUSH1 0x0 SWAP3 DUP4 MSTORE PUSH1 0x1 PUSH1 0x20 MSTORE PUSH1 0x40 SWAP1 SWAP3 KECCAK256 SWAP2 SWAP1 SWAP2 SSTORE POP JUMP JUMPDEST PUSH1 0x0 PUSH1 0x1 PUSH1 0x1 PUSH1 0xE0 SHL SUB NOT DUP3 AND PUSH4 0x7965DB0B PUSH1 0xE0 SHL EQ DUP1 PUSH2 0x6DB JUMPI POP PUSH4 0x1FFC9A7 PUSH1 0xE0 SHL PUSH1 0x1 PUSH1 0x1 PUSH1 0xE0 SHL SUB NOT DUP4 AND EQ PUSH2 0x6DB JUMP JUMPDEST PUSH2 0xFBD DUP3 DUP3 PUSH2 0xACD JUMP JUMPDEST PUSH2 0x87E JUMPI PUSH2 0xFD5 DUP2 PUSH1 0x1 PUSH1 0x1 PUSH1 0xA0 SHL SUB AND PUSH1 0x14 PUSH2 0x12A8 JUMP JUMPDEST PUSH2 0xFE0 DUP4 PUSH1 0x20 PUSH2 0x12A8 JUMP JUMPDEST PUSH1 0x40 MLOAD PUSH1 0x20 ADD PUSH2 0xFF1 SWAP3 SWAP2 SWAP1 PUSH2 0x1DF0 JUMP JUMPDEST PUSH1 0x40 DUP1 MLOAD PUSH1 0x1F NOT DUP2 DUP5 SUB ADD DUP2 MSTORE SWAP1 DUP3 SWAP1 MSTORE PUSH3 0x461BCD PUSH1 0xE5 SHL DUP3 MSTORE PUSH2 0x86B SWAP2 PUSH1 0x4 ADD PUSH2 0x1E65 JUMP JUMPDEST PUSH2 0x1020 DUP3 PUSH2 0x796 JUMP JUMPDEST PUSH2 0x103C JUMPI PUSH1 0x40 MLOAD PUSH3 0x461BCD PUSH1 0xE5 SHL DUP2 MSTORE PUSH1 0x4 ADD PUSH2 0x86B SWAP1 PUSH2 0x1E98 JUMP JUMPDEST DUP1 ISZERO DUP1 PUSH2 0x1058 JUMPI POP PUSH1 0x0 DUP2 DUP2 MSTORE PUSH1 0x1 PUSH1 0x20 DUP2 SWAP1 MSTORE PUSH1 0x40 SWAP1 SWAP2 KECCAK256 SLOAD EQ JUMPDEST PUSH2 0x87E JUMPI PUSH1 0x40 MLOAD PUSH3 0x461BCD PUSH1 0xE5 SHL DUP2 MSTORE PUSH1 0x20 PUSH1 0x4 DUP3 ADD MSTORE PUSH1 0x26 PUSH1 0x24 DUP3 ADD MSTORE PUSH32 0x54696D656C6F636B436F6E74726F6C6C65723A206D697373696E672064657065 PUSH1 0x44 DUP3 ADD MSTORE PUSH6 0x6E64656E6379 PUSH1 0xD0 SHL PUSH1 0x64 DUP3 ADD MSTORE PUSH1 0x84 ADD PUSH2 0x86B JUMP JUMPDEST PUSH1 0x0 DUP5 PUSH1 0x1 PUSH1 0x1 PUSH1 0xA0 SHL SUB AND DUP5 DUP5 DUP5 PUSH1 0x40 MLOAD PUSH2 0x10D0 SWAP3 SWAP2 SWAP1 PUSH2 0x1EE2 JUMP JUMPDEST PUSH1 0x0 PUSH1 0x40 MLOAD DUP1 DUP4 SUB DUP2 DUP6 DUP8 GAS CALL SWAP3 POP POP POP RETURNDATASIZE DUP1 PUSH1 0x0 DUP2 EQ PUSH2 0x110D JUMPI PUSH1 0x40 MLOAD SWAP2 POP PUSH1 0x1F NOT PUSH1 0x3F RETURNDATASIZE ADD AND DUP3 ADD PUSH1 0x40 MSTORE RETURNDATASIZE DUP3 MSTORE RETURNDATASIZE PUSH1 0x0 PUSH1 0x20 DUP5 ADD RETURNDATACOPY PUSH2 0x1112 JUMP JUMPDEST PUSH1 0x60 SWAP2 POP JUMPDEST POP POP SWAP1 POP DUP1 PUSH2 0x117F JUMPI PUSH1 0x40 MLOAD PUSH3 0x461BCD PUSH1 0xE5 SHL DUP2 MSTORE PUSH1 0x20 PUSH1 0x4 DUP3 ADD MSTORE PUSH1 0x33 PUSH1 0x24 DUP3 ADD MSTORE PUSH32 0x54696D656C6F636B436F6E74726F6C6C65723A20756E6465726C79696E672074 PUSH1 0x44 DUP3 ADD MSTORE PUSH19 0x1C985B9CD858DD1A5BDB881C995D995C9D1959 PUSH1 0x6A SHL PUSH1 0x64 DUP3 ADD MSTORE PUSH1 0x84 ADD PUSH2 0x86B JUMP JUMPDEST POP POP POP POP POP JUMP JUMPDEST PUSH2 0x118F DUP2 PUSH2 0x796 JUMP JUMPDEST PUSH2 0x11AB JUMPI PUSH1 0x40 MLOAD PUSH3 0x461BCD PUSH1 0xE5 SHL DUP2 MSTORE PUSH1 0x4 ADD PUSH2 0x86B SWAP1 PUSH2 0x1E98 JUMP JUMPDEST PUSH1 0x0 SWAP1 DUP2 MSTORE PUSH1 0x1 PUSH1 0x20 DUP2 SWAP1 MSTORE PUSH1 0x40 SWAP1 SWAP2 KECCAK256 SSTORE JUMP JUMPDEST PUSH2 0x11C9 DUP3 DUP3 PUSH2 0xACD JUMP JUMPDEST PUSH2 0x87E JUMPI PUSH1 0x0 DUP3 DUP2 MSTORE PUSH1 0x20 DUP2 DUP2 MSTORE PUSH1 0x40 DUP1 DUP4 KECCAK256 PUSH1 0x1 PUSH1 0x1 PUSH1 0xA0 SHL SUB DUP6 AND DUP5 MSTORE SWAP1 SWAP2 MSTORE SWAP1 KECCAK256 DUP1 SLOAD PUSH1 0xFF NOT AND PUSH1 0x1 OR SWAP1 SSTORE PUSH2 0x11FF CALLER SWAP1 JUMP JUMPDEST PUSH1 0x1 PUSH1 0x1 PUSH1 0xA0 SHL SUB AND DUP2 PUSH1 0x1 PUSH1 0x1 PUSH1 0xA0 SHL SUB AND DUP4 PUSH32 0x2F8788117E7EFF1D82E926EC794901D17C78024A50270940304540A733656F0D PUSH1 0x40 MLOAD PUSH1 0x40 MLOAD DUP1 SWAP2 SUB SWAP1 LOG4 POP POP JUMP JUMPDEST PUSH2 0x124D DUP3 DUP3 PUSH2 0xACD JUMP JUMPDEST ISZERO PUSH2 0x87E JUMPI PUSH1 0x0 DUP3 DUP2 MSTORE PUSH1 0x20 DUP2 DUP2 MSTORE PUSH1 0x40 DUP1 DUP4 KECCAK256 PUSH1 0x1 PUSH1 0x1 PUSH1 0xA0 SHL SUB DUP6 AND DUP1 DUP6 MSTORE SWAP3 MSTORE DUP1 DUP4 KECCAK256 DUP1 SLOAD PUSH1 0xFF NOT AND SWAP1 SSTORE MLOAD CALLER SWAP3 DUP6 SWAP2 PUSH32 0xF6391F5C32D9C69D2A47EA670B442974B53935D1EDC7FD64EB21E047A839171B SWAP2 SWAP1 LOG4 POP POP JUMP JUMPDEST PUSH1 0x60 PUSH1 0x0 PUSH2 0x12B7 DUP4 PUSH1 0x2 PUSH2 0x1EF2 JUMP JUMPDEST PUSH2 0x12C2 SWAP1 PUSH1 0x2 PUSH2 0x1DA8 JUMP JUMPDEST PUSH1 0x1 PUSH1 0x1 PUSH1 0x40 SHL SUB DUP2 GT ISZERO PUSH2 0x12D9 JUMPI PUSH2 0x12D9 PUSH2 0x15C9 JUMP JUMPDEST PUSH1 0x40 MLOAD SWAP1 DUP1 DUP3 MSTORE DUP1 PUSH1 0x1F ADD PUSH1 0x1F NOT AND PUSH1 0x20 ADD DUP3 ADD PUSH1 0x40 MSTORE DUP1 ISZERO PUSH2 0x1303 JUMPI PUSH1 0x20 DUP3 ADD DUP2 DUP1 CALLDATASIZE DUP4 CALLDATACOPY ADD SWAP1 POP JUMPDEST POP SWAP1 POP PUSH1 0x3 PUSH1 0xFC SHL DUP2 PUSH1 0x0 DUP2 MLOAD DUP2 LT PUSH2 0x131E JUMPI PUSH2 0x131E PUSH2 0x1BC6 JUMP JUMPDEST PUSH1 0x20 ADD ADD SWAP1 PUSH1 0x1 PUSH1 0x1 PUSH1 0xF8 SHL SUB NOT AND SWAP1 DUP2 PUSH1 0x0 BYTE SWAP1 MSTORE8 POP PUSH1 0xF PUSH1 0xFB SHL DUP2 PUSH1 0x1 DUP2 MLOAD DUP2 LT PUSH2 0x134D JUMPI PUSH2 0x134D PUSH2 0x1BC6 JUMP JUMPDEST PUSH1 0x20 ADD ADD SWAP1 PUSH1 0x1 PUSH1 0x1 PUSH1 0xF8 SHL SUB NOT AND SWAP1 DUP2 PUSH1 0x0 BYTE SWAP1 MSTORE8 POP PUSH1 0x0 PUSH2 0x1371 DUP5 PUSH1 0x2 PUSH2 0x1EF2 JUMP JUMPDEST PUSH2 0x137C SWAP1 PUSH1 0x1 PUSH2 0x1DA8 JUMP JUMPDEST SWAP1 POP JUMPDEST PUSH1 0x1 DUP2 GT ISZERO PUSH2 0x13F4 JUMPI PUSH16 0x181899199A1A9B1B9C1CB0B131B232B3 PUSH1 0x81 SHL DUP6 PUSH1 0xF AND PUSH1 0x10 DUP2 LT PUSH2 0x13B0 JUMPI PUSH2 0x13B0 PUSH2 0x1BC6 JUMP JUMPDEST BYTE PUSH1 0xF8 SHL DUP3 DUP3 DUP2 MLOAD DUP2 LT PUSH2 0x13C6 JUMPI PUSH2 0x13C6 PUSH2 0x1BC6 JUMP JUMPDEST PUSH1 0x20 ADD ADD SWAP1 PUSH1 0x1 PUSH1 0x1 PUSH1 0xF8 SHL SUB NOT AND SWAP1 DUP2 PUSH1 0x0 BYTE SWAP1 MSTORE8 POP PUSH1 0x4 SWAP5 SWAP1 SWAP5 SHR SWAP4 PUSH2 0x13ED DUP2 PUSH2 0x1F11 JUMP JUMPDEST SWAP1 POP PUSH2 0x137F JUMP JUMPDEST POP DUP4 ISZERO PUSH2 0x7B5 JUMPI PUSH1 0x40 MLOAD PUSH3 0x461BCD PUSH1 0xE5 SHL DUP2 MSTORE PUSH1 0x20 PUSH1 0x4 DUP3 ADD DUP2 SWAP1 MSTORE PUSH1 0x24 DUP3 ADD MSTORE PUSH32 0x537472696E67733A20686578206C656E67746820696E73756666696369656E74 PUSH1 0x44 DUP3 ADD MSTORE PUSH1 0x64 ADD PUSH2 0x86B JUMP JUMPDEST DUP1 CALLDATALOAD PUSH1 0x1 PUSH1 0x1 PUSH1 0xA0 SHL SUB DUP2 AND DUP2 EQ PUSH2 0x145A JUMPI PUSH1 0x0 DUP1 REVERT JUMPDEST SWAP2 SWAP1 POP JUMP JUMPDEST PUSH1 0x0 DUP1 DUP4 PUSH1 0x1F DUP5 ADD SLT PUSH2 0x1471 JUMPI PUSH1 0x0 DUP1 REVERT JUMPDEST POP DUP2 CALLDATALOAD PUSH1 0x1 PUSH1 0x1 PUSH1 0x40 SHL SUB DUP2 GT ISZERO PUSH2 0x1488 JUMPI PUSH1 0x0 DUP1 REVERT JUMPDEST PUSH1 0x20 DUP4 ADD SWAP2 POP DUP4 PUSH1 0x20 DUP3 DUP6 ADD ADD GT ISZERO PUSH2 0x14A0 JUMPI PUSH1 0x0 DUP1 REVERT JUMPDEST SWAP3 POP SWAP3 SWAP1 POP JUMP JUMPDEST PUSH1 0x0 DUP1 PUSH1 0x0 DUP1 PUSH1 0x0 DUP1 PUSH1 0x0 PUSH1 0xC0 DUP9 DUP11 SUB SLT ISZERO PUSH2 0x14C2 JUMPI PUSH1 0x0 DUP1 REVERT JUMPDEST PUSH2 0x14CB DUP9 PUSH2 0x1443 JUMP JUMPDEST SWAP7 POP PUSH1 0x20 DUP9 ADD CALLDATALOAD SWAP6 POP PUSH1 0x40 DUP9 ADD CALLDATALOAD PUSH1 0x1 PUSH1 0x1 PUSH1 0x40 SHL SUB DUP2 GT ISZERO PUSH2 0x14ED JUMPI PUSH1 0x0 DUP1 REVERT JUMPDEST PUSH2 0x14F9 DUP11 DUP3 DUP12 ADD PUSH2 0x145F JUMP JUMPDEST SWAP9 SWAP12 SWAP8 SWAP11 POP SWAP9 PUSH1 0x60 DUP2 ADD CALLDATALOAD SWAP8 PUSH1 0x80 DUP3 ADD CALLDATALOAD SWAP8 POP PUSH1 0xA0 SWAP1 SWAP2 ADD CALLDATALOAD SWAP6 POP SWAP4 POP POP POP POP JUMP JUMPDEST PUSH1 0x0 PUSH1 0x20 DUP3 DUP5 SUB SLT ISZERO PUSH2 0x152D JUMPI PUSH1 0x0 DUP1 REVERT JUMPDEST DUP2 CALLDATALOAD PUSH1 0x1 PUSH1 0x1 PUSH1 0xE0 SHL SUB NOT DUP2 AND DUP2 EQ PUSH2 0x7B5 JUMPI PUSH1 0x0 DUP1 REVERT JUMPDEST PUSH1 0x0 DUP1 PUSH1 0x0 DUP1 PUSH1 0x0 DUP1 PUSH1 0xA0 DUP8 DUP10 SUB SLT ISZERO PUSH2 0x155E JUMPI PUSH1 0x0 DUP1 REVERT JUMPDEST PUSH2 0x1567 DUP8 PUSH2 0x1443 JUMP JUMPDEST SWAP6 POP PUSH1 0x20 DUP8 ADD CALLDATALOAD SWAP5 POP PUSH1 0x40 DUP8 ADD CALLDATALOAD PUSH1 0x1 PUSH1 0x1 PUSH1 0x40 SHL SUB DUP2 GT ISZERO PUSH2 0x1589 JUMPI PUSH1 0x0 DUP1 REVERT JUMPDEST PUSH2 0x1595 DUP10 DUP3 DUP11 ADD PUSH2 0x145F JUMP JUMPDEST SWAP8 SWAP11 SWAP7 SWAP10 POP SWAP8 PUSH1 0x60 DUP2 ADD CALLDATALOAD SWAP7 PUSH1 0x80 SWAP1 SWAP2 ADD CALLDATALOAD SWAP6 POP SWAP4 POP POP POP POP JUMP JUMPDEST PUSH1 0x0 PUSH1 0x20 DUP3 DUP5 SUB SLT ISZERO PUSH2 0x15C2 JUMPI PUSH1 0x0 DUP1 REVERT JUMPDEST POP CALLDATALOAD SWAP2 SWAP1 POP JUMP JUMPDEST PUSH4 0x4E487B71 PUSH1 0xE0 SHL PUSH1 0x0 MSTORE PUSH1 0x41 PUSH1 0x4 MSTORE PUSH1 0x24 PUSH1 0x0 REVERT JUMPDEST PUSH1 0x40 MLOAD PUSH1 0x1F DUP3 ADD PUSH1 0x1F NOT AND DUP2 ADD PUSH1 0x1 PUSH1 0x1 PUSH1 0x40 SHL SUB DUP2 GT DUP3 DUP3 LT OR ISZERO PUSH2 0x1607 JUMPI PUSH2 0x1607 PUSH2 0x15C9 JUMP JUMPDEST PUSH1 0x40 MSTORE SWAP2 SWAP1 POP JUMP JUMPDEST PUSH1 0x0 DUP3 PUSH1 0x1F DUP4 ADD SLT PUSH2 0x1620 JUMPI PUSH1 0x0 DUP1 REVERT JUMPDEST DUP2 CALLDATALOAD PUSH1 0x1 PUSH1 0x1 PUSH1 0x40 SHL SUB DUP2 GT ISZERO PUSH2 0x1639 JUMPI PUSH2 0x1639 PUSH2 0x15C9 JUMP JUMPDEST PUSH2 0x164C PUSH1 0x1F DUP3 ADD PUSH1 0x1F NOT AND PUSH1 0x20 ADD PUSH2 0x15DF JUMP JUMPDEST DUP2 DUP2 MSTORE DUP5 PUSH1 0x20 DUP4 DUP7 ADD ADD GT ISZERO PUSH2 0x1661 JUMPI PUSH1 0x0 DUP1 REVERT JUMPDEST DUP2 PUSH1 0x20 DUP6 ADD PUSH1 0x20 DUP4 ADD CALLDATACOPY PUSH1 0x0 SWAP2 DUP2 ADD PUSH1 0x20 ADD SWAP2 SWAP1 SWAP2 MSTORE SWAP4 SWAP3 POP POP POP JUMP JUMPDEST PUSH1 0x0 DUP1 PUSH1 0x0 DUP1 PUSH1 0x80 DUP6 DUP8 SUB SLT ISZERO PUSH2 0x1694 JUMPI PUSH1 0x0 DUP1 REVERT JUMPDEST PUSH2 0x169D DUP6 PUSH2 0x1443 JUMP JUMPDEST SWAP4 POP PUSH2 0x16AB PUSH1 0x20 DUP7 ADD PUSH2 0x1443 JUMP JUMPDEST SWAP3 POP PUSH1 0x40 DUP6 ADD CALLDATALOAD SWAP2 POP PUSH1 0x60 DUP6 ADD CALLDATALOAD PUSH1 0x1 PUSH1 0x1 PUSH1 0x40 SHL SUB DUP2 GT ISZERO PUSH2 0x16CD JUMPI PUSH1 0x0 DUP1 REVERT JUMPDEST PUSH2 0x16D9 DUP8 DUP3 DUP9 ADD PUSH2 0x160F JUMP JUMPDEST SWAP2 POP POP SWAP3 SWAP6 SWAP2 SWAP5 POP SWAP3 POP JUMP JUMPDEST PUSH1 0x0 DUP1 PUSH1 0x40 DUP4 DUP6 SUB SLT ISZERO PUSH2 0x16F8 JUMPI PUSH1 0x0 DUP1 REVERT JUMPDEST DUP3 CALLDATALOAD SWAP2 POP PUSH2 0x1708 PUSH1 0x20 DUP5 ADD PUSH2 0x1443 JUMP JUMPDEST SWAP1 POP SWAP3 POP SWAP3 SWAP1 POP JUMP JUMPDEST PUSH1 0x0 DUP1 DUP4 PUSH1 0x1F DUP5 ADD SLT PUSH2 0x1723 JUMPI PUSH1 0x0 DUP1 REVERT JUMPDEST POP DUP2 CALLDATALOAD PUSH1 0x1 PUSH1 0x1 PUSH1 0x40 SHL SUB DUP2 GT ISZERO PUSH2 0x173A JUMPI PUSH1 0x0 DUP1 REVERT JUMPDEST PUSH1 0x20 DUP4 ADD SWAP2 POP DUP4 PUSH1 0x20 DUP3 PUSH1 0x5 SHL DUP6 ADD ADD GT ISZERO PUSH2 0x14A0 JUMPI PUSH1 0x0 DUP1 REVERT JUMPDEST PUSH1 0x0 DUP1 PUSH1 0x0 DUP1 PUSH1 0x0 DUP1 PUSH1 0x0 DUP1 PUSH1 0x0 PUSH1 0xC0 DUP11 DUP13 SUB SLT ISZERO PUSH2 0x1773 JUMPI PUSH1 0x0 DUP1 REVERT JUMPDEST DUP10 CALLDATALOAD PUSH1 0x1 PUSH1 0x1 PUSH1 0x40 SHL SUB DUP1 DUP3 GT ISZERO PUSH2 0x178A JUMPI PUSH1 0x0 DUP1 REVERT JUMPDEST PUSH2 0x1796 DUP14 DUP4 DUP15 ADD PUSH2 0x1711 JUMP JUMPDEST SWAP1 SWAP12 POP SWAP10 POP PUSH1 0x20 DUP13 ADD CALLDATALOAD SWAP2 POP DUP1 DUP3 GT ISZERO PUSH2 0x17AF JUMPI PUSH1 0x0 DUP1 REVERT JUMPDEST PUSH2 0x17BB DUP14 DUP4 DUP15 ADD PUSH2 0x1711 JUMP JUMPDEST SWAP1 SWAP10 POP SWAP8 POP PUSH1 0x40 DUP13 ADD CALLDATALOAD SWAP2 POP DUP1 DUP3 GT ISZERO PUSH2 0x17D4 JUMPI PUSH1 0x0 DUP1 REVERT JUMPDEST POP PUSH2 0x17E1 DUP13 DUP3 DUP14 ADD PUSH2 0x1711 JUMP JUMPDEST SWAP11 SWAP14 SWAP10 SWAP13 POP SWAP8 SWAP11 SWAP7 SWAP10 SWAP8 SWAP9 PUSH1 0x60 DUP9 ADD CALLDATALOAD SWAP8 PUSH1 0x80 DUP2 ADD CALLDATALOAD SWAP8 POP PUSH1 0xA0 ADD CALLDATALOAD SWAP6 POP SWAP4 POP POP POP POP JUMP JUMPDEST PUSH1 0x0 DUP1 PUSH1 0x0 DUP1 PUSH1 0x0 DUP1 PUSH1 0x0 DUP1 PUSH1 0xA0 DUP10 DUP12 SUB SLT ISZERO PUSH2 0x1822 JUMPI PUSH1 0x0 DUP1 REVERT JUMPDEST DUP9 CALLDATALOAD PUSH1 0x1 PUSH1 0x1 PUSH1 0x40 SHL SUB DUP1 DUP3 GT ISZERO PUSH2 0x1839 JUMPI PUSH1 0x0 DUP1 REVERT JUMPDEST PUSH2 0x1845 DUP13 DUP4 DUP14 ADD PUSH2 0x1711 JUMP JUMPDEST SWAP1 SWAP11 POP SWAP9 POP PUSH1 0x20 DUP12 ADD CALLDATALOAD SWAP2 POP DUP1 DUP3 GT ISZERO PUSH2 0x185E JUMPI PUSH1 0x0 DUP1 REVERT JUMPDEST PUSH2 0x186A DUP13 DUP4 DUP14 ADD PUSH2 0x1711 JUMP JUMPDEST SWAP1 SWAP9 POP SWAP7 POP PUSH1 0x40 DUP12 ADD CALLDATALOAD SWAP2 POP DUP1 DUP3 GT ISZERO PUSH2 0x1883 JUMPI PUSH1 0x0 DUP1 REVERT JUMPDEST POP PUSH2 0x1890 DUP12 DUP3 DUP13 ADD PUSH2 0x1711 JUMP JUMPDEST SWAP10 SWAP13 SWAP9 SWAP12 POP SWAP7 SWAP10 SWAP6 SWAP9 SWAP7 SWAP8 PUSH1 0x60 DUP8 ADD CALLDATALOAD SWAP7 PUSH1 0x80 ADD CALLDATALOAD SWAP6 POP SWAP4 POP POP POP POP JUMP JUMPDEST PUSH1 0x0 PUSH1 0x1 PUSH1 0x1 PUSH1 0x40 SHL SUB DUP3 GT ISZERO PUSH2 0x18C7 JUMPI PUSH2 0x18C7 PUSH2 0x15C9 JUMP JUMPDEST POP PUSH1 0x5 SHL PUSH1 0x20 ADD SWAP1 JUMP JUMPDEST PUSH1 0x0 DUP3 PUSH1 0x1F DUP4 ADD SLT PUSH2 0x18E2 JUMPI PUSH1 0x0 DUP1 REVERT JUMPDEST DUP2 CALLDATALOAD PUSH1 0x20 PUSH2 0x18F7 PUSH2 0x18F2 DUP4 PUSH2 0x18AE JUMP JUMPDEST PUSH2 0x15DF JUMP JUMPDEST DUP3 DUP2 MSTORE PUSH1 0x5 SWAP3 SWAP1 SWAP3 SHL DUP5 ADD DUP2 ADD SWAP2 DUP2 DUP2 ADD SWAP1 DUP7 DUP5 GT ISZERO PUSH2 0x1916 JUMPI PUSH1 0x0 DUP1 REVERT JUMPDEST DUP3 DUP7 ADD JUMPDEST DUP5 DUP2 LT ISZERO PUSH2 0x1931 JUMPI DUP1 CALLDATALOAD DUP4 MSTORE SWAP2 DUP4 ADD SWAP2 DUP4 ADD PUSH2 0x191A JUMP JUMPDEST POP SWAP7 SWAP6 POP POP POP POP POP POP JUMP JUMPDEST PUSH1 0x0 DUP1 PUSH1 0x0 DUP1 PUSH1 0x0 PUSH1 0xA0 DUP7 DUP9 SUB SLT ISZERO PUSH2 0x1954 JUMPI PUSH1 0x0 DUP1 REVERT JUMPDEST PUSH2 0x195D DUP7 PUSH2 0x1443 JUMP JUMPDEST SWAP5 POP PUSH2 0x196B PUSH1 0x20 DUP8 ADD PUSH2 0x1443 JUMP JUMPDEST SWAP4 POP PUSH1 0x40 DUP7 ADD CALLDATALOAD PUSH1 0x1 PUSH1 0x1 PUSH1 0x40 SHL SUB DUP1 DUP3 GT ISZERO PUSH2 0x1987 JUMPI PUSH1 0x0 DUP1 REVERT JUMPDEST PUSH2 0x1993 DUP10 DUP4 DUP11 ADD PUSH2 0x18D1 JUMP JUMPDEST SWAP5 POP PUSH1 0x60 DUP9 ADD CALLDATALOAD SWAP2 POP DUP1 DUP3 GT ISZERO PUSH2 0x19A9 JUMPI PUSH1 0x0 DUP1 REVERT JUMPDEST PUSH2 0x19B5 DUP10 DUP4 DUP11 ADD PUSH2 0x18D1 JUMP JUMPDEST SWAP4 POP PUSH1 0x80 DUP9 ADD CALLDATALOAD SWAP2 POP DUP1 DUP3 GT ISZERO PUSH2 0x19CB JUMPI PUSH1 0x0 DUP1 REVERT JUMPDEST POP PUSH2 0x19D8 DUP9 DUP3 DUP10 ADD PUSH2 0x160F JUMP JUMPDEST SWAP2 POP POP SWAP3 SWAP6 POP SWAP3 SWAP6 SWAP1 SWAP4 POP JUMP JUMPDEST PUSH1 0x0 DUP1 PUSH1 0x40 DUP4 DUP6 SUB SLT ISZERO PUSH2 0x19F8 JUMPI PUSH1 0x0 DUP1 REVERT JUMPDEST DUP3 CALLDATALOAD PUSH1 0x1 PUSH1 0x1 PUSH1 0x40 SHL SUB DUP2 GT ISZERO PUSH2 0x1A0E JUMPI PUSH1 0x0 DUP1 REVERT JUMPDEST DUP4 ADD PUSH1 0x1F DUP2 ADD DUP6 SGT PUSH2 0x1A1F JUMPI PUSH1 0x0 DUP1 REVERT JUMPDEST DUP1 CALLDATALOAD PUSH1 0x20 PUSH2 0x1A2F PUSH2 0x18F2 DUP4 PUSH2 0x18AE JUMP JUMPDEST DUP3 DUP2 MSTORE PUSH1 0x5 SWAP3 SWAP1 SWAP3 SHL DUP4 ADD DUP2 ADD SWAP2 DUP2 DUP2 ADD SWAP1 DUP9 DUP5 GT ISZERO PUSH2 0x1A4E JUMPI PUSH1 0x0 DUP1 REVERT JUMPDEST SWAP4 DUP3 ADD SWAP4 JUMPDEST DUP4 DUP6 LT ISZERO PUSH2 0x1A6C JUMPI DUP5 CALLDATALOAD DUP3 MSTORE SWAP4 DUP3 ADD SWAP4 SWAP1 DUP3 ADD SWAP1 PUSH2 0x1A53 JUMP JUMPDEST SWAP6 POP PUSH2 0x1A7B SWAP1 POP DUP7 DUP3 ADD PUSH2 0x1443 JUMP JUMPDEST SWAP4 POP POP POP POP SWAP3 POP SWAP3 SWAP1 POP JUMP JUMPDEST PUSH1 0x0 DUP1 PUSH1 0x0 DUP1 PUSH1 0x0 PUSH1 0xA0 DUP7 DUP9 SUB SLT ISZERO PUSH2 0x1A9F JUMPI PUSH1 0x0 DUP1 REVERT JUMPDEST PUSH2 0x1AA8 DUP7 PUSH2 0x1443 JUMP JUMPDEST SWAP5 POP PUSH2 0x1AB6 PUSH1 0x20 DUP8 ADD PUSH2 0x1443 JUMP JUMPDEST SWAP4 POP PUSH1 0x40 DUP7 ADD CALLDATALOAD SWAP3 POP PUSH1 0x60 DUP7 ADD CALLDATALOAD SWAP2 POP PUSH1 0x80 DUP7 ADD CALLDATALOAD PUSH1 0x1 PUSH1 0x1 PUSH1 0x40 SHL SUB DUP2 GT ISZERO PUSH2 0x1ADF JUMPI PUSH1 0x0 DUP1 REVERT JUMPDEST PUSH2 0x19D8 DUP9 DUP3 DUP10 ADD PUSH2 0x160F JUMP JUMPDEST DUP2 DUP4 MSTORE DUP2 DUP2 PUSH1 0x20 DUP6 ADD CALLDATACOPY POP PUSH1 0x0 DUP3 DUP3 ADD PUSH1 0x20 SWAP1 DUP2 ADD SWAP2 SWAP1 SWAP2 MSTORE PUSH1 0x1F SWAP1 SWAP2 ADD PUSH1 0x1F NOT AND SWAP1 SWAP2 ADD ADD SWAP1 JUMP JUMPDEST PUSH1 0x1 DUP1 PUSH1 0xA0 SHL SUB DUP8 AND DUP2 MSTORE DUP6 PUSH1 0x20 DUP3 ADD MSTORE PUSH1 0xA0 PUSH1 0x40 DUP3 ADD MSTORE PUSH1 0x0 PUSH2 0x1B3C PUSH1 0xA0 DUP4 ADD DUP7 DUP9 PUSH2 0x1AEB JUMP JUMPDEST PUSH1 0x60 DUP4 ADD SWAP5 SWAP1 SWAP5 MSTORE POP PUSH1 0x80 ADD MSTORE SWAP5 SWAP4 POP POP POP POP JUMP JUMPDEST PUSH1 0x1 DUP1 PUSH1 0xA0 SHL SUB DUP6 AND DUP2 MSTORE DUP4 PUSH1 0x20 DUP3 ADD MSTORE PUSH1 0x60 PUSH1 0x40 DUP3 ADD MSTORE PUSH1 0x0 PUSH2 0x1B79 PUSH1 0x60 DUP4 ADD DUP5 DUP7 PUSH2 0x1AEB JUMP JUMPDEST SWAP7 SWAP6 POP POP POP POP POP POP JUMP JUMPDEST PUSH1 0x20 DUP1 DUP3 MSTORE PUSH1 0x23 SWAP1 DUP3 ADD MSTORE PUSH32 0x54696D656C6F636B436F6E74726F6C6C65723A206C656E677468206D69736D61 PUSH1 0x40 DUP3 ADD MSTORE PUSH3 0xE8C6D PUSH1 0xEB SHL PUSH1 0x60 DUP3 ADD MSTORE PUSH1 0x80 ADD SWAP1 JUMP JUMPDEST PUSH4 0x4E487B71 PUSH1 0xE0 SHL PUSH1 0x0 MSTORE PUSH1 0x32 PUSH1 0x4 MSTORE PUSH1 0x24 PUSH1 0x0 REVERT JUMPDEST PUSH1 0x0 PUSH1 0x20 DUP3 DUP5 SUB SLT ISZERO PUSH2 0x1BEE JUMPI PUSH1 0x0 DUP1 REVERT JUMPDEST PUSH2 0x7B5 DUP3 PUSH2 0x1443 JUMP JUMPDEST PUSH1 0x0 DUP1 DUP4 CALLDATALOAD PUSH1 0x1E NOT DUP5 CALLDATASIZE SUB ADD DUP2 SLT PUSH2 0x1C0E JUMPI PUSH1 0x0 DUP1 REVERT JUMPDEST DUP4 ADD DUP1 CALLDATALOAD SWAP2 POP PUSH1 0x1 PUSH1 0x1 PUSH1 0x40 SHL SUB DUP3 GT ISZERO PUSH2 0x1C28 JUMPI PUSH1 0x0 DUP1 REVERT JUMPDEST PUSH1 0x20 ADD SWAP2 POP CALLDATASIZE DUP2 SWAP1 SUB DUP3 SGT ISZERO PUSH2 0x14A0 JUMPI PUSH1 0x0 DUP1 REVERT JUMPDEST PUSH4 0x4E487B71 PUSH1 0xE0 SHL PUSH1 0x0 MSTORE PUSH1 0x11 PUSH1 0x4 MSTORE PUSH1 0x24 PUSH1 0x0 REVERT JUMPDEST PUSH1 0x0 PUSH1 0x1 DUP3 ADD PUSH2 0x1C65 JUMPI PUSH2 0x1C65 PUSH2 0x1C3D JUMP JUMPDEST POP PUSH1 0x1 ADD SWAP1 JUMP JUMPDEST DUP2 DUP4 MSTORE PUSH1 0x0 PUSH1 0x20 DUP1 DUP6 ADD DUP1 DUP2 SWAP7 POP DUP6 PUSH1 0x5 SHL DUP2 ADD SWAP2 POP DUP5 PUSH1 0x0 JUMPDEST DUP8 DUP2 LT ISZERO PUSH2 0x1CF0 JUMPI DUP3 DUP5 SUB DUP10 MSTORE DUP2 CALLDATALOAD PUSH1 0x1E NOT DUP9 CALLDATASIZE SUB ADD DUP2 SLT PUSH2 0x1CA7 JUMPI PUSH1 0x0 DUP1 REVERT JUMPDEST DUP8 ADD DUP6 DUP2 ADD SWAP1 CALLDATALOAD PUSH1 0x1 PUSH1 0x1 PUSH1 0x40 SHL SUB DUP2 GT ISZERO PUSH2 0x1CC2 JUMPI PUSH1 0x0 DUP1 REVERT JUMPDEST DUP1 CALLDATASIZE SUB DUP3 SGT ISZERO PUSH2 0x1CD1 JUMPI PUSH1 0x0 DUP1 REVERT JUMPDEST PUSH2 0x1CDC DUP7 DUP3 DUP5 PUSH2 0x1AEB JUMP JUMPDEST SWAP11 DUP8 ADD SWAP11 SWAP6 POP POP POP SWAP1 DUP5 ADD SWAP1 PUSH1 0x1 ADD PUSH2 0x1C86 JUMP JUMPDEST POP SWAP2 SWAP8 SWAP7 POP POP POP POP POP POP POP JUMP JUMPDEST PUSH1 0xA0 DUP1 DUP3 MSTORE DUP2 ADD DUP9 SWAP1 MSTORE PUSH1 0x0 DUP10 PUSH1 0xC0 DUP4 ADD DUP3 JUMPDEST DUP12 DUP2 LT ISZERO PUSH2 0x1D3E JUMPI PUSH1 0x1 PUSH1 0x1 PUSH1 0xA0 SHL SUB PUSH2 0x1D29 DUP5 PUSH2 0x1443 JUMP JUMPDEST AND DUP3 MSTORE PUSH1 0x20 SWAP3 DUP4 ADD SWAP3 SWAP1 SWAP2 ADD SWAP1 PUSH1 0x1 ADD PUSH2 0x1D10 JUMP JUMPDEST POP DUP4 DUP2 SUB PUSH1 0x20 DUP6 ADD MSTORE DUP9 DUP2 MSTORE PUSH1 0x1 PUSH1 0x1 PUSH1 0xFB SHL SUB DUP10 GT ISZERO PUSH2 0x1D5E JUMPI PUSH1 0x0 DUP1 REVERT JUMPDEST DUP9 PUSH1 0x5 SHL SWAP2 POP DUP2 DUP11 PUSH1 0x20 DUP4 ADD CALLDATACOPY DUP2 DUP2 ADD SWAP2 POP POP PUSH1 0x20 DUP2 ADD PUSH1 0x0 DUP2 MSTORE PUSH1 0x20 DUP5 DUP4 SUB ADD PUSH1 0x40 DUP6 ADD MSTORE PUSH2 0x1D8F DUP2 DUP9 DUP11 PUSH2 0x1C6C JUMP JUMPDEST PUSH1 0x60 DUP6 ADD SWAP7 SWAP1 SWAP7 MSTORE POP POP POP PUSH1 0x80 ADD MSTORE SWAP7 SWAP6 POP POP POP POP POP POP JUMP JUMPDEST PUSH1 0x0 DUP3 NOT DUP3 GT ISZERO PUSH2 0x1DBB JUMPI PUSH2 0x1DBB PUSH2 0x1C3D JUMP JUMPDEST POP ADD SWAP1 JUMP JUMPDEST PUSH1 0x0 JUMPDEST DUP4 DUP2 LT ISZERO PUSH2 0x1DDB JUMPI DUP2 DUP2 ADD MLOAD DUP4 DUP3 ADD MSTORE PUSH1 0x20 ADD PUSH2 0x1DC3 JUMP JUMPDEST DUP4 DUP2 GT ISZERO PUSH2 0x1DEA JUMPI PUSH1 0x0 DUP5 DUP5 ADD MSTORE JUMPDEST POP POP POP POP JUMP JUMPDEST PUSH32 0x416363657373436F6E74726F6C3A206163636F756E7420000000000000000000 DUP2 MSTORE PUSH1 0x0 DUP4 MLOAD PUSH2 0x1E28 DUP2 PUSH1 0x17 DUP6 ADD PUSH1 0x20 DUP9 ADD PUSH2 0x1DC0 JUMP JUMPDEST PUSH17 0x1034B99036B4B9B9B4B733903937B6329 PUSH1 0x7D SHL PUSH1 0x17 SWAP2 DUP5 ADD SWAP2 DUP3 ADD MSTORE DUP4 MLOAD PUSH2 0x1E59 DUP2 PUSH1 0x28 DUP5 ADD PUSH1 0x20 DUP9 ADD PUSH2 0x1DC0 JUMP JUMPDEST ADD PUSH1 0x28 ADD SWAP5 SWAP4 POP POP POP POP JUMP JUMPDEST PUSH1 0x20 DUP2 MSTORE PUSH1 0x0 DUP3 MLOAD DUP1 PUSH1 0x20 DUP5 ADD MSTORE PUSH2 0x1E84 DUP2 PUSH1 0x40 DUP6 ADD PUSH1 0x20 DUP8 ADD PUSH2 0x1DC0 JUMP JUMPDEST PUSH1 0x1F ADD PUSH1 0x1F NOT AND SWAP2 SWAP1 SWAP2 ADD PUSH1 0x40 ADD SWAP3 SWAP2 POP POP JUMP JUMPDEST PUSH1 0x20 DUP1 DUP3 MSTORE PUSH1 0x2A SWAP1 DUP3 ADD MSTORE PUSH32 0x54696D656C6F636B436F6E74726F6C6C65723A206F7065726174696F6E206973 PUSH1 0x40 DUP3 ADD MSTORE PUSH10 0x206E6F74207265616479 PUSH1 0xB0 SHL PUSH1 0x60 DUP3 ADD MSTORE PUSH1 0x80 ADD SWAP1 JUMP JUMPDEST DUP2 DUP4 DUP3 CALLDATACOPY PUSH1 0x0 SWAP2 ADD SWAP1 DUP2 MSTORE SWAP2 SWAP1 POP JUMP JUMPDEST PUSH1 0x0 DUP2 PUSH1 0x0 NOT DIV DUP4 GT DUP3 ISZERO ISZERO AND ISZERO PUSH2 0x1F0C JUMPI PUSH2 0x1F0C PUSH2 0x1C3D JUMP JUMPDEST POP MUL SWAP1 JUMP JUMPDEST PUSH1 0x0 DUP2 PUSH2 0x1F20 JUMPI PUSH2 0x1F20 PUSH2 0x1C3D JUMP JUMPDEST POP PUSH1 0x0 NOT ADD SWAP1 JUMP INVALID LOG2 PUSH5 0x6970667358 0x22 SLT KECCAK256 0x4E SWAP15 0xD4 0x28 0xA5 SWAP15 0x1F 0xD9 0xD3 CALLDATACOPY COINBASE 0x2E ADDMOD 0xD6 DUP5 PUSH28 0xFD40DC181B6170D27AE8C1C22A8268B564736F6C634300080F003300 ",
  "sha1": "7d76125c77c365d9d4e6b58d750c8dc4fc903ce0",
  "source": "// SPDX-License-Identifier: MIT\npragma solidity ^0.8.0;\n\nimport \"@openzeppelin/contracts/governance/TimelockController.sol\";\n\ncontract TimeLock is TimelockController {\n    constructor(\n        uint256 _minDelay,\n        address[] memory _proposers,\n        address[] memory _executors\n    ) TimelockController(_minDelay, _proposers, _executors) {}\n\n    function grantRoleByArray(bytes32[] memory role, address account)\n        public\n        virtual\n        onlyRole(getRoleAdmin(role[0]))\n        onlyRole(getRoleAdmin(role[1]))\n        onlyRole(getRoleAdmin(role[2]))\n    {\n        for (uint256 i = 0; i < role.length; i++) {\n            _grantRole(role[i], account);\n        }\n    }\n}\n",
  "sourcePath": "contracts/governance/TimeLock.sol",
  "type": "contract"
}